:020000040808EA
:1000000000000808846A0808000006000A000501CC
:080010000402DB070000000000
:04001800F060080884
:1000200008B5024B1B689B6D019308BD2C000608A8
:1000300008B5024B1B685B6E019308BD2C000608D7
:1000400009480A4908B5884205D0094A824202D0C7
:10005000121A04F0B3F80748074A0021121A04F0F4
:10006000BBF8064808BD00BF0000002074680808FF
:10007000E8010020E8010020F4050020F40500203C
:1000800070B502F02BFC0025054E064CA41BA408FD
:10009000A54200D170BD56F8043B98470135F7E7FB
:1000A0004C6808086C68080800F04EB908B500F004
:1000B000CBF9BDE8084002F0D3BB01F061BF01F00D
:1000C0005FBF01F065BF0078B0FA80F0400970476B
:1000D000012303707047000010B50446024B036013
:1000E00000F066FE204610BDFC62080810B504460C
:1000F000FFF7F2FF20464FF41B7103F0B0FA2046E1
:1001000010BD0EB403B503AB53F8042B01210193CA
:1001100002F0C6F902B05DF804EB03B070470000CE
:1001200007B502F079FF0B49FFF7EBFF0022002330
:1001300009490A48C1E900231821009101F0BFFADA
:1001400001230020064A1370064A136003B05DF8CD
:1001500004FB00BF04610808E80400200802002036
:10016000F00400200800002008B502F055FF064901
:10017000FFF7C7FF0122054B1A7001F0FBFC044B8F
:100180001860002008BD00BF28610808A0040020F6
:100190009C04002038B50446084D0121288803F04E
:1001A000E2F9204602F0E8FA2888002103F0DBF9A2
:1001B000BDE83840C82002F0DFBA00BF04000020CC
:1001C00038B505460024AC4205DA4FF41670FFF747
:1001D000E1FF0134F7E738BD38B505460024AC42ED
:1001E00004DAC820FFF7D6FF0134F8E738BD08B5B8
:1001F0000320FFF7F1FF0320FFF7E2FFBDE808400F
:100200000320FFF7E9BF38B5046805467CB1636891
:10021000013B63605BB9236820469B689847A368ED
:10022000013BA3601BB923682046DB68984728463A
:1002300038BD000070B59AB0006803F0ADFF384DCE
:10024000384E286002F0E8FE3749044616A801F04F
:10025000D1FF2A68314612A802F0A8F812A916A800
:1002600002F071F801682046FFF74BFF12A801F079
:1002700077FF16A801F074FF2C4902A801F0BAFF1D
:1002800002A90AA801F0F5FF294906A801F0B2FF6A
:1002900006A90AA802F057F8044626490EA801F05C
:1002A000A9FF0EA9204602F04EF804462A683146FE
:1002B00012A802F07BF812A9204602F044F8044686
:1002C0001D4916A801F096FF16A9204602F03BF83A
:1002D0001A4C0146204601F0BDFF16A801F040FF70
:1002E00012A801F03DFF0EA801F03AFF06A801F0A8
:1002F00037FF0AA801F034FF02A801F031FF104BCC
:1003000010491B7816A88DF8003022684FF4167338
:1003100002F064FC17A8FFF776FF00201AB070BD4A
:1003200000000020526108083A6108085561080879
:100330005761080864610808666108082002002007
:10034000EC010020696108082DE97F4302F064FE9A
:100350002D49FFF7D6FE0024082301262B4DADF8CA
:10036000083002AA234647F230512046ADF80A4031
:10037000039601F0F5FD2846254A264902F03BFB8D
:100380002846254A254902F036FB2846244A2549B5
:1003900002F031FB244923462246CDE9004423489C
:1003A00001F0CEFD4FF000084FF00009182342463F
:1003B00000931F484B4601F082F903234246009305
:1003C0001C484B4601F07BF91B4B1C4D18883146ED
:1003D00003F0B8F84FF48061284601F0DAF92846B6
:1003E00001F0D0F9164B22461B7816498DF80030E3
:1003F00002A84FF4167302F0F1FB03A8FFF703FF06
:1004000004B0BDE8708300BF7C610808CB290808F0
:100410009361080869010808A66108083502080800
:10042000B361080821010808E90B0808BB61080846
:1004300008020020A804002004000020EE01002093
:10044000EC010020C96108082DE9F041F8B001F085
:1004500091FB274B984211D9FFF7C9FE254B264A3D
:100460001B7826498DF800306BA84FF4967302F084
:10047000B5FB6CA8FFF7C7FE01F000FE204B1B7810
:10048000D3B101F077FB1F4B1B68C01A43F69723CB
:10049000984211D9FFF7ABFE164B1B4A1B78174940
:1004A0008DF800306BA84FF4967302F097FB6CA8A0
:1004B000FFF7A9FE01F0E2FD02F043F913490446FB
:1004C0006BA801F0ADFA124B1B782BBB0420FFF791
:1004D00083FE42F2107002F04FF90E4B72A86B933C
:1004E00001F03EFE6EA801F03BFE78B0BDE8F08161
:1004F000FF071948EC010020D1610808E1610808F4
:10050000A00400209C040020E7610808F1040020FA
:10051000C00400202C6408080120FFF75DFE0021C4
:10052000BB4801F038F9BB4A831E106047F6985269
:1005300093421DD803F0ECF9B1A3D3E9002303F0F3
:1005400099F8B1A3D3E9002303F04CFAB24BB34DB1
:10055000D3E9002303F08EF802460B46B048C5E904
:10056000002301F06CF8D5E90023AE4801F067F8EC
:1005700002F052FDAC4D06462A68AC4953A801F082
:1005800015FF53A957A801F074FEA94957A801F017
:10059000E6FE07469F4BA7491A685BA801F006FFD5
:1005A00038465BA901F0CFFEA14901F0D8FE07460D
:1005B0009A4BA149D3E900235FA801F0F7FE384622
:1005C0005FA901F0C0FE9A4901F0C9FE07469448B0
:1005D00001F065F802460B4663A8974901F0E6FE74
:1005E000384663A901F0AFFE914901F0B8FE074615
:1005F0008C4801F054F802460B4667A88E4901F07A
:10060000D5FE67A9384601F09EFE01683046FFF727
:1006100078FD67A801F0A4FD63A801F0A1FD5FA823
:1006200001F09EFD5BA801F09BFD57A801F098FD2D
:1006300053A801F095FDD5F80080B8F1180F40F0EF
:100640008B804FF0FF337D4F2B603B78002B00F009
:100650008380734801F023F86F4EC6E900017048AB
:1006600000F0CCFF002200236D48CDF8008001F09F
:1006700026F86C4800F0C2FF03230022694800936B
:10068000002301F01CF86E4953A801F0B3FD53A9F3
:100690005BA801F0EEFD6B4957A801F0ABFD57A92F
:1006A0005BA801F050FE054667495FA801F0A2FD76
:1006B00028465FA901F047FED6E9002305465E49BA
:1006C00063A801F073FE284663A901F03CFE0546CD
:1006D0005E4967A801F08EFD284667A901F033FE48
:1006E0005B4E0146304601F0B5FD67A801F038FDCC
:1006F00063A801F035FD5FA801F032FD57A801F0B5
:100700002FFD5BA801F02CFD53A801F029FD514BF2
:1007100051491B7867A88DF8003032684FF4167382
:1007200002F05CFA68A8FFF76EFD02F075FC4B4919
:10073000054667A801F05EFD314667A801F003FE9B
:1007400001682846FFF7DDFC67A801F009FD0520D8
:10075000FFF736FD00233B70394903A801F04AFD3D
:1007600003A90BA801F085FD3D4907A801F042FD52
:1007700007A90BA801F0E7FD054633490FA801F0D2
:1007800039FD28460FA901F0DEFD0546354B22460E
:100790001B683549009313A8E31701F073FF13A9F1
:1007A000284601F0D0FD0446304917A801F022FD8B
:1007B000204617A901F0C7FD04462D491BA801F0EA
:1007C00019FD20461BA901F0BEFD04461E491FA8C5
:1007D00001F010FD20461FA901F0B5FDDDE97623EB
:1007E0000446244923A801F0E1FD204623A901F095
:1007F000AAFD04461D4927A83EE000BFAFF30080D4
:1008000000000000001EB940D969C3CD51E7B33FD5
:10081000EE010020D0040020E8040020C8040020DD
:1008200008020020A804002008000020FE6108083B
:10083000016208085261080804620808F0040020F8
:10084000556108080A6208086461080866610808BA
:10085000D4040020EC0100201C620808256208086E
:100860004762080810000020080500204D620808B3
:10087000506208085662080801F0BCFC204627A90F
:1008800001F061FD044688492BA801F0B3FC204625
:100890002BA901F058FD044684492FA801F0AAFCB9
:1008A00020462FA901F04FFD0446814B81491A686B
:1008B00033A801F07BFD204633A901F044FD044636
:1008C0007D4937A801F096FC204637A901F03BFD91
:1008D00004467A493BA801F08DFC20463BA901F073
:1008E00032FD044671493FA801F084FC20463FA92F
:1008F00001F029FD0446724B7249D3E9002343A855
:1009000001F054FD204643A901F01DFD04466A494B
:1009100047A801F06FFC204647A901F014FD0446EA
:1009200069494BA801F066FC20464BA901F00BFD7C
:1009300004465E494FA801F05DFC20464FA901F036
:1009400002FD0446614800F0AAFE02460B4653A889
:100950005C4901F02BFD204653A901F0F4FC04464C
:10096000554957A801F046FC204657A901F0EBFC79
:10097000044657495BA801F03DFC20465BA901F005
:10098000E2FC044649495FA801F034FC20465FA917
:1009900001F0D9FC04464F4800F081FE02460B46A8
:1009A00063A8484901F002FD204663A901F0CBFC91
:1009B0000446494967A801F01DFC204667A901F0DB
:1009C000C2FC464C0146204601F044FC67A801F0F9
:1009D000C7FB63A801F0C4FB5FA801F0C1FB5BA8E3
:1009E00001F0BEFB57A801F0BBFB53A801F0B8FB18
:1009F0004FA801F0B5FB4BA801F0B2FB47A801F0EE
:100A0000AFFB43A801F0ACFB3FA801F0A9FB3BA85A
:100A100001F0A6FB37A801F0A3FB33A801F0A0FB6F
:100A20002FA801F09DFB2BA801F09AFB27A801F04D
:100A300097FB23A801F094FB1FA801F091FB1BA8D2
:100A400001F08EFB17A801F08BFB13A801F088FBC7
:100A50000FA801F085FB07A801F082FB0BA801F0AD
:100A60007FFB03A801F07CFB01F052FA1C4B1D49EF
:100A70001B7867A88DF8003022684FF4167302F0D7
:100A8000ADF868A8FFF7BFFB174A1368002BC4BF77
:100A900001331360154B1B7813B141F288301AE50E
:100AA000134B186817E500BF6762080864610808FF
:100AB000D0040020526108084D62080871620808DD
:100AC000C8040020046208087962080808020020AF
:100AD00081620808A804002066610808F40100206B
:100AE000EC0100208B62080808000020F0040020C0
:100AF0000000002001222D4B73B52D4D1A704821A6
:100B00002C482D4C00F037FE2C4E1821284600F0C2
:100B100089FD28462A4D2246314602F09BFD0321DD
:100B2000284600F07FFD3146264E2246284602F038
:100B300091FD254D0A225021304601F0BEFB304682
:100B4000224E2246294602F085FD0A2250213046D7
:100B500001F0B3FB30461E4E2246294602F07AFDD4
:100B60000A225021304601F0A8FB22462946304691
:100B700002F070FD1423174D009305F12C0105F5CB
:100B800096734FF48072284600F064F9124B2246A7
:100B90002B602846114902F05DFD114A00231146E1
:100BA000104802B0BDE8704001F0B4B8EC0100207C
:100BB00008020020EE010020E8010020ED150808E1
:100BC000A8040020F401002061210808D4040020BA
:100BD0002002002030020020FC620808D90008082A
:100BE0000D6408089562080830B50C469BB0514862
:100BF00000F02CF9204603F056FB214602464D48F2
:100C000000F007F94B4800F0A3FC4B4D002800F022
:100C10008980484912A800F02DF9484A12A916A85F
:100C200000F09CFA002116A800F097F902F082FE6D
:100C3000C5E9000116A800F09BF812A800F098F88A
:100C400002F0EAF93E49044616A801F0D3FAD5E9C4
:100C5000002312A83B4901F0A9FB12A916A801F034
:100C600072FB01682046FFF74CFA12A801F078FAEF
:100C700016A801F075FA344902A801F0BBFA02A9DE
:100C80000AA801F0F6FA314906A801F0B3FA06A95C
:100C90000AA801F058FB04462D490EA801F0AAFA53
:100CA0000EA9204601F04FFBD5E900230446254953
:100CB00012A801F07BFB12A9204601F044FB044678
:100CC000244916A801F096FA16A9204601F03BFB2C
:100CD000214C0146204601F0BDFA16A801F040FA69
:100CE00012A801F03DFA0EA801F03AFA06A801F0A8
:100CF00037FA0AA801F034FA02A801F031FA174BCA
:100D000017491B7816A88DF8003022684FF4167327
:100D100001F064FF17A8FFF776FA0122114B1A7051
:100D20001BB030BD02F078F90F4A1049FFF7E9F91E
:100D300086E700BF30020020E8040020E4620808D3
:100D4000B662080804620808556108080A620808C3
:100D50006461080866610808D4040020EC010020E2
:100D6000DC620808C00400209B620808B062080822
:100D7000704710B504460C2102F071FC204610BDEE
:100D800010B5054B04460360037C1BB9406808B1ED
:100D900001F0FEF8204610BD1463080810B50446A3
:100DA000FFF7EEFF2046142102F059FC204610BD4B
:100DB00010B5074B04460360037C1BB9406908B1BA
:100DC00001F0E6F82046FFF7DBFF204610BD00BF2C
:100DD0002463080810B50446FFF7EAFF20462C21DB
:100DE00002F03DFC204610BD38B5037C04460D469C
:100DF0000BB1002038BD406838B101F0D1F80028AF
:100E0000F7D0C4E901050120F4E7084601F0B8F87D
:100E1000F5E770B5C3680E46D11843680446154619
:100E200073B183688B420BD36068E3682A4631460E
:100E3000184403F0C3F90120E2682A44E26070BD5F
:100E40002046FFF7D1FF0028EED1F8E70023C3606A
:100E500070470000C0E901120022C260012210B5F3
:100E600002744361024A029B0260C36110BD00BF6D
:100E700024630808D1E905239A42044B38BF8260F5
:100E8000C0E9003124BF0023836070473463080841
:100E900070B513689D68136803F1100414608669C7
:100EA000B4420AD29B698C68A34201DAAB42F2DDFC
:100EB000A342CCBF0020012000E0002070BD2DE93E
:100EC000F3410546174600269846089C01F1100399
:100ED00001930198AB6983421BD982688B689A425F
:100EE00017DAA6420BD1386001AA2846FFF7D0FFD7
:100EF00028B1019BC8F8003002B0BDE8F08101AA1A
:100F00002846FFF7C5FF284601AA0136FFF7C0FFB4
:100F1000DFE70020F0E7F0B50024013BD1E90176DE
:100F2000F61BA64208DDA34206DD45683D442D5D63
:100F3000013402F8015BF1E700231370F0BD1FB527
:100F4000144610236A46FFF7E6FF0021684604F0C6
:100F500003F82060012004B010BD07B5019181683D
:100F600019B1406801AAFFF7EAFF019803B05DF8E4
:100F700004FB10B5044600680B4628B101F0D6F911
:100F8000E3680133E36010BD60680028F8D0D4E95D
:100F90000221013A8A4288BF4354F1E77F2870B5A5
:100FA0000C46C1B204D82046BDE87040FFF7E1BF4F
:100FB00001F03F01B0F5006F40F3871641F0800566
:100FC00007D266F03F01C9B22046FFF7D2FF29469B
:100FD000E9E7030B43F0E0012046FFF7CAFF06F004
:100FE0003F0141F08001EFE72DE9FF4700248046F3
:100FF0000F461546A1464E68DFF8C4A0B868B04257
:101000005ADDD8F80430995D9A19002C4BD0752917
:1010100005D86D2907D862291ED066291ED028461A
:10102000FFF7A7FF3DE0A1F16E04072CF7D80FF200
:10103000080C5CF824F000BF611008081F100808B5
:101040001F1008081F100808651008081F1008085E
:10105000691008086D1008080821E0E70C21DEE798
:101060000A21DCE70D21DAE70921D8E7311D8842A2
:1010700017DD02A908460433334412F8014F9A429F
:1010800001F8014BF9D1514601AA8DF80C9000F0FE
:1010900097FF012805D12946BDF80400FFF77EFF20
:1010A0000536002404E05C2904D02846FFF761FFE0
:1010B0000136A3E70124FBE7012004B0BDE8F08777
:1010C000046308087FB50C46154606460B491046D2
:1010D00001F0E2F8D4E90131C91A2846013101F0E2
:1010E0005DF800236A4621463046CDE9013300957C
:1010F0000393FFF779FF04B070BD00BF0D640808CB
:101100002DE9F04389B00546884604A812491646E1
:101110009946002701F06EF84B4641462846009755
:1011200003AAFFF7CCFE044670B12846039904AA2F
:10113000FFF7C8FF044608B90137EDE7314604A8B8
:1011400001F021F90028F7D004A801F009F82046A1
:1011500009B0BDE8F08300BF0D64080873B50D4603
:1011600089680446094E61B1686801ABFFF7C8FFA2
:1011700038B16B68C4E90063019B2046A36002B0EC
:1011800070BD6B68C4E900630023F6E734630808A8
:101190002DE9F04F4FF0010C4FF0FF350446406849
:1011A000D4F800E0964580F0BE8111F80E80B8F1C9
:1011B000000F00F0B881B8F13A0F00F09B8033D8EF
:1011C000B8F1220F00F0AD8010D8A8F109085FFA3D
:1011D00088F8B8F1170F0DD8C04F0CFA08F818EAC4
:1011E000070F07D0276801372760D9E7B8F12C0F20
:1011F00000F03681D4F8008042450ED911F808700D
:101200005FB13A2F00F26E811F2F00F252810A2F38
:1012100000F26181082F40F25781002B40F0678176
:1012200008F1FF372760ABE0B8F17B0F3AD00AD85E
:10123000B8F15B0F36D0B8F15D0FDBD1002BD1D008
:101240004FF0020B06E0B8F17D0FD3D1002BC9D0CF
:101250004FF0010B676807F1FF3803EB0719B8F18E
:10126000000F4FDB59F80C7CA9F1100A013745D06B
:1012700059F8087C7E1C41D19AF80090D94545D197
:10128000A7600EF10107CAF8087003EB081EDEF82C
:10129000047001373DD0DEF80870013739D1C4F849
:1012A00008809FE70130002B9CD06768099EBE42F2
:1012B0004ED9002607F1010EC4F804E003EB071E27
:1012C000CEE90155CEF80C604FEA071AA7687E1CDC
:1012D0001FBF03EB0719D9F80C700137C9F80C7060
:1012E000B8F17B0F0CBF0127022703F80A702768AB
:1012F000CEF804706768013FA76073E7D14608F134
:10130000FF38ACE7B8F1FF3F7FF46CAF6FF001003E
:1013100020E008F1FF38B8F1FF3FAEF1100EB6D172
:1013200060E70EF10109C4F80090D4F8008042454E
:1013300040F2918011F80870002F00F08C80222F6D
:101340002ED1EBB16768099EBE4205D8C4F800E013
:101350004FF0FF30BDE8F08F00264FF0030A07F191
:10136000010E4FEA071803EB0717C4F804E0C7E9BA
:101370000155FE60D4F800E003F808A0C7E9019E1B
:10138000A76801307E1C3FF42DAF002B3FF42AAF3D
:1013900003EB071EDEF80C700137CEF80C7021E766
:1013A0005C2F11D108F10107BA420DD92760CF5D3A
:1013B000752F2BD86D2F0BD8662F27D85B2F1DD8F4
:1013C000222F01D02F2F21D1276801372760ACE7CA
:1013D0006E3F072F1AD801A656F827F0C913080840
:1013E0000D1408080D1408080D140808C91308087E
:1013F0000D140808C91308081314080840F24146E0
:101400005C3FFFB20CFA07F73742DDD1C4F800E0C9
:101410007CE74FF0040A08F102072760D4F8008047
:10142000424503D82768013F2760CDE711F80870CF
:10143000002FF7D0A7F1300BBBF1090F04D927F02B
:101440002007413F052FE1D808F10107BAF1010A51
:101450002760E3D1E6E7C4F800E06FF0020079E727
:10146000002B3FF4BFAEA7687E1C3FF4BBAE3F012C
:10147000DF5D013F012F7FF6B5AE676807F1FF38EA
:1014800003EB071EB8F1000FFFF6ACAE1EF8107CA0
:10149000013F012F08D85EF80C7C013704D05EF8BC
:1014A000087C01373FF4FBAE08F1FF38AEF1100EB7
:1014B000E8E7A7F120090A4E5FFA89F90CFA09F961
:1014C00019EA060F7FF4A9AE203F5E2F9ED808F1DF
:1014D000010727608EE60D2FF6D19EE613008000EF
:1014E0000110000407F0DF09B9F15D0FF4E7676848
:1014F000099EBE427FF62AAF00264FF0040A07F18C
:1015000001084FEA071903EB0717C4F80480C7E97D
:101510000155FE60D4F8008003F809A0C7E901E88E
:101520002768013F7EE6002B3FF414AF6268511E2E
:1015300003EB02130029FFF60DAF53F80C2C013218
:1015400003D053F8082C013287D00139103BF1E762
:10155000F7B54369044600F12006C3B10022C0E993
:1015600008224FF0FF328262C2690092C26841686D
:101570003046FFF70DFE431C2ED1257C15B100200F
:1015800003B0F0BD606900F003FD6561E561002511
:101590004FF0FF372B463046C4E90855E2686168D2
:1015A000A7620095FFF7F4FD0028E8DBE0611BD09F
:1015B000000100F0E5FCE2690346606100923046FC
:1015C000C4E90855E2686168A762FFF7E1FD636955
:1015D00003EB0013A36105E00028D0DB636903EB94
:1015E0000010A0610120CBE76369F3E710B5044662
:1015F000006908B100F0CCFC204610BD30B50024D5
:1016000000250023C0E90245437083700278D9B2F7
:101610008A4206D90269013302EBC102C2E90045E0
:10162000F4E730BD10B504460170C80000F0A8FC16
:10163000206100B920702046FFF7E0FF10BDF8B52B
:101640000569044616461F4645B3837800F1080134
:10165000D1E9000105EBC305D5E9002302F00AF842
:10166000C4E90201C5E90067A5782369D4E902014C
:1016700003EBC503D3E9002301F0FEFF0135227817
:10168000EDB2954208BF0023A57008BFA370637830
:10169000C4E902019A4284BF01336370F8BD10B5FA
:1016A0000446407840B102F033F902460B46D4E9D3
:1016B000020102F0C1FA10BD00200021FBE72DE974
:1016C000F041054616461F469DF818800024FFF796
:1016D00095FF444506D032463B462846FFF7AFFF0C
:1016E0000134F6E7BDE8F08110B5044601F08AFF49
:1016F00003682146BDE810409B68184708B501F013
:1017000081FF03685B699847C0B208BD70B50646A3
:101710000D46144601F076FF314601F057FE28468B
:10172000FFF7E2FF200AFFF7DFFFE0B2FFF7DCFF81
:1017300001F068FFBDE8704001F050BE10B50446EE
:1017400001F060FF214601F041FE0020FFF7CCFFD1
:1017500001F058FF01F042FE01F054FF2146022241
:1017600001F031FEFFF7CAFF0446FFF7C7FF40EA6A
:10177000042080B210BD00220170022182804170DD
:101780008270704708B501F03DFFBDE8084001F0E8
:10179000EBBD81807047032910B5044622D8022989
:1017A000828819D003291AD0012914BF42F4834238
:1017B00042F4A34242F00302012142F400422078A5
:1017C000FFF7A4FF607800F0D7FF2078FFF7B6FF9F
:1017D000A378184180B210BD42F4C342EAE742F454
:1017E000E342E7E70020F6E730B4054618461B68F9
:1017F0001C681346A4460A46294630BC60470EB40E
:1018000010B50023016820208DB00FAA52F8044BB8
:10181000CDE90403CDE9004203921E2004AA00F0A2
:10182000C1FA0DB0BDE8104003B070472DE9F04398
:101830000C468DB04D4904A816461D4600F0DAFC52
:10184000B4F5101F64D01FDCB4F5041F5CD013DCAA
:10185000B4F5881F56D0B4F5901F55D05CB322461E
:1018600008A8434900F0A2FD08A904A800F00CFD57
:1018700008A800F075FC22E0B4F5081F46D0B4F5C6
:101880000C1FECD13B4917E0B4F5800F46D00ADCC1
:10189000B4F5181F3ED0B4F5401F3DD0B4F5141F69
:1018A000DDD1354908E0B4F5A00F37D0B4F5C00F4D
:1018B000D5D1324900E0324904A800F0EDFC2B46B6
:1018C000049A30493048FFF79AFF284908A800F0E9
:1018D00091FC00242D4FDFF8D480DFF8D490AC4287
:1018E00035DA315D0A291BD1494608A800F00FFD01
:1018F00008992548FFF783FF1C4908A800F0CCFC95
:101900000134ECE72249D7E72249D5E72249D3E75A
:101910002249D1E72249CFE72249CDE72249CBE747
:101920000D2904D1414608A800F0F1FCE8E7A1F137
:1019300020035E2B07D90B463A460A2101A800F086
:1019400047FB01A9EFE708A800F0F0FCD8E70A9BE5
:101950001BB108990C48FFF752FF08A800F000FCE3
:1019600004A800F0FDFB0DB0BDE8F0830D6408088D
:10197000C36308086963080888630808B663080831
:101980003C630808CD63080804050020F4630808D8
:1019900049630808516308085C630808786308080D
:1019A00092630808A0630808AC630808F16308089C
:1019B000EE63080810B500F1300300F12C02044674
:1019C0000949C06900F0FCFA02280AD1E36A622BD7
:1019D000CEBF00235B00713BE3626FF001036360E5
:1019E00010BD6FF00203FAE7FB63080838B56FF02B
:1019F0000203436000230446074D0372074B294648
:101A000040F80C3B00F0F6FB294604F11C0000F006
:101A1000F1FB204638BD00BF0D6408082C6408089F
:101A200010B50446FFF7E2FF0C4B0D49236000237D
:101A300004F10C00C4E90B3300F02EFC42F21072EA
:101A40002146084B084800F075F96060023002D169
:101A50002046FFF7AFFF204610BD00BF20640808F6
:101A60000164080805640808E91708082DE9F04131
:101A70000C461E46591CA3682046194417469DF87B
:101A80001880002500F08AFBB5420CDA795DB8F1C8
:101A9000000F03D00D2904D00A2902D0204600F0FF
:101AA00045FC0135F0E7BDE8F0810000F0B590F8A5
:101AB00008C006460D4617461C468BB0BCF1000F09
:101AC00001D0FFF7B3FEB5F5800F2AD1601C00F0FE
:101AD00057FA054628B32246394602F0FEFB00239A
:101AE00020212B55114AF36802A800F071FA28460C
:101AF00002A902F005FC044680B102A802F0D3FB63
:101B000004440D21204602F093FB0123224600935A
:101B100006F11C01031B0648FFF7A8FF284600F04A
:101B200037FA4FF0FF300BB0F0BD00BF0E6408086D
:101B3000F104002008B5024B1B689B68019308BDA7
:101B4000B001040808B5024B1B68DB68019308BDAF
:101B5000B001040808B5024B1B681B69019308BD5E
:101B6000B001040808B5024B1B685B68019308BD0F
:101B70009C01040808B5024B1B685B69019308BD12
:101B80009C01040808B5024B1B689B6D019308BDBE
:101B90009C01040808B5024B1B685B6E019308BDED
:101BA0009C01040808B5024B1B685B6C019308BDDF
:101BB000D001040808B5024B1B689B6C019308BD5B
:101BC000D001040808B5024B1B689B69019308BD4E
:101BD000C401040808B5024B1B685B6A019308BD89
:101BE000C401040808B5024B1B689B6A019308BD39
:101BF000C401040808B5024B1B68DB6A019308BDE9
:101C0000C401040808B5024B1B681B6B019308BD97
:101C1000C401040808B5024B1B685B6B019308BD47
:101C2000C401040808B5024B1B689B6B019308BDF7
:101C3000C401040808B5024B1B681B6C019308BD66
:101C4000C401040808B5024B1B68DB68019308BD9A
:101C5000AC01040808B5024B1B689B69019308BDE1
:101C6000AC01040808B5024B1B68DB69019308BD91
:101C7000AC01040808B5024B1B681B6A019308BD40
:101C8000AC01040808B5024B1B685B6A019308BDF0
:101C9000AC01040808B5024B1B689B6A019308BDA0
:101CA000AC01040808B5024B1B68DB6A019308BD50
:101CB000AC01040808B5024B1B681B6B019308BDFF
:101CC000AC01040808B5024B1B685B6B019308BDAF
:101CD000AC01040808B5024B1B681B6C019308BDDE
:101CE000AC01040808B5024B1B681B6D019308BDCD
:101CF000AC01040808B5024B1B68DB69019308BD01
:101D0000B401040808B5024B1B681B6A019308BDA7
:101D1000B401040808B5024B1B689B6A019308BD17
:101D20002000060808B5024B1B68DB6B019308BD59
:101D30002000060808B5024B1B689B6C019308BD88
:101D40002000060808B5024B1B681B68019308BDFC
:101D50001C00060808B5024B1B681B69019308BDEF
:101D60001C00060808B5024B1B685B69019308BD9F
:101D70001C00060808B5024B1B689B69019308BD4F
:101D80001C00060808B5024B1B68DB69019308BDFF
:101D90001C00060808B5024B1B681B6A019308BDAE
:101DA0001C00060808B5024B1B685B6D019308BD5B
:101DB000A001020808B5024B1B681B68019308BD0F
:101DC000A401040808B5024B1B685B68019308BDB9
:101DD000A401040808B5024B1B685B69019308BDA8
:101DE000A401040808B5024B1B68DB6C019308BD15
:101DF000A401040808B5024B1B685B6D019308BD84
:101E0000A401040808B5024B1B689B6D019308BD33
:101E1000A401040808B5034B1B68D3F89030019364
:101E200008BD0000A401040808B5034B1B68D3F8E3
:101E30009C30019308BD0000A401040808B5034BC1
:101E40001B68D3F8B830019308BD0000A401040852
:101E500008B5024B1B685B68019308BDC801040804
:101E600008B5024B1B689B68019308BDC8010408B4
:101E700008B5024B1B68DB68019308BDC801040864
:101E800008B5024B1B681B69019308BDC801040813
:101E900008B5024B1B685B69019308BDC8010408C3
:101EA00008B5024B1B689B69019308BDC801040873
:101EB00008B5024B1B68DB69019308BDC801040823
:101EC00008B5024B1B681B6A019308BDC8010408D2
:101ED00008B5024B1B681B6B019308BDC8010408C1
:101EE00008B5024B1B685B6B019308BDC801040871
:101EF00008B5024B1B685B68019308BDCC01040860
:101F000008B5024B1B689B68019308BDCC0104080F
:101F100008B5024B1B68DB68019308BDCC010408BF
:101F200008B5024B1B685B69019308BDCC0104082E
:101F300008B5024B1B681B6A019308BDCC0104085D
:101F400008B5024B1B685B6A019308BDCC0104080D
:101F500008B5024B1B681B6B019308BDCC0104083C
:101F600008B5024B1B689B6B019308BDCC010408AC
:101F700008B5024B1B68DB6B019308BDCC0104085C
:101F800008B5024B1B681B68019308BDA00104083B
:101F900008B5024B1B685B68019308BDA0010408EB
:101FA00008B5024B1B689B68019308BDA00104089B
:101FB00008B5024B1B681B69019308BDA00104080A
:101FC00008B5024B1B685B69019308BDA0010408BA
:101FD00008B5024B1B68DB69019308BDA00104082A
:101FE00008B5024B1B685B6A019308BDA001040899
:101FF00008B5024B1B68DB6A019308BDA001040809
:1020000008B5024B1B681B6B019308BDA0010408B7
:1020100008B5024B1B685B6C019308BDA001040866
:1020200070B5002604460D4640F8086FFFF7BAFD6C
:1020300028462570FFF75EFE2046666070BD10B52D
:102040000446006818B1FFF7A3FF0023236010BD0A
:1020500010B50446FFF7F3FF204610BD07B50B4649
:1020600000210246009101208C21FFF7E7FE03B01A
:102070005DF804FB01460020FFF7F0BF0020FFF7EA
:10208000F9BF00000222002010B5084B084C1A606E
:10209000084B2060A080A071A360FFF793FE20464C
:1020A000BDE81040044A054901F0D4BA00050020FB
:1020B000F40400200000FFFFE80100205120080880
:1020C00010B5044602F0EFF8431E20462344834235
:1020D00006D90278197800F8011B03F80129F6E700
:1020E00010BD70B50C46911E222922D8254668B134
:1020F000B0FBF2F602FB1600C1B2092894BF3031E2
:102100005731C9B2304605F8011BF0E72A463021A5
:102110002344934202D902F8011BFAE75A1BAB424F
:1021200038BF002200232046AB54FFF7C9FF2046EA
:1021300070BD0020FCE738B5031E0C4615460DDACD
:102140002D22B3F1004F0CBF1846584201230A70EC
:102150002A461944FFF7C5FF204638BD0123F9E799
:1021600010B504460068FFF713FF204610BD10B5F8
:102170000446006808B1FFF70BFF0023C4E90133F0
:10218000236010BD38B504460D4600680131FFF7E5
:1021900007FF10B1C4E90005012038BD10B5036880
:1021A000044623B143688B4201D3012010BD204671
:1021B000FFF7E8FF0028F9D0A368002BF5D12268CB
:1021C0001370F2E770B50E46114604461546FFF748
:1021D000E5FF20B92046FFF7CAFF204670BD2A461A
:1021E00031462068A56001F0E9FF00212268A3685C
:1021F000D154F2E738B5002304460D46C0E9003358
:102200008360037339B1084602F04DF8294602464F
:102210002046FFF7D7FF204638BD38B50546006891
:102220000C4668B16A688B689A4207D3096802F065
:1022300016F8A368AB600023A36038BDFFF7A8FEC3
:1022400023682B6063686B60A368AB600023C4E9FC
:102250000033F1E7884210B50B46044604D0096804
:1022600021B19A68FFF7AEFF204610BDFFF77FFF50
:10227000FAE7002310B50446C0E900338360037316
:10228000FFF7E8FF204610BD884210B5044601D094
:10229000FFF7C3FF204610BD38B505460C4649B1CF
:1022A000084602F000F8214602462846FFF78AFF5A
:1022B000284638BDFFF75BFFFAE710B50023044658
:1022C0008AB0C4E90033A3602373084601A9FFF76D
:1022D00032FF204601A9FFF7DFFF20460AB010BDFC
:1022E00070B505460E4609B9002070BD6AB1846814
:1022F00014442146FFF752FF0028F5D02868AB6848
:102300003146184401F0ABFFAC600120EDE738B571
:1023100005460C46084641B101F0C5FF214602467C
:102320002846BDE83840FFF7DBBF38BD002307B5BE
:1023300001228DF8041001A98DF80530FFF7D0FFB8
:1023400003B05DF804FB10B58A6809680446FFF71E
:10235000C7FF10B92046FFF70AFF204610BD38B569
:1023600004460D4621B92046FFF701FF204638BD3F
:10237000084601F098FF294602462046FFF7B0FFC5
:102380000028F0D0F2E708B582683AB921B10878A0
:10239000B0FA80F0400900E0012008BD006809B9EA
:1023A0000078F5E701F051FFF2E700000EB4FFB549
:1023B00009AD55F8047B04462B463A46052102A890
:1023C0000195FFF70DFE06460B492046FFF712FF69
:1023D00031462046FFF7E2FE206830B12B463A46F0
:1023E000711C0195FFF7FCFDA060204604B0BDE81C
:1023F000F04003B0704700BF0D640808F8B506460A
:102400000D4600248F18BD420CD0336830469B68BF
:1024100015F8011B9847031E01DB1C44F3E7002C51
:1024200008BF1C462046F8BD70B505460C46084658
:1024300049B101F038FF2B68024621462846BDE825
:102440007040DB68184770BD03689B68184738B553
:102450000D210546FFF7F8FF0A2104462846FFF73D
:10246000F3FF204438BD0023012A98BF0A2230B56B
:102470008BB00C468DF8243009A92546B4FBF2F444
:1024800004FB1253DBB2092B94BF30333733DBB27A
:10249000AA4201F8013DF0D9FFF7C6FF0BB030BDED
:1024A0002DE9F04186B000AF05460E46381D1421D7
:1024B00014463B60FFF794FD13280ED82846391DBB
:1024C000FFF7B2FF04461EB12846FFF7C0FF0444E1
:1024D00020461837BD46BDE8F08100F1080323F01F
:1024E0000703E846ADEB030D2246411C3B686846F6
:1024F000FFF776FD69462846FFF796FF0446C54676
:10250000E1E70B68036013B15A6801325A60704703
:10251000014B024A1A607047040500203064080825
:1025200008B50020FFF714FD28B1FFF7F9FC80F093
:102530000100C0B208BD0120FCE7000030B5044630
:10254000184893B0D0E90010521840EB0303164826
:102550000025D0E90010521840EB0303CDE9002319
:10256000242200210DEB020001F036FE09A9684685
:10257000FDF756FD1622294603A8029501F02CFE10
:1025800002A909A801F0E2FD02A801F08CFE12AB3D
:10259000184400F8415C02A92046FFF72BFE2046B4
:1025A00013B030BD18050020100500202DE9F04FB4
:1025B000A5B00746884614A811463F221D4601F0E3
:1025C0008CFE002314A88DF88F3001F06CFE0446B9
:1025D0005DBB2A4903A801F042FE002514AE04F1B8
:1025E000FF3BAB4536D9B14619F8013B05F1010A6D
:1025F000252B17D173787A2B14D103A801F053FE41
:10260000044614AB28181844ABEB0502B11C01F0CA
:10261000D5FD224603A9304601F0D0FD14A801F0F3
:1026200042FE04464E465546D9E73C2195FBF1F360
:10263000002BB8BF5B42B3FBF1F201FB12330093F6
:102640004FF46163102195FBF3F30D4A03A8FFF7E4
:10265000BFFCC2E700212E2208A8079101F0BCFDB3
:10266000434614AA322107A8FDF7E2FC384607A921
:10267000FFF7C0FD384625B0BDE8F08F3464080888
:1026800036640808F0B58DB0129D0446CDE90023EC
:1026900015B9194B1D682DB1184B2846196801F062
:1026A000D4FD38B9DDE900232046FFF747FF204677
:1026B0000DB0F0BD0099124E124FD6E900325B18F2
:1026C000019941EB0202D7E900011B1841EB02021C
:1026D000CDE900320021242203A801F07DFD03A9E9
:1026E0006846FDF79DFC32683B682046134403A909
:1026F0002A46FFF75BFFDAE70C0500200C000020FC
:10270000180500201005002010B50020FFF73AFA48
:102710000446A0B9FFF74EFB012810D12046FFF771
:1027200071FB60B9FFF7FCFE10B9FFF7E9FBF9E7B1
:10273000FFF7F6FEBDE810400020FFF723BA204661
:1027400010BD1FB5FFF7E0FF10220021684601F021
:1027500043FD00216846FFF71DFA009805B05DF8BB
:1027600004FB0000024B1A68024B1A60704700BF5E
:102770000C0000200C0500200021FFF72BBB10B53A
:102780008368044613B1032201469847204610BDD2
:1027900010B50446FFF7F3FF204610BD13B56C4695
:1027A0000B46024603C884E8030093E8030082E86E
:1027B000030094E8030083E8030002B010BD0000AA
:1027C00000230348034A0449836000F043BF00BF6D
:1027D00020050020E801002091270808014B18601F
:1027E000704700BF1400002008B5174B43B100F03C
:1027F00013FC03681B699847002801DDAFF30080D4
:10280000124B43B100F01CFD03681B699847002878
:1028100001DDAFF300800E4B0BB1AFF300800D4B29
:102820000BB1AFF300800C4B0BB1AFF300800B4B3F
:1028300043B100F021FC03681B699847002801DDC3
:10284000AFF3008008BD00BF0000000000000000E2
:102850000000000000000000000000000000000078
:1028600008B5FFF7C1FFFFF785F9014B186008BDF8
:10287000D00500200248034A0349121A01F09EBC09
:10288000004002400440024070680808002307B579
:102890001A466FF077010093FFF7C6FA03B05DF8B0
:1028A00004FB000007B543880A2B08D0502B0BD13E
:1028B000094B1B684BB103B05DF804EB1847FFF7F9
:1028C000E5FF03B05DF804FB00231A466FF07701C3
:1028D0000093FFF7A9FAF4E73405002038B5124C4D
:1028E00000211248FFF794FB114D2368AB420CBF47
:1028F000012200220F4B1A7002D0FFF7BBFF2560A8
:10290000FFF730F9044601F06FFC0B4B13B1204682
:10291000AFF3008000210848FFF72AFBBDE83840EC
:1029200000210648FFF776BA00400240DD2708087C
:102930001E1C279A3005002000000000A52808086A
:1029400070470020704710B50446102100F087FE44
:10295000204610BD08B5FFF7F6FF08BD002230B5D0
:102960004FF69C74026084808D888C800C68858012
:1029700004600A6030BD10B504460068FFF708FB2C
:10298000204610BD38B5C468F4B12378022B03D1BA
:1029900004F10C00FFF7EFFF656835B12846FFF73B
:1029A000EEFE1021284600F05AFEA56835B12846F3
:1029B000FFF7E5FE1021284600F051FE2046BDE855
:1029C0003840142100F04BBE38BD10B588B0044625
:1029D0006846FFF70FFC694604A8FFF74AFC04A805
:1029E000A047044604A8FFF7BBFB6846FFF7B8FB07
:1029F000204608B010BD1FB500231024CDE9020108
:102A0000019269461A461846ADF80230ADF800400A
:102A1000FFF76EFA04B010BD73B50E46044656F8C3
:102A2000043B0D4601A831460093FFF76AFD009B69
:102A3000019A23600023626001A801930093FDF7CF
:102A4000E2FB3046FDF7DFFB2846082100F007FED9
:102A5000204602B070BD826810B50AB900F003FECE
:102A6000C368BDE81040184708B5006800F11001C0
:102A7000FFF7F1FF08BD826810B50AB900F0F3FD59
:102A8000C368BDE81040184708B5006800F11001A0
:102A9000FFF7F1FF08BD000038B5002304460360CE
:102AA00010200D46FDF709FB28B10123C0E90133D1
:102AB000024BC56003602060204638BD686408088A
:102AC00038B5002383608B6804460D462BB1022283
:102AD0009847EB68E360AB68A360204638BD000010
:102AE000F0B589B004686846FFF738FF4FF002037D
:102AF000D4E84F2F002A03D1C4E8413F0029F7D181
:102B000025D104F10C0569462846FFF727FF01236C
:102B1000BFF35B8F63700020BFF35B8F04F108038A
:102B200053E8006F43E80002002AF9D1BFF35B8F3E
:102B30006EB1FFF757F978B129463046FFF78BFFA2
:102B40003046FFF71CFE1021304600F088FD684635
:102B5000FFF711FF09B0F0BD314602A8FFF7B0FF43
:102B6000E068B4F9105008B101F082FB0690102023
:102B7000ADF81C50FDF7A1FA0546E8B100278760C3
:102B80001820FDF79AFA044688B10146876002A82A
:102B9000FFF704FE049BA268A360059B0492E26811
:102BA00006A9E36004F110000592FFF7D7FE084B79
:102BB0002C60EB60074BAB6006A8FFF7DCFE02A8B9
:102BC000FFF7DDFD002229460348FFF713F9B7E7B9
:102BD000692A0808012D0808C53208082DE9F047C0
:102BE0008AB005460C46174698469DF84890FFF770
:102BF00097F907AE824638BB4FF62E73059005A9AC
:102C00003046ADF81830FFF7A9FE1420FDF755FA4D
:102C1000044648B1022303700123C0E901AA4370AE
:102C200031460C30FFF79AFE2846214640F8044B07
:102C3000FFF732FF3046FFF79EFE05A8FFF79BFE29
:102C400028460AB0BDE8F0870C234FF0000A142094
:102C5000CDE908AA0793FDF730FA014628B1C0E98B
:102C600001AA80F800A080F801A004A80391FFF752
:102C700013FF224B08200893FDF71FFA824628B164
:102C8000039B04A940F8043BFFF73BFC424639464E
:102C9000204600965FFA89F3CDF824A0FFF748F9A3
:102CA000B8B9039B5B7803F0FF0293B94FF69C73AE
:102CB00005A903A80592ADF81830FFF711FF05A884
:102CC000FFF759FE05A80999FFF7A6FE06A8FDF72C
:102CD0009AFA039B04A906A80593FFF712FC059B2B
:102CE000069A2B6000236A6006A806930593FDF7F9
:102CF0008AFA04A8FDF787FAA2E700BFC52D0808E5
:102D0000022AF8B5054607D0032A18D0012A01D1B6
:102D10000B6803600020F8BD18200E68FDF7CDF9A0
:102D2000044650B13146FFF7CBFE3069B6F9147056
:102D300008B101F09DFA2061A7822C60EAE70468DF
:102D4000002CE7D004F11000FFF715FE2046FFF736
:102D500016FD1821204600F082FCDBE738B5002381
:102D600083608B6804460D462BB102229847EB68BE
:102D7000E360AB68A360204638BD022A70B5044604
:102D800007D0032A12D0012A01D10B68036000206A
:102D900070BD14200E68FDF790F9054620B131464C
:102DA000FFF7DCFF337C2B742560F0E70468002C10
:102DB000EDD02046FFF7E3FC1421204600F04FFC45
:102DC000E5E70000F0B5044689B00D4601A81146BC
:102DD000FFF722FEA4B124B21DB1284601F048FA43
:102DE000054601A803A90395ADF81040FFF778FE4A
:102DF00003A8FFF7C0FD02A8FDF705FA09B0F0BD72
:102E00000123019DD5E84F2F002A03D1C5E8413F9A
:102E10000029F7D1EFD12B73BFF35B8F6B70BFF33A
:102E20005B8F2B1D53E8006F43E80042002AF9D165
:102E3000BFF35B8F002EDED02046FEF7D3FF0746A0
:102E400060B1304605F10C01FFF715FE3046FFF783
:102E500096FC1021304600F002FCCCE7314603A876
:102E6000FFF77CFF2B7B10208DF81C30FDF725F938
:102E70000546D0B187601420FDF71FF9044678B1EC
:102E80000146876003A8FFF789FC059BA268A36041
:102E9000069B0592E268E3609DF81C30069223745D
:102EA000064B2C60EB60064BAB6003A8FFF767FC9A
:102EB000002229460348FEF79DFFC7E7892A080834
:102EC0007B2D0808C5320808704710B50446082154
:102ED00000F0C5FB204610BDF8B50E46002400F1F9
:102EE0000807051D17F8011D0A223046FFF7BBFA37
:102EF000AF42044401D12046F8BD002CF2D02E216F
:102F00003046FFF7A1FA0444ECE70000024A0260F1
:102F100000224260704700BF84640808024A0260D1
:102F20000A684260704700BF84640808014AC0E92B
:102F3000002170478464080810B59DF8084044EAF1
:102F4000032444EA024444EA0164446010BD0000E2
:102F500037B5044D05609DF818500095FFF7ECFF5C
:102F600003B030BD8464080841747047704708B5E9
:102F70000021007CFEF7FEFE40EAE07008BD08B5C7
:102F80000121007CFEF7F6FE40EAE07008BD08B5BE
:102F9000007CFEF7E7FE20EAE07008BD08B5007C83
:102FA000FEF7D8FE20EAE07008BD38B50446007C84
:102FB0000D46FEF7D7FE002801DC607C28B12946CB
:102FC000207CFEF7DFFE20EAE07038BD007CFEF7D3
:102FD000E1BE10B50446142100F041FB204610BDAF
:102FE00010B54FF47A73044608460021C4E9011372
:102FF000044B20742360012311466374FEF7A2FE84
:10300000204610BD9864080810B50446142200211B
:1030100001F0E2F8204610BD30B50F4D87B001A891
:10302000FFF7F2FF2978BFF35B8F11F0010410D195
:103030002846FDF748F860B1214601AA0748FFF786
:10304000CFFF2846FDF744F8054A0649034800F03B
:1030500001FB024807B030BD3805002040050020C4
:10306000E80100206D2F080810B504461422002145
:1030700001F0B2F8204610BD10B50F4C86B001A883
:10308000FFF7F2FF2378BFF35B8FDB0710D42046F6
:10309000FDF719F860B1012101AA0848FFF7A0FF68
:1030A0002046FDF715F8064A0649044800F0D2FA12
:1030B000024806B010BD00BF3C05002054050020AA
:1030C000E80100206D2F0808002240681146FEF735
:1030D000D7BEF0B5002685B0044610460F4615460B
:1030E000039601F0E0F87B6881B20096284603AAB7
:1030F000FEF718FE30B131462046FFF717FF204695
:1031000005B0F0BD204603A9FFF708FFF7E700224E
:1031100040681146FEF7D4BE002240681146FEF713
:10312000DFBE00224068FEF7D3BE0022406881F077
:103130000101FEF7BDBE002340681A461946FEF79E
:10314000AFBE002340681A461946FEF7A1BE002212
:1031500040681146FEF784BE002202214068FEF757
:1031600087BE002340681A46FEF772BE10B52824B9
:10317000074B22461846002101F02EF84FF0FF328F
:1031800042600422034B04805A60034A1A6010BD57
:103190007005002068050020C86408087047417465
:1031A000704708B5007CFEF745FD20EAE07008BDD9
:1031B00008B5007CFEF716FD20EAE07008BD08B5F2
:1031C000007CFEF71FFD40EAE07008BD08B5007CFA
:1031D000FEF710FD40EAE07008BD007CFEF71ABD66
:1031E00070B5467C04460D462EB12946207CBDE8CC
:1031F0007040FEF7EFBC007CFEF71CFD0028F4DCFD
:10320000304670BD10B50446142100F028FA20465F
:1032100010BD00004FF0000C10B5044608461146E2
:103220004FF47A72C4E901C2044A20742260012278
:1032300062741A46FEF7C6FC204610BDFC640808FE
:10324000F8B51A4C26684EB98420FCF736FF0546BF
:1032500018B18422314600F0BFFF2560144D2F685D
:103260004FB98420FCF729FF064618B1842239465D
:1032700000F0B2FF2E600F4F3978BFF35B8F11F073
:10328000010611D13846FCF71EFF68B131462268AD
:103290002B680948FFF7BEFF3846FCF719FF074ABD
:1032A0000749054800F0D6F90348F8BD9C05002001
:1032B000A005002098050020A4050020E8010020BA
:1032C0009D31080810B5836804460BB900F0CBF9AE
:1032D000C3689847A3681BB103222146204698473C
:1032E0002046BDE81040102100F0B9B97047F8B58C
:1032F000064615460C468F18BC4206D03368304649
:103300009B6814F8011B9847F6E72846F8BD002291
:10331000007CFEF7AFBC0021007CFEF7B3BC0021AF
:10332000007CFEF7B7BC0021007CFEF7BBBC00218F
:10333000007CFEF7BFBC10B50446142100F08FF9E5
:10334000204610BD10B54FF47A730446084600219C
:10335000C4E90113034B114623602074FEF7BAFC45
:10336000204610BD2C6508080023007C1A4619462B
:10337000FEF768BC7FB500221423CDE90122ADF829
:1033800004300B78007C8DF808304B680393CB68D1
:1033900004930B7A01A90593FEF7A4FC07B05DF82E
:1033A00004FB1FB5003B8DF800104FF0640118BFFF
:1033B00001230391694601928DF80830FFF7DAFF87
:1033C00005B05DF804FB0123FFF7EBBF0022007C92
:1033D000FEF740BC0022007CFEF744BC0121FFF751
:1033E000F9BF002340681A46FEF732BD00220221D1
:1033F0004068FEF73DBD002240681146FEF730BD33
:10340000002240681146FEF73BBD002340681A4683
:103410001946FEF73DBD002340681A461946FEF7DF
:103420003FBD0022406881F00101FEF741BD00224E
:103430004068FEF74DBD002240681146FEF750BDC2
:10344000002240681146FEF73BBD000070B51546EE
:10345000002686B0044604A8FFF758FD28460396C8
:1034600000F021FF0A4B009681B25B68284603AA50
:10347000FEF758FC30B131462046FFF757FD204695
:1034800006B070BD204603A9FFF748FDF7E700BF6F
:1034900068050020024B034A1A6000225A607047F8
:1034A000B80500205465080810B50446806808B1C6
:1034B000FEF780FB204610BD2E2870B5044601D9CA
:1034C000002070BDA0F10D03022B0BD9012826D8D6
:1034D00000F098F80021007CFEF7F4FB80F001007A
:1034E000C0B2EEE7134E3178BFF35B8F11F00105E8
:1034F0000FD13046FCF7E7FD58B129460E48FEF7DC
:103500008FFD3046FCF7E4FD0C4A0D490A4800F0F7
:10351000A1F8094B1878FEF7F5FB0028D0D1123C32
:10352000012C05D8FFF78CFE007CFEF77BFBD5E76E
:103530000120C6E7C0050020C4050020E8010020E6
:10354000A93408082E2838B504460D460AD8FF29A4
:1035500008D0FFF7B1FF28B129462046BDE8384022
:10356000FEF7E8BA38BD38B504460D46FEF7EAFA6C
:10357000FF2810D0062804D84D2323FA00F0C307F3
:1035800009D42046FFF798FF28B129462046BDE818
:103590003840FEF7DFBA38BD002313B5074C1A4692
:1035A000194620460093FFF7D3FC2046044A0549FC
:1035B00002B0BDE8104000F04DB800BFD4050020B7
:1035C000E8010020C92E0808002370B5202543809B
:1035D0001423084E04460380314685600561284661
:1035E00000F03FF831466060284600F03AF8E060AD
:1035F000204670BD8065080810B50446FFF7E4FF5B
:10360000204610BD30B50F4D87B02978BFF35B8FD2
:1036100011F0010413D12846FCF755FD78B101A83B
:10362000FFF7EAFF214601AA0748FFF78BFE28466D
:10363000FCF74EFD054A0649034800F00BF8024826
:1036400007B030BDDC050020E0050020E8010020C7
:10365000ED3208080B460146184600F0A1BDFCF704
:1036600030BDFCF72CBD08B5FEF7C2FC81F000416F
:1036700002E000BF83F0004330B54FEA41044FEA57
:10368000430594EA050F08BF90EA020F1FBF54EAF2
:10369000000C55EA020C7FEA645C7FEA655C00F08E
:1036A000E2804FEA5454D4EB5555B8BF6D420CDD5F
:1036B0002C4480EA020281EA030382EA000083EAE2
:1036C000010180EA020281EA0303362D88BF30BD82
:1036D00011F0004F4FEA01314FF4801C4CEA1131D8
:1036E00002D0404261EB410113F0004F4FEA033337
:1036F0004CEA133302D0524263EB430394EA050FC2
:1037000000F0A780A4F10104D5F1200E0DDB02FA30
:103710000EFC22FA05F2801841F1000103FA0EF2C4
:10372000801843FA05F359410EE0A5F120050EF18A
:10373000200E012A03FA0EFC28BF4CF0020C43FABB
:1037400005F3C01851EBE37101F0004507D54FF0C8
:10375000000EDCF1000C7EEB00006EEB0101B1F518
:10376000801F1BD3B1F5001F0CD349085FEA30005E
:103770004FEA3C0C04F101044FEA445212F5800F69
:1037800080F09A80BCF1004F08BF5FEA500C50F106
:10379000000041EB045141EA050130BD5FEA4C0CE9
:1037A000404141EB0101013C28BFB1F5801FE9D246
:1037B00091F0000F04BF01460020B1FA81F308BF69
:1037C0002033A3F10B03B3F120020CDA0C3208DD35
:1037D00002F1140CC2F10C0201FA0CF021FA02F110
:1037E0000CE002F11402D8BFC2F1200C01FA02F180
:1037F00020FA0CFCDCBF41EA0C019040E41AA2BFA5
:1038000001EB0451294330BD6FEA04041F3C1CDA6C
:103810000C340EDC04F11404C4F1200220FA04F08C
:1038200001FA02F340EA030021FA04F345EA030136
:1038300030BDC4F10C04C4F1200220FA02F001FAF8
:1038400004F340EA0300294630BD21FA04F029467A
:1038500030BD94F0000F83F4801306BF81F4801113
:103860000134013D4EE77FEA645C18BF7FEA655C86
:1038700029D094EA050F08BF90EA020F05D054EA58
:10388000000C04BF1946104630BD91EA030F1EBF5D
:103890000021002030BD5FEA545C05D14000494161
:1038A00028BF41F0004130BD14F580043CBF01F554
:1038B000801130BD01F0004545F0FE4141F470013A
:1038C0004FF0000030BD7FEA645C1ABF1946104615
:1038D0007FEA655C1CBF0B46024650EA013406BF16
:1038E00052EA033591EA030F41F4002130BD00BFD5
:1038F00090F0000F04BF0021704730B54FF4806492
:1039000004F132044FF000054FF0000150E700BF12
:1039100090F0000F04BF0021704730B54FF4806471
:1039200004F1320410F0004548BF40424FF000015E
:103930003EE700BF42004FEAE2014FEA31014FEAA1
:1039400002701FBF12F07F4393F07F4F81F06051F0
:10395000704732F07F4208BF704793F07F4F04BF3B
:1039600041F40021704730B54FF4607401F0004518
:1039700021F000411CE700BF50EA010208BF704778
:1039800030B54FF000050AE050EA010208BF704769
:1039900030B511F0004502D5404261EB41014FF4D2
:1039A000806404F132045FEA915C3FF4D8AE4FF0DA
:1039B00003025FEADC0C18BF03325FEADC0C18BFBD
:1039C000033202EBDC02C2F1200300FA03FC20FA0E
:1039D00002F001FA03FE40EA0E0021FA02F114445B
:1039E000BDE600BF70B54FF0FF0C4CF4E06C1CEA74
:1039F00011541DBF1CEA135594EA0C0F95EA0C0FE5
:103A000000F0DEF82C4481EA030621EA4C5123EA57
:103A10004C5350EA013518BF52EA033541F4801186
:103A200043F4801338D0A0FB02CE4FF00005E1FB39
:103A300002E506F00042E0FB03E54FF00006E1FB83
:103A400003569CF0000F18BF4EF0010EA4F1FF04C6
:103A5000B6F5007F64F5407404D25FEA4E0E6D4106
:103A600046EB060642EAC62141EA55514FEAC52017
:103A700040EA5E504FEACE2EB4F1FD0C88BFBCF593
:103A8000E06F1ED8BEF1004F08BF5FEA500E50F144
:103A9000000041EB045170BD06F0004646EA01010A
:103AA00040EA020081EA0301B4EB5C04C2BFD4EB3C
:103AB0000C0541EA045170BD41F480114FF0000E35
:103AC000013C00F3AB8014F1360FDEBF002001F0A3
:103AD000004170BDC4F10004203C35DA0C341BDC1D
:103AE00004F11404C4F1200500FA05F320FA04F0EF
:103AF00001FA05F240EA020001F0004221F0004123
:103B000010EBD37021FA04F642EB06015EEA430E95
:103B100008BF20EAD37070BDC4F10C04C4F12005C5
:103B200000FA04F320FA05F001FA04F240EA020078
:103B300001F0004110EBD37041F100015EEA430E49
:103B400008BF20EAD37070BDC4F1200500FA05F269
:103B50004EEA020E20FA04F301FA05F243EA0203E8
:103B600021FA04F001F0004121FA04F220EA0200F7
:103B700000EBD3705EEA430E08BF20EAD37070BD3D
:103B800094F0000F0FD101F00046400041EB01011D
:103B900011F4801F08BF013CF7D041EA060195F0FF
:103BA000000F18BF704703F00046520043EB0303B9
:103BB00013F4801F08BF013DF7D043EA06037047A6
:103BC00094EA0C0F0CEA135518BF95EA0C0F0CD0B1
:103BD00050EA410618BF52EA4306D1D181EA0301F7
:103BE00001F000414FF0000070BD50EA410606BFF1
:103BF0001046194652EA430619D094EA0C0F02D136
:103C000050EA013613D195EA0C0F05D152EA03367A
:103C10001CBF104619460AD181EA030101F0004198
:103C200041F0FE4141F470014FF0000070BD41F0E1
:103C3000FE4141F4780170BD70B54FF0FF0C4CF4BB
:103C4000E06C1CEA11541DBF1CEA135594EA0C0FDA
:103C500095EA0C0F00F0A7F8A4EB050481EA030E27
:103C600052EA03354FEA013100F088804FEA03330E
:103C70004FF0805545EA131343EA12634FEA0222DC
:103C800045EA111545EA10654FEA00260EF000419D
:103C90009D4208BF964244F1FD0404F5407402D2EF
:103CA0005B084FEA3202B61A65EB03055B084FEA80
:103CB00032024FF480104FF4002CB6EB020E75EB7D
:103CC000030E22BFB61A754640EA0C005B084FEAA5
:103CD0003202B6EB020E75EB030E22BFB61A754622
:103CE00040EA5C005B084FEA3202B6EB020E75EB6D
:103CF000030E22BFB61A754640EA9C005B084FEAE5
:103D00003202B6EB020E75EB030E22BFB61A7546F1
:103D100040EADC0055EA060E18D04FEA051545EAE0
:103D200016754FEA06164FEAC30343EA52734FEA89
:103D3000C2025FEA1C1CC0D111F4801F0BD141EA02
:103D400000014FF000004FF0004CB6E711F4801F67
:103D500004BF01430020B4F1FD0C88BFBCF5E06F47
:103D60003FF6AFAEB5EB030C04BFB6EB020C5FEA57
:103D7000500C50F1000041EB045170BD0EF0004EAC
:103D80004EEA113114EB5C04C2BFD4EB0C0541EADE
:103D9000045170BD41F480114FF0000E013C90E6DB
:103DA00045EA060E8DE60CEA135594EA0C0F08BF9F
:103DB00095EA0C0F3FF43BAF94EA0C0F0AD150EA9E
:103DC00001347FF434AF95EA0C0F7FF425AF104631
:103DD00019462CE795EA0C0F06D152EA03353FF459
:103DE000FDAE1046194622E750EA410618BF52EAD6
:103DF00043067FF4C5AE50EA41047FF40DAF52EAAA
:103E000043057FF4EBAE12E74FF0FF3C06E000BF46
:103E10004FF0010C02E000BF4FF0010C4DF804CD53
:103E20004FEA410C7FEA6C5C4FEA430C18BF7FEA13
:103E30006C5C1BD001B050EA410C0CBF52EA430C41
:103E400091EA030F02BF90EA020F0020704710F1C1
:103E5000000F91EA030F58BF994208BF90422CBF50
:103E6000D8176FEAE37040F0010070474FEA410C49
:103E70007FEA6C5C02D150EA013C07D14FEA430C67
:103E80007FEA6C5CD6D152EA033CD3D05DF8040BD8
:103E9000704700BF8446104662468C46194663460A
:103EA00000E000BF01B5FFF7B7FF002848BF10F1E1
:103EB000000F01BD4DF808EDFFF7F4FF0CBF012026
:103EC00000205DF808FB00BF4DF808EDFFF7EAFFA2
:103ED00034BF012000205DF808FB00BF4DF808ED5D
:103EE000FFF7E0FF94BF012000205DF808FB00BF52
:103EF0004DF808EDFFF7CEFF94BF012000205DF8DC
:103F000008FB00BF4DF808EDFFF7C4FF34BF0120E8
:103F100000205DF808FB00BF4FEA410C7FEA6C5CB3
:103F200002D150EA013C0AD14FEA430C7FEA6C5CB3
:103F300002D152EA033C02D14FF0000070474FF02B
:103F4000010070474A0011D212F5001211D20DD5AE
:103F50006FF47873B3EB62520ED44FEAC12343F08F
:103F6000004343EA505323FA02F070474FF0000039
:103F7000704750EA013002D14FF0FF3070474FF0E8
:103F8000000070474FEA4102B2F1E04324BFB3F5AD
:103F9000001CDCF1FE5C0DD901F0004C4FEAC002C0
:103FA0004CEA5070B2F1004F40EB830008BF20F0A4
:103FB0000100704711F0804F21D113F13872BCBF5E
:103FC00001F00040704741F480114FEA5252C2F1B3
:103FD0001802C2F1200C10FA0CF320FA02F018BFFC
:103FE00040F001004FEAC1234FEAD32303FA0CFC4F
:103FF00040EA0C0023FA02F34FEA4303CCE77FEADE
:10400000625307D150EA01331EBF4FF0FE4040F427
:104010004000704701F0004040F0FE4040F40000D6
:10402000704700BF4FF0FF3C06E000BF4FF0010CAF
:1040300002E000BF4FF0010C4DF804CD4FEA400202
:104040004FEA41037FEA226C18BF7FEA236C11D04C
:1040500001B052EA530C18BF90EA010F58BFB2EBFF
:10406000030088BFC81738BF6FEAE17018BF40F07F
:10407000010070477FEA226C02D15FEA402C05D133
:104080007FEA236CE4D15FEA412CE1D05DF8040BB8
:10409000704700BF844608466146FFE70FB5FFF74B
:1040A000C9FF002848BF10F1000F0FBD4DF808ED03
:1040B000FFF7F4FF0CBF012000205DF808FB00BFF4
:1040C0004DF808EDFFF7EAFF34BF012000205DF84E
:1040D00008FB00BF4DF808EDFFF7E0FF94BF01209B
:1040E00000205DF808FB00BF4DF808EDFFF7D2FF98
:1040F00094BF012000205DF808FB00BF4DF808EDDB
:10410000FFF7C8FF34BF012000205DF808FB00BFA7
:10411000D0B500220B4B06460F46FFF763FCFFF7B6
:1041200011FF0446FFF7E4FB0022074BFFF75AFCA0
:1041300002460B4630463946FFF79CFAFFF702FF6E
:104140002146D0BD0000F03D0000F04110B50C4606
:10415000416986B001F26C7103698269049101685A
:1041600003EB43030391416802EB42020291816831
:104170000191C1682046009104490B4404490A4456
:104180000449FDF715FF204606B010BDB6650808C6
:10419000A1650808816508080A22002100F0A8BF6F
:1041A00010B504460448134620B10A4602202146B1
:1041B000AFF3008010BD00BF000000000A44914230
:1041C00000F1FF3300D1704710B511F8014B914257
:1041D00003F8014FF9D110BD03460244934200D1C8
:1041E000704703F8011BF9E738B50D4B04461D680D
:1041F000AB6B7BB91820FDF7C3FE0A4A0A4BA863D4
:10420000C0E90023094B012283600B238381002333
:10421000C0E904230022AB6B1C615A6138BD00BFAA
:10422000140000200E33CDAB34126DE6ECDE050039
:104230000346C9B2184613F8012B12B18A42F9D1CC
:104240007047002918BF0020704710F8012B11F8A3
:10425000013B012A28BF9A42F7D0D01A7047034683
:1042600011F8012B03F8012B002AF9D17047000047
:10427000024B0146186800F003B800BF140000208C
:1042800070B5044608460D4600F00DF8461C314650
:104290002046FDF7B5FE044618B132462946FFF721
:1042A0008DFF204670BD034613F8012B002AFBD179
:1042B000181A0138704710B56AB10139841810F81E
:1042C000013B11F8012F934203D1A04201D0002BF2
:1042D000F5D1981A10BD1046FCE7034610B5013918
:1042E00032B111F8014F013A03F8014B002CF7D11C
:1042F00000211A44934200D110BD03F8011BF9E7D5
:10430000F0B50C7864B103461A7818465E1C0AB9F9
:10431000104605E0944208D10D4615F8012F02B968
:10432000F0BD13F8017F9742F7D03346ECE72DE953
:10433000F0410F46904601F049FD04460D46B8F1A4
:10434000000F11D0C7F30A53C3F16B03002B0BDD31
:1043500000241B0503F17F5505F5401522462B4629
:10436000FFF740FB04460D4620462946BDE8F08194
:104370002DE9F04F9B460023A1B01C93A14B824630
:104380001F680E4638461792FFF78DFF4FF0000862
:1043900004464FF000091B961B9B1A782B2A4CD021
:1043A0003AD80D2A33D8082A33D8002A3DD0002322
:1043B0000C931B9D2B78302B40F0AF806B7803F073
:1043C000DF03582B6CD10C9B504601931CAB009320
:1043D0008D4ACDF808B01DAB1BA900F0FBFE10F014
:1043E0000706044605D0062E29D1002301351B956A
:1043F0000C93179B002B40F096850C9BD3B1424643
:1044000009F100431046194621B0BDE8F08F202A7B
:10441000CDD101331B93BFE72D2AC8D101220C92C5
:104420005A1C1B925B78002BC3D1179B1B96002B49
:1044300040F0778542464B46E4E70022EFE71C9ABE
:104440003AB135211EA801F0B8FD50461C9901F083
:10445000F3F9013E052E07D8DFE806F00E0B181D14
:104460000E034FF00009C8462107C2D549F00049A4
:10447000BFE7DDE91E89F7E71D9ADDE91E8302F239
:10448000334223F4801343EA0259EDE74FF000086A
:10449000DFF87891E8E76FF000494FF0FF38E3E785
:1044A0001B9B5A1C1B925B78302BF9D0002BA0D0A1
:1044B000012307931B9B0A22089300239B46CDE907
:1044C00005331B980578A5F13003D9B2092926D9FF
:1044D00022463946FFF7EFFE002832D000202B4657
:1044E0005C4602460490652B01D0452B13D11CB9C4
:1044F000079B034399D000241B9E731C1B93737866
:104500002B2B78D02D2B7BD00027A3F1300109294C
:1045100040F282801B9600259EE00023C9E7BBF194
:10452000080FD5BF0699059902FB013302FB013341
:1045300000F10100D4BF069305930BF1010B1B9012
:10454000BFE71B9B1A191B921B5DBBF1000F36D0F6
:104550005C460490A3F13002092A12D90122C2E775
:104560001B9B01305A1C1B925B78302BF8D0A3F1B7
:104570003102082A00F2DC840490002004461B9AD1
:104580000892303B00F1010213D00499051911443F
:10459000049122460A21AA4213D12218082A04F1C2
:1045A000010404441BDC0A22069902FB0133069332
:1045B00000221B9B1046591C1B915B78CAE758468A
:1045C000D3E7082A04DC069F4F4306970132E2E74F
:1045D000571C102FDEBF059F4F430597F6E7102CA1
:1045E000DFBF0A22059902FB01330593E0E70023B0
:1045F000012204937CE70027B31C1B93B37884E764
:104600000127F9E73C670808E86508080000F07F23
:104610001B9B591C1B915B78302BF9D0A3F1310106
:1046200008293FF678AF4FF00A0EA3F1300C1B9B20
:1046300009931B9B591C1B915B78A3F13005092D35
:1046400035D9099D491B082944F61F6502DC6545DB
:10465000A8BF654607B16D42002C4CD107990143B4
:104660007FF4C7AE002A7FF4E0AE692B26D023DCAE
:10467000492B23D04E2B7FF4D8AE9C491BA800F0C9
:10468000E5FF00283FF4D1AE1B9B1B78282B2CD1D3
:1046900097491EAA1BA800F0EDFF052825D11F9BF6
:1046A000DDF8788043F0FF4949F4E009A1E60EFB0C
:1046B0000C3CACF1300CBCE76E2BDCE78D491BA841
:1046C00000F0C4FF00283FF4B0AE1B9B8A49013BB9
:1046D0001BA81B9300F0BAFF10B91B9B01331B935F
:1046E0004FF00008DFF8209283E6844801F0B8FC20
:1046F000804689467DE6049BBBF1000F08BFA346B8
:10470000EB1A102C069826460793A8BF1026FFF731
:10471000EFF8092C8046894613DD794B03EBC6037D
:1047200053E91223FFF75EF9804605988946FFF7A3
:10473000DFF802460B4640464946FEF79DFF80469D
:1047400089460F2C36DC079B002B3FF452AE22DD4E
:10475000162B09DC6A4C424604EBC3044B46D4E9F1
:104760000001FFF73FF9C3E7079AC4F1250393421D
:1047700020DB634DC4F10F0405EBC4014246D1E9CF
:1047800000014B46FFF72EF9079B1C1B05EBC405E8
:10479000D5E90023E5E7079B16330BDB049B584A5A
:1047A0005D1B02EBC5054046D5E900234946FFF7EE
:1047B00043FA9DE7079BA61B1E44002E71DD16F0F1
:1047C0000F030AD04E49424601EBC301D1E9000173
:1047D0004B46FFF707F98046894636F00F0650D062
:1047E000B6F59A7F27DD4FF0000BCDF810B0CDF86D
:1047F00020B0CDF818B022234FF00008DFF8089160
:10480000CAF80030089B002B3FF4F3AD50461C99CA
:1048100001F012F85046069901F00EF8504604993E
:1048200001F00AF85046089901F006F8594650463A
:1048300001F002F8DDE50023404649461F463611E7
:10484000012E21DC0BB1804689462E4BA9F154790B
:1048500003EBC7074246D7E900014B46FFF7C2F812
:10486000294B0A460B40294980468B42BBD8A1F50B
:1048700080118B4286BF4FF0FF38DFF8949002F131
:104880005479002305937EE0F20707D51D4B03EB17
:10489000C703D3E90023FFF7A5F8012301377610FA
:1048A000CEE7EED0764216F00F020AD0144B404607
:1048B00003EBC2034946D3E90023FFF7BDF9804665
:1048C00089463611DDD01F2E24DD4FF0000BCDF8C8
:1048D00010B0CDF820B0CDF818B022234FF000086A
:1048E0004FF00009CAF800308CE700BFE365080804
:1048F000FC650808DA650808DD6508080D64080825
:1049000078670808506708080000F07F0000A07C66
:10491000FFFFEF7F16F0100318BF6A234046059390
:1049200049460023B24FF20704D5D7E90023FFF729
:1049300059F80123761007F10807F4D10BB180462E
:104940008946059BBBB1C9F30A53C3F16B03002B26
:10495000494610DD1F2B40F32B81342BD8BF4FF07D
:10496000FF324FF00008CFBF4FF05C79203B02FAD6
:1049700003F303EA01090022002340464946FFF7FA
:1049800099FA0028A1D1069B5A4600935046234627
:10499000089900F0A6FF089000283FF424AF049B7C
:1049A0004FF0000B5D1B079BCDF810B0002BB4BF80
:1049B0002B4600230E93079B23EAE3731693089B71
:1049C0005046596800F004FF069000283FF413AFEA
:1049D000089B0C301A6903F10C0102329200FFF7B8
:1049E000EDFB1EAB01931DAB009342464B46504678
:1049F000CDE90A8901F064FA1C9000283FF4FBAE6F
:104A00000121504600F0F9FF0346049000283FF4CE
:104A1000F2AE1D9D1E9A002DABBF0E9B169BEE188D
:104A20005C1B059BA8BF169CA5EB03051544714BA9
:104A300005F1FF35B8BF0E9E9D42C2F1360280F2ED
:104A4000C9805B1B1F2B4FF00107A2EB030200F391
:104A5000B680002507FA03F30F93B718059BBE42F3
:104A600014441C443346A8BF3B46A342A8BF234678
:104A7000002BC2BFFF1AE41AF61A0E9B002B17DD9B
:104A80001A465046049901F05DF8049000283FF45E
:104A9000B2AE01461C9A504600F0B8FF09900028BB
:104AA0003FF4A9AE50461C9900F0C6FE099B1C932A
:104AB000002F00F39380079B002B08DD5046169AC9
:104AC000069901F03FF8069000283FF494AE002CC0
:104AD00008DD22465046069901F082F8069000282B
:104AE0003FF489AE002E08DD32465046049901F0AD
:104AF00077F8049000283FF47EAE5046069A1C9941
:104B000001F0E8F8834600283FF475AE0024C3683E
:104B10000499C4600D9301F0C2F8A04270DA0D9BB5
:104B200053EA080340F09680C9F31303002B40F0CA
:104B3000918029F000431B0D1B05B3F1D66F40F2A5
:104B40008980DBF8143023B9DBF81030012B40F3F7
:104B5000818059460122504601F042F8049983466B
:104B600001F09DF8002875DD05994B46224A002981
:104B700000F0918002EA0901B1F1D66F00F38B8059
:104B8000B1F15C7F7FF7A9AE00231C4A4046CDE916
:104B900014324946DDE91423FEF724FF0B46034394
:104BA00008BF22238046894608BFCAF800302DE698
:104BB0004FF0FF3202FA03F303EA0808DBE6C5F11F
:104BC0007F4505F57F0505F57B45E23507FA05F5D7
:104BD0000F9742E7012300250F933EE73A465046E0
:104BE0001C9900F0FDFF1C9000287FF464AF02E6E2
:104BF0001066080802FCFFFF0000F07F000050393B
:104C0000CDF8249066D10D9AC9F313035AB39C4A88
:104C100093422CD1059B404603B34B46994A4FF033
:104C2000FF311A40B2F1D46F1BD8120DC2F16B03E1
:104C300001FA03F398421AD1934B099A9A4202D18E
:104C400001303FF4D8AD4FF000088E4B099A1A405E
:104C500002F58019059B002B96D1D7E54FF0FF3365
:104C6000E8E70B46E6E753EA08033FF47DAFE5B11A
:104C7000099B1D42EED00D9B40464946059AC3B1A3
:104C8000FFF755FB02460B46DDE90A01FEF7F4FC8F
:104C900080468946DEE71340A3F580136FEA135977
:104CA0004FF0FF386FEA0959D4E70F9B13EA080F5A
:104CB000E0E7FFF73CFB02460B46DDE90A01FEF7A1
:104CC000D9FC0022002380468946FFF7F3F800282C
:104CD000C0D002E65846049901F041F900224FF095
:104CE000804306460F46FFF7F9F8002875D00D9B64
:104CF000002B47D00026654F644D099B23F00043ED
:104D00001B0D1B050F930F9A614B9A4240F0C88010
:104D1000DDE90A23CDE91423099B4046A3F1547928
:104D2000494601F053F802460B4630463946FEF735
:104D300059FE42464B46FEF79FFC0B465149554AE9
:104D40001940914280465ED90B9B02F15472934206
:104D500003D10A9B01333FF44EAD4FF0FF38DFF82B
:104D6000289150461C9900F067FD5046069900F0C6
:104D700063FD5046049900F05FFD5946504600F02F
:104D80005BFD1CE6B8F1000F19D1099BC3F31303B7
:104D9000E3B90022304639463C4BFFF795F8C8B9D5
:104DA0000022304639463C4BFEF71CFE04460D46B9
:104DB00005F1004318941993DDE918679DE7B8F1F0
:104DC000010F03D1099B002B3FF487AD002600247F
:104DD000324F91E70D9C304DEAE72F4B00223046D1
:104DE0003946FEF7FFFD0D9B04460D4633B901F130
:104DF000004310901193DDE910677EE702460B46F1
:104E0000CDE91023F7E703F15479059B002BA8D1D6
:104E100029F000430F9A1B0D1B059A42A1D1204691
:104E2000294601F04BF9FEF7AFFD02460B4620463E
:104E30002946FEF71FFC0D9AC9F3130343EA080342
:104E4000134304460D4666D009A3D3E90023FFF7B8
:104E50003BF800287FF4DAAC07A3D3E9002320460F
:104E60002946FFF74FF800283FF47BAFCEE400BFA0
:104E70009535A094FFFFDF3F35E5AF350000E03FFB
:104E8000FFFF0F000000F07FFFFFEF7F0000F03F0B
:104E90000000E07FFFFF9F7C0000E03F0000F0BFCC
:104EA000059B13B30F9BB3F1D46F1ED826A3D3E990
:104EB000002320462946FFF711F890B129462046E5
:104EC000FFF740F8012838BF0120FEF711FD0D9BC8
:104ED00004460D46D3B901F1004312901393DDE966
:104EE00012670F9A07F1D6639F1ADDE90A0100F0F5
:104EF0006DFF02460B4630463946FEF773FDDDE98D
:104F00000A23FEF7B9FB804689467EE702460B4638
:104F1000CDE91223E3E70EA3D3E90023FEF7D4FF84
:104F2000A1E700230C931B9B179A1360FFF765BA48
:104F3000652B3FF45CAB452B3FF459AB0122FFF7E7
:104F40008DBB00BFAFF300800000C0FFFFFFDF415B
:104F50009535A094FFFFCF3F2DE9F041224F0A463F
:104F6000224B01463868FFF703FA02460B46064615
:104F70000C46FEF7D1FF68B1002C1D4806DA01F09F
:104F800075F800F100452846BDE8F081BDE8F04124
:104F900001F06CB821463046FEF7F4FF20F00048DF
:104FA00005461449404601F073F80028EBD140460D
:104FB0001049FFF78FF80028E5D124F000444FF0A6
:104FC000FF32304621460C4BFEF7A6FF40B94FF0AA
:104FD000FF3230462146084BFEF780FF0028D2D032
:104FE00022223B681A60CEE7140000207C000020DB
:104FF0000D640808FFFF7F7FFFFFEF7F2DE9F0477B
:105000008C468646394E60461CF8014BA55D15F06E
:105010000805F8D12D2C33D14FF001089CF8004041
:1050200000F1020C002B5CD0102B0CD1302C0AD1DB
:105030009CF8000000F0DF0058284DD110239CF8A8
:1050400001400CF1020C002608F10047013FB7FBBC
:10505000F3F9304603FB197AA4F13005092D18D86D
:105060002C46A34224DD751C07D081451DD301D1F8
:10507000A2451ADB012600FB03401CF8014BEBE7BD
:105080002B2C08BF9CF80040A84608BF00F1020C7A
:10509000C8E7A4F14105192D01D8373CE1E7A4F197
:1050A0006105192D04D8573CDBE74FF0FF36E4E7E4
:1050B000731C06D122233846CEF8003042B9BDE831
:1050C000F087B8F1000F00D04042002AF7D00EB1AF
:1050D0000CF1FF311160F2E73024002BB3D108232B
:1050E000B1E7302CA4D00A23ADE700BF3966080829
:1050F00013460A46014602480068FFF77FBF00BF1B
:105100001400002003692DE9F043B3EB611F00F1A7
:1051100014044FEA611246DD11F01F0104EB83060F
:1051200004EB82050CD1294600F11007B14235D3BA
:105130009B1A9B00EA1E964238BF0023234415E0C9
:10514000A14654F82270C1F12008CF4005F1040EA9
:105150007645F44616D89B1A9A00043A0135AE42B9
:1051600038BF0022A318A75007B10433A342A3EB12
:10517000040208BF00234FEAA202026108BF436194
:10518000BDE8F083DCF800C00CFA08FC4CEA070725
:1051900049F8047B5EF8047BCF40D9E751F804CB93
:1051A00047F804CFC2E72346E0E7A0F13003092B1C
:1051B00002D82038C0B27047A0F16103052B01D896
:1051C0004738F7E7A0F14103052B01D82738F1E76D
:1051D000002070472DE9F04F8BB00693BA4B029038
:1051E0001B688B46184690460393FFF75CF882468F
:1051F000039BDBF80020034413F8013C0793931C46
:10520000C2F1FF2202F57F02FE32D1181F4613F8C9
:10521000010B01913028F8D0FFF7C7FF04460028A2
:105220003AD1524638460399FFF745F8054600281B
:1052300066D117F80A0007EB0A06FFF7B6FF002849
:1052400060D0334618781F46302803F10103F9D0A7
:10525000FFF7ABFF0123B0FA80F4354664090193F0
:105260003A46164630780132FFF79FFF0028F8D102
:10527000524630460399FFF71EF880B94DB906EB48
:105280000A052A46164630780132FFF78EFF0028BD
:10529000F8D1AD1BAD0004E000242546E0E7002D69
:1052A000F7D1337803F0DF03502B39D173782B2BF0
:1052B0002AD02D2B2CD04FF00009711C0878FFF755
:1052C00074FF431EDBB2182B2AD8A0F1100211F88C
:1052D000010FFFF76AFF431EDBB2182B1BD9B9F190
:1052E000000F00D052421544CBF80010D4B1019BFE
:1052F000002B14BF0027062738460BB0BDE8F08FFF
:105300003E4625460124CCE74FF00009B11CD5E705
:105310004FF00109FAE70A2303FB0202103AD6E72D
:105320003146E1E72146F31B013B072B50DC029895
:1053300000F04EFA4FF0000B044600F11409CAF1D8
:105340000103CDF81090CDF804B00893B74242D3D2
:10535000049F019B47F8043BA7EB0907BF10276197
:10536000184600F0FCFA7F01D8F800603F1AB742F7
:1053700065DDBF1B3946204600F042FE8246A8B1DB
:105380004FF0010A7B1E591159F8211003F01F023A
:105390000AFA02F20A4209D0534505DD2046B91E39
:1053A00000F02EFE002847D14FF0020A3946204671
:1053B000FFF7A8FE3D44D8F80830AB424DDA21464D
:1053C000029800F039FA0023149AA327136093E798
:1053D00001315B10A9E7731E079A059316F8013C8B
:1053E000934219D0BBF1200F07D1049B019A43F8D7
:1053F000042B049300239B46019316F8010CFFF73E
:10540000D4FE019B00F00F0000FA0BF00343019360
:105410000BF1040B059B0DE0059B089A1344BB425E
:10542000E0D31846524603990993FEF744FF099BBF
:105430000028D7D11E4689E74FF0030AB6E709DAFC
:10544000F71B21463A46029800F0CAFB0446ED1BC2
:1054500000F114094FF0000AADE7D8F80400A842A3
:105460006EDD451BAE4231DCD8F80C30022B22D069
:10547000032B24D0012B15D1AE4213D1012E0BD119
:10548000D8F80430069A6227136001232361C9F813
:105490000030149B1C602FE72046711E00F0B0FD09
:1054A0000028EDD12146029800F0C6F90023149A95
:1054B0005027136020E7159B002BF3D1E0E7159BE5
:1054C000002BDDD1EEE700BF3C6708086F1EBAF184
:1054D000000F32D127B13946204600F091FD8246B7
:1054E00001217B1159F8233007F01F0701FA07F754
:1054F0001F424FF002072946204618BF4AF0020A11
:10550000761BFFF7FFFDD8F80450BAF1000F48D022
:10551000D8F80C30022B15D0032B17D0012B09D152
:105520001AF0020F06D0D9F800004AEA000A1AF071
:10553000010F0ED147F0100733E04FF0010ACFE71B
:105540000127E2E7159BC3F101031593159B002B7F
:10555000F0D04FF0000CD4F8109004F114034FEA8F
:10556000890B03EB8901184653F8042BB2F1FF3F76
:105570001CD001320260022F04F1140338D1D8F894
:105580000020013AB2420AD10122711153F82130B0
:1055900006F01F0602FA06F61E4218BF174647F02D
:1055A0002007149B1C60069B1D60A5E6994243F8EA
:1055B00004CCD8D8A368994512DB61680298013100
:1055C00000F006F98246226904F10C0102329200D1
:1055D0000C30FEF7F3FD2146029800F02DF95446F9
:1055E00023695A1C2261012204EB83035A61C2E73A
:1055F00022694A450BDD01212046FFF783FDD8F8DB
:1056000008300135AB42FFF6DAAE0127C7E716F0E6
:105610001F06FAD09B445BF8040C00F0A0F9C6F119
:105620002006B042E7DBF0E7C2F10802920070B555
:10563000C2F120064368046803FA06F52C43D34000
:10564000046040F8043F8842F4D370BD30B503686D
:10565000013311F8014B14B90360012030BD13F878
:10566000012BA2F14105192D98BF2032A242F0D0A2
:105670000020F3E72DE9F04F00250B6882465E110C
:1056800002EB860613F01F0318BF0436371F90463F
:10569000B9463C46AB4687B00168019346F8045CC6
:1056A00002954A784B1C039342B31046059104922D
:1056B000FFF77BFD00284FD1049A0599202A18D8BE
:1056C000029B9B4513DD4C4506D2072D04DC2A4680
:1056D00049462046FFF7A8FF444550D90023A4F1CE
:1056E000040944F8043C1D464C46CDF808B0039923
:1056F000D7E7292A56D10231CAF80010BBF1000FB2
:1057000050D04C4506D2072D04DC2A464946204697
:10571000FFF78AFF444534D92346A8F1040253F821
:10572000041B9F4242F8041FF9D23B1B23F00303E2
:1057300004330134033EB44288BF042300224344AF
:1057400043F8042B9F42FBD23B681BB9474527D146
:1057500001233B60052026E00135082D0BF1010BEC
:1057600006DD4445C3D90023012544F8043C043C2C
:10577000226800F00F0040EA02122260B7E7082515
:10578000B5E7019B002BDFD04FF0FF32C3F12003C0
:1057900022FA03F356F8042C1A4046F8042CD3E7F7
:1057A000043FD1E7042007B0BDE8F08F82B001B913
:1057B00001A942B14BB113780B601278101E18BFCB
:1057C000012002B070471046FBE76FF00100F8E7D8
:1057D00070B5466A04460D463EB91020FCF7D0FB72
:1057E000C0E9016660620660C660666AF36883B1FC
:1057F000636ADB6853F82500B8B9012101FA05F6A0
:10580000721D2046920000F01CFC60B1C0E90156F8
:105810000EE021220421204600F013FC636AF060B0
:10582000DB68002BE4D1002070BD026843F825201E
:105830000023C0E90333F7E770B5466A05460C4616
:105840003EB91020FCF79CFBC0E901666862066067
:10585000C6603CB16B6A6268DB6853F82210216055
:1058600043F8224070BD2DE9F04198460C460023D4
:105870000E69074601F1140005680133A9B202FB65
:1058800001812D0C4FEA114C02FB05C589B201EBD9
:1058900005419E424FEA154840F8041BECDCB8F184
:1058A000000F1BD0A368B34212DC61683846013197
:1058B000FFF78EFF0546226904F10C0102329200C7
:1058C0000C30FEF77BFC21463846FFF7B5FF2C462F
:1058D00004EB86030136C3F8148026612046BDE838
:1058E000F0812DE9F843154609221F4608330C467E
:1058F00093FBF2F30646012200219A4220DB304658
:10590000FFF766FF089B092D43614FF00103036118
:1059100019DD04F10909C8462C4418F8013B014679
:105920000A223046303BFFF79EFFA045F5D1A5F196
:1059300008044C442D1B6319BB4207DBBDE8F88308
:1059400052000131D9E709250A34F3E714F8013B85
:1059500001460A223046303BFFF785FFEBE7020C99
:1059600012040346CAB90304102013F07F4F04BF8A
:105970001B02083013F0704F04BF1B01043013F0FA
:10598000404F04BF9B000230002B05DB13F0804F1B
:1059900000F1010008BF202070470020E5E7036800
:1059A000024613F007000BD0D90722D4980749BF4D
:1059B0005B089B08012013605CBF022013607047E6
:1059C00099B209B910201B0C13F0FF0F04BF1B0A7A
:1059D0000830190704BF1B090430990704BF9B084E
:1059E0000230D90703D45B0800F1010003D0136033
:1059F0007047002070472020704710B50C460121E9
:105A0000FFF7E6FE01224461026110BD2DE9F04F6F
:105A100015460A692B690C469A42BEBF0B462C46B6
:105A20001D462769D5F81090A368616807EB090641
:105A3000B342B8BF013185B0FFF7CAFE00F11401CF
:105A40000B46002201EB860843451DD304F11403E5
:105A500005F1140203EB870702EB890302933B1B5A
:105A6000153B23F00303043304F11505AF4238BF9F
:105A700004230193029B0392934208D8002E5ADC20
:105A8000066105B0BDE8F08F43F8042BDCE7B2F8FF
:105A900000A0BAF1000F24D089464FF0000C04F1A9
:105AA000140E5EF8045BD9F800B0ABB21FFA8BFBA2
:105AB0000AFB03B34FEA154BD9F8005063444FEA91
:105AC000154C0AFB0BC505EB13459BB243EA054396
:105AD00077454FEA154C49F8043BE2D8019B41F861
