:020000040808EA
:1000000000000808C46A0808000006000A0005018C
:080010000402350800000000A5
:040018002061080853
:1000200008B5024B1B689B6D019308BD2C000608A8
:1000300008B5024B1B685B6E019308BD2C000608D7
:1000400009480A4908B5884205D0094A824202D0C7
:10005000121A04F0C9F80748074A0021121A04F0DE
:10006000D1F8064808BD00BF00000020B4680808A9
:10007000E8010020E8010020F8090020F80900202C
:1000800070B502F037FC0025054E064CA41BA408F1
:10009000A54200D170BD56F8043B98470135F7E7FB
:1000A0008C680808AC68080800F04EB908B500F084
:1000B000CBF9BDE8084002F0DFBB01F06DBF01F0F5
:1000C0006BBF01F071BF0078B0FA80F04009704753
:1000D000012303707047000010B50446024B036013
:1000E00000F062FE204610BD2C63080810B50446DF
:1000F000FFF7F2FF20464FF41B7103F0C6FA2046CB
:1001000010BD0EB403B503AB53F8042B01210193CA
:1001100002F0D2F902B05DF804EB03B070470000C2
:1001200007B502F093FF0B49FFF7EBFF0022002316
:1001300009490A48C1E900231821009101F0BBFADE
:1001400001230020064A1370064A136003B05DF8CD
:1001500004FB00BF34610808E80400200802002006
:10016000F00400200800002008B502F06FFF0649E7
:10017000FFF7C7FF0122054B1A7001F0F7FC044B93
:100180001860002008BD00BF58610808A0040020C6
:100190009C04002038B50446084D0121288803F04E
:1001A000F8F9204602F0F4FA2888002103F0F1F96A
:1001B000BDE83840C82002F0EBBA00BF04000020C0
:1001C00038B505460024AC4205DA4FF41670FFF747
:1001D000E1FF0134F7E738BD38B505460024AC42ED
:1001E00004DAC820FFF7D6FF0134F8E738BD08B5B8
:1001F0000320FFF7F1FF0320FFF7E2FFBDE808400F
:100200000320FFF7E9BF38B5046805467CB1636891
:10021000013B63605BB9236820469B689847A368ED
:10022000013BA3601BB923682046DB68984728463A
:1002300038BD000070B59AB0006803F0C3FF384DB8
:10024000384E286002F002FF3749044616A801F034
:10025000DDFF2A68314612A802F0B4F812A916A8E8
:1002600002F07DF801682046FFF74BFF12A801F06D
:1002700083FF16A801F080FF2C4902A801F0C6FFF9
:1002800002A90AA802F001F8294906A801F0BEFF58
:1002900006A90AA802F063F8044626490EA801F050
:1002A000B5FF0EA9204602F05AF804462A683146E6
:1002B00012A802F087F812A9204602F050F804466E
:1002C0001D4916A801F0A2FF16A9204602F047F822
:1002D0001A4C0146204601F0C9FF16A801F04CFF58
:1002E00012A801F049FF0EA801F046FF06A801F090
:1002F00043FF0AA801F040FF02A801F03DFF104BA8
:1003000010491B7816A88DF8003022684FF4167338
:1003100002F070FC17A8FFF776FF00201AB070BD3E
:1003200000000020826108086A61080885610808E9
:100330008761080894610808966108082002002077
:10034000EC010020996108082DE97F4302F07EFE50
:100350002D49FFF7D6FE0024082301262B4DADF8CA
:10036000083002AA234647F230512046ADF80A4031
:10037000039601F001FE2846254A264902F047FB74
:100380002846254A254902F042FB2846244A2549A9
:1003900002F03DFB244923462246CDE90044234890
:1003A00001F0DAFD4FF000084FF000091823424633
:1003B00000931F484B4601F07EF903234246009309
:1003C0001C484B4601F077F91B4B1C4D18883146F1
:1003D00003F0CEF84FF48061284601F0D6F92846A4
:1003E00001F0CCF9164B22461B7816498DF80030E7
:1003F00002A84FF4167302F0FDFB03A8FFF703FFFA
:1004000004B0BDE8708300BFAC610808E3290808A8
:10041000C361080869010808D661080835020808A0
:10042000E361080821010808E90B0808EB610808E6
:1004300008020020A804002004000020EE01002093
:10044000EC010020F96108082DE9F041F8B001F055
:100450008DFB274B984211D9FFF7C9FE254B264A41
:100460001B7826498DF800306BA84FF4967302F084
:10047000C1FB6CA8FFF7C7FE01F00CFE204B1B78F8
:10048000D3B101F073FB1F4B1B68C01A43F69723CF
:10049000984211D9FFF7ABFE164B1B4A1B78174940
:1004A0008DF800306BA84FF4967302F0A3FB6CA894
:1004B000FFF7A9FE01F0EEFD02F04FF913490446E3
:1004C0006BA801F0A9FA124B1B782BBB0420FFF795
:1004D00083FE42F2107002F05BF90E4B72A86B9330
:1004E00001F04AFE6EA801F047FE78B0BDE8F08149
:1004F000FF071948EC010020016208081162080892
:10050000A00400209C04002017620808F1040020C9
:10051000C00400205C6408080120FFF75DFE002194
:10052000BB4801F034F9BB4A831E106047F698526D
:1005300093421DD803F002FAB1A3D3E9002303F0DC
:10054000AFF8B1A3D3E9002303F062FAB24BB34D85
:10055000D3E9002303F0A4F802460B46B048C5E9EE
:10056000002301F068F8D5E90023AE4801F063F8F4
:1005700002F06CFDAC4D06462A68AC4953A801F068
:1005800021FF53A957A801F080FEA94957A801F0FF
:10059000F2FE07469F4BA7491A685BA801F012FFBD
:1005A00038465BA901F0DBFEA14901F0E4FE0746F5
:1005B0009A4BA149D3E900235FA801F003FF384615
:1005C0005FA901F0CCFE9A4901F0D5FE0746944898
:1005D00001F061F802460B4663A8974901F0F2FE6C
:1005E000384663A901F0BBFE914901F0C4FE0746FD
:1005F0008C4801F050F802460B4667A88E4901F07E
:10060000E1FE67A9384601F0AAFE01683046FFF70F
:1006100078FD67A801F0B0FD63A801F0ADFD5FA80B
:1006200001F0AAFD5BA801F0A7FD57A801F0A4FD09
:1006300053A801F0A1FDD5F80080B8F1180F40F0E3
:100640008B804FF0FF337D4F2B603B78002B00F009
:100650008380734801F01FF86F4EC6E900017048AF
:1006600000F0C8FF002200236D48CDF8008001F0A3
:1006700022F86C4800F0BEFF032300226948009373
:10068000002301F018F86E4953A801F0BFFD53A9EB
:100690005BA801F0FAFD6B4957A801F0B7FD57A917
:1006A0005BA801F05CFE054667495FA801F0AEFD5E
:1006B00028465FA901F053FED6E9002305465E49AE
:1006C00063A801F07FFE284663A901F048FE0546B5
:1006D0005E4967A801F09AFD284667A901F03FFE30
:1006E0005B4E0146304601F0C1FD67A801F044FDB4
:1006F00063A801F041FD5FA801F03EFD57A801F09D
:100700003BFD5BA801F038FD53A801F035FD514BCE
:1007100051491B7867A88DF8003032684FF4167382
:1007200002F068FA68A8FFF76EFD02F08FFC4B49F3
:10073000054667A801F06AFD314667A801F00FFE83
:1007400001682846FFF7DDFC67A801F015FD0520CC
:10075000FFF736FD00233B70394903A801F056FD31
:1007600003A90BA801F091FD3D4907A801F04EFD3A
:1007700007A90BA801F0F3FD054633490FA801F0C6
:1007800045FD28460FA901F0EAFD0546354B2246F6
:100790001B683549009313A8E31701F07FFF13A9E5
:1007A000284601F0DCFD0446304917A801F02EFD73
:1007B000204617A901F0D3FD04462D491BA801F0DE
:1007C00025FD20461BA901F0CAFD04461E491FA8AD
:1007D00001F01CFD20461FA901F0C1FDDDE97623D3
:1007E0000446244923A801F0EDFD204623A901F089
:1007F000B6FD04461D4927A83EE000BFAFF30080C8
:1008000000000000001EB940D969C3CD51E7B33FD5
:10081000EE010020D0040020E8040020C8040020DD
:1008200008020020A8040020080000202E6208080A
:10083000316208088261080834620808F004002068
:10084000856108083A6208089461080896610808FA
:10085000D4040020EC0100204C620808556208080E
:100860007762080810000020080500207D62080853
:10087000806208088662080801F0C8FC204627A9A3
:1008800001F06DFD044688492BA801F0BFFC20460D
:100890002BA901F064FD044684492FA801F0B6FCA1
:1008A00020462FA901F05BFD0446814B81491A685F
:1008B00033A801F087FD204633A901F050FD04461E
:1008C0007D4937A801F0A2FC204637A901F047FD79
:1008D00004467A493BA801F099FC20463BA901F067
:1008E0003EFD044671493FA801F090FC20463FA917
:1008F00001F035FD0446724B7249D3E9002343A849
:1009000001F060FD204643A901F029FD04466A4933
:1009100047A801F07BFC204647A901F020FD0446D2
:1009200069494BA801F072FC20464BA901F017FD64
:1009300004465E494FA801F069FC20464FA901F02A
:100940000EFD0446614800F0A6FE02460B4653A881
:100950005C4901F037FD204653A901F000FD044633
:10096000554957A801F052FC204657A901F0F7FC61
:10097000044657495BA801F049FC20465BA901F0F9
:10098000EEFC044649495FA801F040FC20465FA9FF
:1009900001F0E5FC04464F4800F07DFE02460B46A0
:1009A00063A8484901F00EFD204663A901F0D7FC79
:1009B0000446494967A801F029FC204667A901F0CF
:1009C000CEFC464C0146204601F050FC67A801F0E1
:1009D000D3FB63A801F0D0FB5FA801F0CDFB5BA8BF
:1009E00001F0CAFB57A801F0C7FB53A801F0C4FBF4
:1009F0004FA801F0C1FB4BA801F0BEFB47A801F0D6
:100A0000BBFB43A801F0B8FB3FA801F0B5FB3BA836
:100A100001F0B2FB37A801F0AFFB33A801F0ACFB4B
:100A20002FA801F0A9FB2BA801F0A6FB27A801F035
:100A3000A3FB23A801F0A0FB1FA801F09DFB1BA8AE
:100A400001F09AFB17A801F097FB13A801F094FBA3
:100A50000FA801F091FB07A801F08EFB0BA801F095
:100A60008BFB03A801F088FB01F05EFA1C4B1D49CB
:100A70001B7867A88DF8003022684FF4167302F0D7
:100A8000B9F868A8FFF7BFFB174A1368002BC4BF6B
:100A900001331360154B1B7813B141F288301AE50E
:100AA000134B186817E500BF97620808946108089F
:100AB000D0040020826108087D620808A16208084D
:100AC000C804002034620808A9620808080200204F
:100AD000B1620808A804002096610808F40100200B
:100AE000EC010020BB62080808000020F004002090
:100AF0000000002001222D4B73B52D4D1A704821A6
:100B00002C482D4C00F033FE2C4E1821284600F0C6
:100B100085FD28462A4D2246314602F0B1FD0321CB
:100B2000284600F07BFD3146264E2246284602F03C
:100B3000A7FD254D0A225021304601F0CAFB304660
:100B4000224E2246294602F09BFD0A2250213046C1
:100B500001F0BFFB30461E4E2246294602F090FDB2
:100B60000A225021304601F0B4FB22462946304685
:100B700002F086FD1423174D009305F12C0105F5B5
:100B800096734FF48072284600F060F9124B2246AB
:100B90002B602846114902F073FD114A00231146CB
:100BA000104802B0BDE8704001F0B0B8EC01002080
:100BB00008020020EE010020E8010020E5150808E9
:100BC000A8040020F401002079210808D4040020A2
:100BD00020020020300200202C630808D9000808F9
:100BE0003D640808C562080830B50C469BB0504803
:100BF00000F028F9204603F06CFB214602464C48E1
:100C000000F003F94A4800F09FFC4A4D002800F02C
:100C10008980474912A800F029F9474A12A916A865
:100C200000F098FA002116A800F093F902F098FE5F
:100C3000C5E9000116A800F097F812A800F094F892
:100C400002F004FA3D49044616A801F0DFFAD5E99E
:100C5000002312A83A4901F0B5FB12A916A801F029
:100C60007EFB01682046FFF74CFA12A801F084FAD7
:100C700016A801F081FA334902A801F0C7FA02A9C7
:100C80000AA801F002FB304906A801F0BFFA06A944
:100C90000AA801F064FB04462C490EA801F0B6FA3C
:100CA0000EA9204601F05BFBD5E900230446244948
:100CB00012A801F087FB12A9204601F050FB044660
:100CC000234916A801F0A2FA16A9204601F047FB15
:100CD000204C0146204601F0C9FA16A801F04CFA52
:100CE00012A801F049FA0EA801F046FA06A801F090
:100CF00043FA0AA801F040FA02A801F03DFA164BA7
:100D000016491B7816A88DF8003022684FF4167328
:100D100001F070FF17A8FFF776FA0122104B1A7046
:100D20001BB030BD02F092F90E49FFF7EAF987E7F0
:100D300030020020E804002015630808E762080874
:100D400034620808856108083A6208089461080856
:100D500096610808D4040020EC0100200D63080807
:100D6000C0040020CB620808704710B504460C216F
:100D700002F08BFC204610BD10B5054B0446036005
:100D8000037C1BB9406808B101F00EF9204610BD84
:100D90004463080810B50446FFF7EEFF204614210F
:100DA00002F073FC204610BD10B5074B04460360EB
:100DB000037C1BB9406908B101F0F6F82046FFF743
:100DC000DBFF204610BD00BF5463080810B5044681
:100DD000FFF7EAFF20462C2102F057FC204610BD09
:100DE00038B5037C04460D460BB1002038BD406881
:100DF00038B101F0E1F80028F7D0C4E9010501207D
:100E0000F4E7084601F0C8F8F5E770B5C3680E4688
:100E1000D11843680446154673B183688B420BD3DF
:100E20006068E3682A463146184403F0DDF9012082
:100E3000E2682A44E26070BD2046FFF7D1FF002837
:100E4000EED1F8E70023C36070470000C0E901124B
:100E50000022C260012210B502744361024A029B63
:100E60000260C36110BD00BF54630808D1E90523C7
:100E70009A42044B38BF8260C0E9003124BF00238E
:100E8000836070476463080870B513689D681368D1
:100E900003F1100414608669B4420AD29B698C681D
:100EA000A34201DAAB42F2DDA342CCBF0020012015
:100EB00000E0002070BD2DE9F341054617460026ED
:100EC0009846089C01F1100301930198AB69834295
:100ED0001BD982688B689A4217DAA6420BD1386018
:100EE00001AA2846FFF7D0FF28B1019BC8F80030BF
:100EF00002B0BDE8F08101AA2846FFF7C5FF2846E9
:100F000001AA0136FFF7C0FFDFE70020F0E7F0B5E8
:100F10000024013BD1E90176F61BA64208DDA3427D
:100F200006DD45683D442D5D013402F8015BF1E7C3
:100F300000231370F0BD1FB5144610236A46FFF757
:100F4000E6FF0021684604F01FF82060012004B08D
:100F500010BD07B50191816819B1406801AAFFF77A
:100F6000EAFF019803B05DF804FB10B50446006881
:100F70000B4628B101F0E6F9E3680133E36010BDE8
:100F800060680028F8D0D4E90221013A8A4288BF7B
:100F90004354F1E77F2870B50C46C1B204D820460F
:100FA000BDE87040FFF7E1BF01F03F01B0F5006F11
:100FB00040F3871641F0800507D266F03F01C9B2C1
:100FC0002046FFF7D2FF2946E9E7030B43F0E00193
:100FD0002046FFF7CAFF06F03F0141F08001EFE72E
:100FE0002DE9FF47002480460F461546A1464E686E
:100FF000DFF8C4A0B868B0425ADDD8F80430995D73
:101000009A19002C4BD0752905D86D2907D862296B
:101010001ED066291ED02846FFF7A7FF3DE0A1F1AC
:101020006E04072CF7D80FF2080C5CF824F000BF10
:101030005910080817100808171008081710080892
:101040005D100808171008086110080865100808E6
:101050000821E0E70C21DEE70A21DCE70D21DAE7D1
:101060000921D8E7311D884217DD02A9084604335B
:10107000334412F8014F9A4201F8014BF9D151461D
:1010800001AA8DF80C9000F0A7FF012805D1294690
:10109000BDF80400FFF77EFF0536002404E05C295C
:1010A00004D02846FFF761FF0136A3E70124FBE7E0
:1010B000012004B0BDE8F087346308087FB50C4612
:1010C000154606460B49104601F0F2F8D4E9013105
:1010D000C91A2846013101F06DF800236A462146FD
:1010E0003046CDE9013300950393FFF779FF04B053
:1010F00070BD00BF3D6408082DE9F04389B0054686
:10110000884604A8124916469946002701F07EF841
:101110004B4641462846009703AAFFF7CCFE0446FB
:1011200070B12846039904AAFFF7C8FF044608B91E
:101130000137EDE7314604A801F031F90028F7D076
:1011400004A801F019F8204609B0BDE8F08300BFFB
:101150003D64080873B50D4689680446094E61B1BF
:10116000686801ABFFF7C8FF38B16B68C4E900637A
:10117000019B2046A36002B070BD6B68C4E90063A8
:101180000023F6E7646308082DE9F04F4FF0010CE7
:101190004FF0FF3504464068D4F800E0964580F0F3
:1011A000BE8111F80E80B8F1000F00F0B881B8F1DF
:1011B0003A0F00F09B8033D8B8F1220F00F0AD80D9
:1011C00010D8A8F109085FFA88F8B8F1170F0DD800
:1011D000C04F0CFA08F818EA070F07D02768013744
:1011E0002760D9E7B8F12C0F00F03681D4F80080E1
:1011F00042450ED911F808705FB13A2F00F26E81A6
:101200001F2F00F252810A2F00F26181082F40F255
:101210005781002B40F0678108F1FF372760ABE072
:10122000B8F17B0F3AD00AD8B8F15B0F36D0B8F1DD
:101230005D0FDBD1002BD1D04FF0020B06E0B8F1EF
:101240007D0FD3D1002BC9D04FF0010B676807F198
:10125000FF3803EB0719B8F1000F4FDB59F80C7C8E
:10126000A9F1100A013745D059F8087C7E1C41D1FC
:101270009AF80090D94545D1A7600EF10107CAF848
:10128000087003EB081EDEF8047001373DD0DEF86D
:101290000870013739D1C4F808809FE70130002B6E
:1012A0009CD06768099EBE424ED9002607F1010E08
:1012B000C4F804E003EB071ECEE90155CEF80C603C
:1012C0004FEA071AA7687E1C1FBF03EB0719D9F85E
:1012D0000C700137C9F80C70B8F17B0F0CBF0127F7
:1012E000022703F80A702768CEF804706768013F88
:1012F000A76073E7D14608F1FF38ACE7B8F1FF3FCC
:101300007FF46CAF6FF0010020E008F1FF38B8F116
:10131000FF3FAEF1100EB6D160E70EF10109C4F83F
:101320000090D4F80080424540F2918011F8087096
:10133000002F00F08C80222F2ED1EBB16768099E20
:10134000BE4205D8C4F800E04FF0FF30BDE8F08F92
:1013500000264FF0030A07F1010E4FEA071803EBCE
:101360000717C4F804E0C7E90155FE60D4F800E0AF
:1013700003F808A0C7E9019EA76801307E1C3FF46E
:101380002DAF002B3FF42AAF03EB071EDEF80C70E5
:101390000137CEF80C7021E75C2F11D108F101075D
:1013A000BA420DD92760CF5D752F2BD86D2F0BD882
:1013B000662F27D85B2F1DD8222F01D02F2F21D1A8
:1013C000276801372760ACE76E3F072F1AD801A6C0
:1013D00056F827F0C1130808051408080514080872
:1013E00005140808C113080805140808C1130808E3
:1013F0000B14080840F241465C3FFFB20CFA07F7B5
:101400003742DDD1C4F800E07CE74FF0040A08F170
:1014100002072760D4F80080424503D82768013FBF
:101420002760CDE711F80870002FF7D0A7F1300B37
:10143000BBF1090F04D927F02007413F052FE1D860
:1014400008F10107BAF1010A2760E3D1E6E7C4F821
:1014500000E06FF0020079E7002B3FF4BFAEA76811
:101460007E1C3FF4BBAE3F01DF5D013F012F7FF6E5
:10147000B5AE676807F1FF3803EB071EB8F1000F40
:10148000FFF6ACAE1EF8107C013F012F08D85EF8C5
:101490000C7C013704D05EF8087C01373FF4FBAECA
:1014A00008F1FF38AEF1100EE8E7A7F120090A4E67
:1014B0005FFA89F90CFA09F919EA060F7FF4A9AE67
:1014C000203F5E2F9ED808F1010727608EE60D2F82
:1014D000F6D19EE6130080000110000407F0DF093A
:1014E000B9F15D0FF4E76768099EBE427FF62AAF47
:1014F00000264FF0040A07F101084FEA071903EB31
:101500000717C4F80480C7E90155FE60D4F80080CD
:1015100003F809A0C7E901E82768013F7EE6002B30
:101520003FF414AF6268511E03EB02130029FFF66B
:101530000DAF53F80C2C013203D053F8082C0132B4
:1015400087D00139103BF1E7F7B54369044600F154
:101550002006C3B10022C0E908224FF0FF328262A8
:10156000C2690092C26841683046FFF70DFE431C15
:101570002ED1257C15B1002003B0F0BD606900F0CC
:1015800013FD6561E56100254FF0FF372B463046BE
:10159000C4E90855E2686168A7620095FFF7F4FDA9
:1015A0000028E8DBE0611BD0000100F0F5FCE269F7
:1015B0000346606100923046C4E90855E2686168FC
:1015C000A762FFF7E1FD636903EB0013A36105E088
:1015D0000028D0DB636903EB0010A0610120CBE79A
:1015E0006369F3E710B50446006908B100F0DCFC5C
:1015F000204610BD30B5002400250023C0E9024577
:10160000437083700278D9B28A4206D902690133E5
:1016100002EBC102C2E90045F4E730BD10B5044653
:101620000170C80000F0B8FC206100B920702046AD
:10163000FFF7E0FF10BDF8B50569044616461F46E2
:1016400045B3837800F10801D1E9000105EBC3053A
:10165000D5E9002302F024F8C4E90201C5E90067D6
:10166000A5782369D4E9020103EBC503D3E900237C
:1016700002F018F801352278EDB2954208BF002338
:10168000A57008BFA3706378C4E902019A4284BFC1
:1016900001336370F8BD10B50446407840B102F0E4
:1016A0004DF902460B46D4E9020102F0DBFA10BD07
:1016B00000200021FBE72DE9F041054616461F46B4
:1016C0009DF818800024FFF795FF444506D0324668
:1016D0003B462846FFF7AFFF0134F6E7BDE8F0814F
:1016E00010B5044601F0A4FF03682146BDE8104090
:1016F0009B68184708B501F09BFF03685B69984732
:10170000C0B208BD70B506460D46144601F090FF04
:10171000314601F069FE2846FFF7E2FF200AFFF795
:10172000DFFFE0B2FFF7DCFF01F082FFBDE87040B1
:1017300001F062BE10B5044601F07AFF214601F0C7
:1017400053FE0020FFF7CCFF01F072FF01F054FEC2
:1017500001F06EFF2146022201F043FEFFF7CAFFAF
:101760000446FFF7C7FF40EA042080B210BD002204
:1017700001700221828041708270704708B501F0CB
:1017800057FFBDE8084001F0FDBD81807047032987
:1017900010B5044622D80229828819D003291AD00C
:1017A000012914BF42F4834242F4A34242F00302EF
:1017B000012142F400422078FFF7A4FF607800F096
:1017C000E7FF2078FFF7B6FFA378184180B210BD7D
:1017D00042F4C342EAE742F4E342E7E70020F6E7D7
:1017E00030B4054618461B681C681346A4460A46D2
:1017F000294630BC60470EB410B500230168202094
:101800008DB00FAA52F8044BCDE90403CDE9004294
:1018100003921E2004AA00F0C1FA0DB0BDE81040EA
:1018200003B070472DE9F0430C468DB04D4904A834
:1018300016461D4600F0EAFCB4F5101F64D01FDC0C
:10184000B4F5041F5CD013DCB4F5881F56D0B4F592
:10185000901F55D05CB3224608A8434900F0B2FD62
:1018600008A904A800F01CFD08A800F085FC22E0EF
:10187000B4F5081F46D0B4F50C1FECD13B4917E076
:10188000B4F5800F46D00ADCB4F5181F3ED0B4F58D
:10189000401F3DD0B4F5141FDDD1354908E0B4F543
:1018A000A00F37D0B4F5C00FD5D1324900E032498E
:1018B00004A800F0FDFC2B46049A30493048FFF79D
:1018C0009AFF284908A800F0A1FC00242D4FDFF85A
:1018D000D480DFF8D490AC4235DA315D0A291BD1CF
:1018E000494608A800F01FFD08992548FFF783FF27
:1018F0001C4908A800F0DCFC0134ECE72249D7E7DA
:101900002249D5E72249D3E72249D1E72249CFE747
:101910002249CDE72249CBE70D2904D1414608A849
:1019200000F001FDE8E7A1F120035E2B07D90B468B
:101930003A460A2101A800F057FB01A9EFE708A8E1
:1019400000F000FDD8E70A9B1BB108990C48FFF78F
:1019500052FF08A800F010FC04A800F00DFC0DB028
:10196000BDE8F0833D640808F3630808996308083C
:10197000B8630808E66308086C630808FD63080894
:1019800004050020246408087963080881630808B6
:101990008C630808A8630808C2630808D0630808B5
:1019A000DC630808216408081E64080810B500F10B
:1019B000300300F12C0204460949C06900F00CFB19
:1019C00002280AD1E36A622BCEBF00235B00713B81
:1019D000E3626FF00103636010BD6FF00203FAE78A
:1019E0002B64080838B56FF00203436000230446F7
:1019F000074D0372074B294640F80C3B00F006FCEC
:101A0000294604F11C0000F001FC204638BD00BF4F
:101A10003D6408085C64080810B50446FFF7E2FF5F
:101A20000C4B0D492360002304F10C00C4E90B3377
:101A300000F03EFC42F210722146084B084800F0CC
:101A400075F96060023002D12046FFF7AFFF2046F3
:101A500010BD00BF506408083164080835640808E8
:101A6000E11708082DE9F0410C461E46591CA368F1
:101A70002046194417469DF81880002500F09AFB6F
:101A8000B5420CDA795DB8F1000F03D00D2904D00E
:101A90000A2902D0204600F055FC0135F0E7BDE8E8
:101AA000F0810000F0B590F808C006460D461746D4
:101AB0001C468BB0BCF1000F01D0FFF7B3FEB5F5AB
:101AC000800F2AD1601C00F067FA054628B3224631
:101AD000394602F018FC002320212B55114AF368E7
:101AE00002A800F081FA284602A902F01FFC044671
:101AF00080B102A802F0EDFB04440D21204602F063
:101B0000ADFB01232246009306F11C01031B06488E
:101B1000FFF7A8FF284600F047FA4FF0FF300BB060
:101B2000F0BD00BF3E640808F104002008B5024B78
:101B30001B689B68019308BDB001040808B5024BFF
:101B40001B68DB68019308BDB001040808B5024BAF
:101B50001B681B69019308BDB001040808B5024B5E
:101B60001B685B68019308BD9C01040808B5024B23
:101B70001B685B69019308BD9C01040808B5024B12
:101B80001B689B6D019308BD9C01040808B5024BBE
:101B90001B685B6E019308BD9C01040808B5024BED
:101BA0001B685B6C019308BDD001040808B5024BAB
:101BB0001B689B6C019308BDD001040808B5024B5B
:101BC0001B689B69019308BDC401040808B5024B5A
:101BD0001B685B6A019308BDC401040808B5024B89
:101BE0001B689B6A019308BDC401040808B5024B39
:101BF0001B68DB6A019308BDC401040808B5024BE9
:101C00001B681B6B019308BDC401040808B5024B97
:101C10001B685B6B019308BDC401040808B5024B47
:101C20001B689B6B019308BDC401040808B5024BF7
:101C30001B681B6C019308BDC401040808B5024B66
:101C40001B68DB68019308BDAC01040808B5024BB2
:101C50001B689B69019308BDAC01040808B5024BE1
:101C60001B68DB69019308BDAC01040808B5024B91
:101C70001B681B6A019308BDAC01040808B5024B40
:101C80001B685B6A019308BDAC01040808B5024BF0
:101C90001B689B6A019308BDAC01040808B5024BA0
:101CA0001B68DB6A019308BDAC01040808B5024B50
:101CB0001B681B6B019308BDAC01040808B5024BFF
:101CC0001B685B6B019308BDAC01040808B5024BAF
:101CD0001B681B6C019308BDAC01040808B5024BDE
:101CE0001B681B6D019308BDAC01040808B5024BCD
:101CF0001B68DB69019308BDB401040808B5024BF9
:101D00001B681B6A019308BDB401040808B5024BA7
:101D10001B689B6A019308BD2000060808B5024BAA
:101D20001B68DB6B019308BD2000060808B5024B59
:101D30001B689B6C019308BD2000060808B5024B88
:101D40001B681B68019308BD1C00060808B5024B00
:101D50001B681B69019308BD1C00060808B5024BEF
:101D60001B685B69019308BD1C00060808B5024B9F
:101D70001B689B69019308BD1C00060808B5024B4F
:101D80001B68DB69019308BD1C00060808B5024BFF
:101D90001B681B6A019308BD1C00060808B5024BAE
:101DA0001B685B6D019308BDA001020808B5024BDA
:101DB0001B681B68019308BDA401040808B5024B09
:101DC0001B685B68019308BDA401040808B5024BB9
:101DD0001B685B69019308BDA401040808B5024BA8
:101DE0001B68DB6C019308BDA401040808B5024B15
:101DF0001B685B6D019308BDA401040808B5024B84
:101E00001B689B6D019308BDA401040808B5034B32
:101E10001B68D3F89030019308BD0000A4010408AA
:101E200008B5034B1B68D3F89C30019308BD000034
:101E3000A401040808B5034B1B68D3F8B83001931C
:101E400008BD0000A401040808B5024B1B685B68CC
:101E5000019308BDC801040808B5024B1B689B68C4
:101E6000019308BDC801040808B5024B1B68DB6874
:101E7000019308BDC801040808B5024B1B681B6923
:101E8000019308BDC801040808B5024B1B685B69D3
:101E9000019308BDC801040808B5024B1B689B6983
:101EA000019308BDC801040808B5024B1B68DB6933
:101EB000019308BDC801040808B5024B1B681B6AE2
:101EC000019308BDC801040808B5024B1B681B6BD1
:101ED000019308BDC801040808B5024B1B685B6B81
:101EE000019308BDC801040808B5024B1B681B6CB0
:101EF000019308BDC801040808B5024B1B685B6C60
:101F0000019308BDC801040808B5024B1B685B6853
:101F1000019308BDCC01040808B5024B1B689B68FF
:101F2000019308BDCC01040808B5024B1B68DB68AF
:101F3000019308BDCC01040808B5024B1B685B691E
:101F4000019308BDCC01040808B5024B1B681B6A4D
:101F5000019308BDCC01040808B5024B1B685B6AFD
:101F6000019308BDCC01040808B5024B1B681B6B2C
:101F7000019308BDCC01040808B5024B1B689B6B9C
:101F8000019308BDCC01040808B5024B1B68DB6B4C
:101F9000019308BDCC01040808B5024B1B681B68FF
:101FA000019308BDA001040808B5024B1B685B68DB
:101FB000019308BDA001040808B5024B1B689B688B
:101FC000019308BDA001040808B5024B1B681B69FA
:101FD000019308BDA001040808B5024B1B685B69AA
:101FE000019308BDA001040808B5024B1B68DB691A
:101FF000019308BDA001040808B5024B1B685B6A89
:10200000019308BDA001040808B5024B1B68DB6AF8
:10201000019308BDA001040808B5024B1B681B6BA7
:10202000019308BDA001040808B5024B1B685B6C56
:10203000019308BDA001040870B5002604460D46B2
:1020400040F8086FFFF7AAFD28462570FFF74EFEFF
:102050002046666070BD10B50446006818B1FFF7F1
:10206000A3FF0023236010BD10B50446FFF7F3FF64
:10207000204610BD07B50B46002102460091012005
:102080008C21FFF7D7FE03B05DF804FB014600206A
:10209000FFF7F0BF0020FFF7F9BF00000222002089
:1020A00010B5084B084C1A60084B2060A080A07146
:1020B000A360FFF783FE2046BDE81040044A0549AF
:1020C00001F0DEBA00050020F40400200000FFFF4C
:1020D000E80100206920080810B5044602F0F9F86C
:1020E000431E20462344834206D90278197800F81B
:1020F000011B03F80129F6E710BD70B50C46911ECF
:10210000222922D8254668B1B0FBF2F602FB160060
:10211000C1B2092894BF30315731C9B2304605F8F1
:10212000011BF0E72A4630212344934202D902F8EA
:10213000011BFAE75A1BAB4238BF0022002320469E
:10214000AB54FFF7C9FF204670BD0020FCE738B54F
:10215000031E0C4615460DDA2D22B3F1004F0CBFBD
:102160001846584201230A702A461944FFF7C5FF52
:10217000204638BD0123F9E710B504460068FFF793
:1021800013FF204610BD10B50446006808B1FFF7E4
:102190000BFF0023C4E90133236010BD38B50446AA
:1021A0000D4600680131FFF707FF10B1C4E90005D3
:1021B000012038BD10B50368044623B143688B4243
:1021C00001D3012010BD2046FFF7E8FF0028F9D019
:1021D000A368002BF5D122681370F2E770B50E46A4
:1021E000114604461546FFF7E5FF20B92046FFF7E4
:1021F000CAFF204670BD2A4631462068A56001F01E
:10220000F3FF00212268A368D154F2E738B5002318
:1022100004460D46C0E900338360037339B10846B4
:1022200002F057F8294602462046FFF7D7FF20461E
:1022300038BD38B5054600680C4668B16A688B68D9
:102240009A4207D3096802F020F8A368AB60002324
:10225000A36038BDFFF7A8FE23682B6063686B603E
:10226000A368AB600023C4E90033F1E7884210B5EE
:102270000B46044604D0096821B19A68FFF7AEFF07
:10228000204610BDFFF77FFFFAE7002310B5044694
:10229000C0E9003383600373FFF7E8FF204610BDF9
:1022A000884210B5044601D0FFF7C3FF204610BD99
:1022B00038B505460C4649B1084602F00AF82146F1
:1022C00002462846FFF78AFF284638BDFFF75BFF26
:1022D000FAE710B5002304468AB0C4E90033A360CE
:1022E0002373084601A9FFF732FF204601A9FFF733
:1022F000DFFF20460AB010BD70B505460E4609B98D
:10230000002070BD6AB1846814442146FFF752FF73
:102310000028F5D02868AB683146184401F0B5FFB5
:10232000AC600120EDE738B505460C46084641B1E2
:1023300001F0CFFF214602462846BDE83840FFF7AE
:10234000DBBF38BD002307B501228DF8041001A9B9
:102350008DF80530FFF7D0FF03B05DF804FB10B532
:102360008A6809680446FFF7C7FF10B92046FFF7DF
:102370000AFF204610BD38B504460D4621B9204657
:10238000FFF701FF204638BD084601F0A2FF2946AD
:1023900002462046FFF7B0FF0028F0D0F2E708B56C
:1023A00082683AB921B10878B0FA80F0400900E0BB
:1023B000012008BD006809B90078F5E701F05BFF6E
:1023C000F2E700000EB4FFB509AD55F8047B0446F2
:1023D0002B463A46052102A80195FFF70DFE064659
:1023E0000B492046FFF712FF31462046FFF7E2FE79
:1023F000206830B12B463A46711C0195FFF7FCFD71
:10240000A060204604B0BDE8F04003B0704700BFB4
:102410003D640808F8B506460D4600248F18BD42F5
:102420000CD0336830469B6815F8011B9847031E93
:1024300001DB1C44F3E7002C08BF1C462046F8BD16
:1024400070B505460C46084649B101F042FF2B68BD
:10245000024621462846BDE87040DB68184770BD3B
:1024600003689B68184738B50D210546FFF7F8FF4C
:102470000A2104462846FFF7F3FF204438BD002315
:10248000012A98BF0A2230B58BB00C468DF8243053
:1024900009A92546B4FBF2F404FB1253DBB2092B65
:1024A00094BF30333733DBB2AA4201F8013DF0D993
:1024B000FFF7C6FF0BB030BD2DE9F04186B000AF8D
:1024C00005460E46381D142114463B60FFF794FD67
:1024D00013280ED82846391DFFF7B2FF04461EB157
:1024E0002846FFF7C0FF044420461837BD46BDE824
:1024F000F08100F1080323F00703E846ADEB030D7C
:102500002246411C3B686846FFF776FD694628462F
:10251000FFF796FF0446C546E1E70B68036013B179
:102520005A6801325A607047014B024A1A6070477C
:10253000040500206064080808B50020FFF714FDBA
:1025400028B1FFF7F9FC80F00100C0B208BD0120FE
:10255000FCE7000030B50446184893B0D0E90010FD
:10256000521840EB030316480025D0E9001052181A
:1025700040EB0303CDE90023242200210DEB0200F0
:1025800001F040FE09A96846FDF74AFD16222946DA
:1025900003A8029501F036FE02A909A801F0ECFD9E
:1025A00002A801F096FE12AB184400F8415C02A9A3
:1025B0002046FFF72BFE204613B030BD1805002043
:1025C000100500202DE9F04FA5B00746884614A855
:1025D00011463F221D4601F096FE002314A88DF8F7
:1025E0008F3001F076FE04465DBB2A4903A801F056
:1025F0004CFE002514AE04F1FF3BAB4536D9B14685
:1026000019F8013B05F1010A252B17D173787A2BB4
:1026100014D103A801F05DFE044614AB2818184439
:10262000ABEB0502B11C01F0DFFD224603A93046E9
:1026300001F0DAFD14A801F04CFE04464E46554662
:10264000D9E73C2195FBF1F3002BB8BF5B42B3FB0C
:10265000F1F201FB123300934FF46163102195FBFB
:10266000F3F30D4A03A8FFF7BFFCC2E700212E22B7
:1026700008A8079101F0C6FD434614AA322107A815
:10268000FDF7D6FC384607A9FFF7C0FD384625B050
:10269000BDE8F08F6464080866640808F0B58DB082
:1026A000129D0446CDE9002315B9194B1D682DB1C3
:1026B000184B2846196801F0DEFD38B9DDE9002322
:1026C0002046FFF747FF20460DB0F0BD0099124E9F
:1026D000124FD6E900325B18019941EB0202D7E9AB
:1026E00000011B1841EB0202CDE900320021242237
:1026F00003A801F087FD03A96846FDF791FC326845
:102700003B682046134403A92A46FFF75BFFDAE73C
:102710000C0500200C0000201805002010050020EA
:1027200010B50020FFF72AFA0446A0B9FFF73EFBD8
:10273000012810D12046FFF761FB60B9FFF7FCFECE
:1027400010B9FFF7E9FBF9E7FFF7F6FEBDE8104027
:102750000020FFF713BA204610BD1FB5FFF7E0FFBA
:1027600010220021684601F04DFD00216846FFF768
:102770000DFA009805B05DF804FB0000024B1A68E2
:10278000024B1A60704700BF0C0000200C050020AF
:102790000021FFF71BBB10B58368044613B1032269
:1027A00001469847204610BD10B50446FFF7F3FFD9
:1027B000204610BD13B56C460B46024603C884E89C
:1027C000030093E8030082E8030094E8030083E831
:1027D000030002B010BD000000230348034A04496F
:1027E000836000F04DBF00BF20050020E8010020FD
:1027F000A9270808014B1860704700BF140000208B
:1028000008B5174B43B100F021FC03681B699847DA
:10281000002801DDAFF30080124B43B100F038FD1A
:1028200003681B699847002801DDAFF300800E4B59
:102830000BB1AFF300800D4B0BB1AFF300800C4B2D
:102840000BB1AFF300800B4B43B100F03DFC0368CC
:102850001B699847002801DDAFF3008008BD00BF69
:102860000000000000000000000000000000000068
:10287000000000000000000008B5FFF7C1FFFFF7EF
:1028800075F9014B186008BDD40900200248034ABD
:102890000349121A01F0A8BC004002400440024063
:1028A000B0680808002307B51A466FF07701009357
:1028B000FFF7B6FA03B05DF804FB000007B54388E4
:1028C0000A2B08D0502B0BD1094B1B684BB103B01E
:1028D0005DF804EB1847FFF7E5FF03B05DF804FB74
:1028E00000231A466FF077010093FFF799FAF4E797
:1028F0003405002038B5124C00211248FFF794FB34
:10290000114D2368AB420CBF012200220F4B1A70FD
:1029100002D0FFF7BBFF2560FFF720F9044601F066
:1029200079FC0B4B13B12046AFF30080002108481F
:10293000FFF72AFBBDE8384000210648FFF766BADA
:1029400000400240F52708081E1C279A3005002089
:1029500000000000BD28080870470020704710B52F
:102960000446102100F091FE204610BD08B5FFF787
:10297000F6FF08BD002230B54FF69C7402608480DB
:102980008D888C800C68858004600A6030BD10B52D
:1029900004460068FFF708FB204610BD38B5C46840
:1029A000F4B12378022B03D104F10C00FFF7EFFF01
:1029B000656835B12846FFF7EEFE1021284600F085
:1029C00064FEA56835B12846FFF7E5FE10212846CC
:1029D00000F05BFE2046BDE83840142100F055BEF3
:1029E00038BD10B588B004466846FFF70FFC69464D
:1029F00004A8FFF74AFC04A8A047044604A8FFF770
:102A0000BBFB6846FFF7B8FB204608B010BD1FB5FA
:102A100000231024CDE90201019269461A461846A6
:102A2000ADF80230ADF80040FFF76EFA04B010BD0B
:102A300073B50E46044656F8043B0D4601A83146D0
:102A40000093FFF76AFD009B019A236000236260F8
:102A500001A801930093FDF7D6FB3046FDF7D3FBA9
:102A60002846082100F011FE204602B070BD8268A1
:102A700010B50AB900F00DFEC368BDE81040184754
:102A800008B5006800F11001FFF7F1FF08BD82688A
:102A900010B50AB900F0FDFDC368BDE81040184745
:102AA00008B5006800F11001FFF7F1FF08BD000054
:102AB00038B500230446036010200D46FDF7FDFAEB
:102AC00028B10123C0E90133024BC56003602060D7
:102AD000204638BD9864080838B5002383608B68A9
:102AE00004460D462BB102229847EB68E360AB68C1
:102AF000A360204638BD0000F0B589B00468684680
:102B0000FFF738FF4FF00203D4E84F2F002A03D11C
:102B1000C4E8413F0029F7D125D104F10C056946ED
:102B20002846FFF727FF0123BFF35B8F6370002068
:102B3000BFF35B8F04F1080353E8006F43E8000222
:102B4000002AF9D1BFF35B8F6EB1FFF747F978B177
:102B500029463046FFF78BFF3046FFF71CFE102159
:102B6000304600F092FD6846FFF711FF09B0F0BD56
:102B7000314602A8FFF7B0FFE068B4F9105008B181
:102B800001F08CFB06901020ADF81C50FDF795FA73
:102B90000546E8B1002787601820FDF78EFA044645
:102BA00088B10146876002A8FFF704FE049BA26873
:102BB000A360059B0492E26806A9E36004F110009B
:102BC0000592FFF7D7FE084B2C60EB60074BAB601C
:102BD00006A8FFF7DCFE02A8FFF7DDFD002229466C
:102BE0000348FFF703F9B7E7812A0808192D0808F9
:102BF000E13208082DE9F0478AB005460C46174631
:102C000098469DF84890FFF797F907AE824638BB83
:102C10004FF62E73059005A93046ADF81830FFF732
:102C2000A9FE1420FDF749FA044648B102230370B7
:102C30000123C0E901AA437031460C30FFF79AFE28
:102C40002846214640F8044BFFF732FF3046FFF795
:102C50009EFE05A8FFF79BFE28460AB0BDE8F08758
:102C60000C234FF0000A1420CDE908AA0793FDF7C2
:102C700024FA014628B1C0E901AA80F800A080F832
:102C800001A004A80391FFF713FF224B082008932B
:102C9000FDF713FA824628B1039B04A940F8043BD0
:102CA000FFF73BFC42463946204600965FFA89F31F
:102CB000CDF824A0FFF748F9B8B9039B5B7803F07F
:102CC000FF0293B94FF69C7305A903A80592ADF8CE
:102CD0001830FFF711FF05A8FFF759FE05A809995D
:102CE000FFF7A6FE06A8FDF78EFA039B04A906A827
:102CF0000593FFF712FC059B069A2B6000236A6080
:102D000006A806930593FDF77EFA04A8FDF77BFA63
:102D1000A2E700BFDD2D0808022AF8B5054607D056
:102D2000032A18D0012A01D10B6803600020F8BDE6
:102D300018200E68FDF7C1F9044650B13146FFF77F
:102D4000CBFE3069B6F9147008B101F0A7FA206122
:102D5000A7822C60EAE70468002CE7D004F1100099
:102D6000FFF715FE2046FFF716FD1821204600F05C
:102D70008CFCDBE738B5002383608B6804460D4686
:102D80002BB102229847EB68E360AB68A360204652
:102D900038BD022A70B5044607D0032A12D0012A92
:102DA00001D10B680360002070BD14200E68FDF790
:102DB00084F9054620B13146FFF7DCFF337C2B74E4
:102DC0002560F0E70468002CEDD02046FFF7E3FC17
:102DD0001421204600F059FCE5E70000F0B5044658
:102DE00089B00D4601A81146FFF722FEA4B124B216
:102DF0001DB1284601F052FA054601A803A9039522
:102E0000ADF81040FFF778FE03A8FFF7C0FD02A859
:102E1000FDF7F9F909B0F0BD0123019DD5E84F2F69
:102E2000002A03D1C5E8413F0029F7D1EFD12B7328
:102E3000BFF35B8F6B70BFF35B8F2B1D53E8006F8D
:102E400043E80042002AF9D1BFF35B8F002EDED0A9
:102E50002046FEF7C3FF074660B1304605F10C017E
:102E6000FFF715FE3046FFF796FC1021304600F0C4
:102E70000CFCCCE7314603A8FFF77CFF2B7B10202E
:102E80008DF81C30FDF719F90546D0B18760142084
:102E9000FDF713F9044678B10146876003A8FFF7F0
:102EA00089FC059BA268A360069B0592E268E3602B
:102EB0009DF81C3006922374064B2C60EB60064B89
:102EC000AB6003A8FFF767FC002229460348FEF722
:102ED0008DFFC7E7A12A0808932D0808E1320808EA
:102EE000704710B50446082100F0CFFB204610BD06
:102EF000F8B50E46002400F10807051D17F8011D5E
:102F00000A223046FFF7BBFAAF42044401D1204603
:102F1000F8BD002CF2D02E213046FFF7A1FA044470
:102F2000ECE70000024A026000224260704700BFE6
:102F3000B4640808024A02600A684260704700BF31
:102F4000B4640808014AC0E900217047B464080865
:102F500010B59DF8084044EA032444EA024444EAD8
:102F60000164446010BD000037B5044D05609DF854
:102F700018500095FFF7ECFF03B030BDB4640808AB
:102F800041747047704708B50021007CFEF7EEFEE3
:102F900040EAE07008BD08B50121007CFEF7E6FEBE
:102FA00040EAE07008BD08B5007CFEF7D7FE20EAD5
:102FB000E07008BD08B5007CFEF7C8FE20EAE070AE
:102FC00008BD38B50446007C0D46FEF7C7FE002854
:102FD00001DC607C28B12946207CFEF7CFFE20EA88
:102FE000E07038BD007CFEF7D1BE10B50446142158
:102FF00000F04BFB204610BD10B54FF47A73044629
:1030000008460021C4E90113044B20742360012306
:1030100011466374FEF792FE204610BDC86408088E
:1030200010B504461422002101F0ECF8054B2046AF
:103030006360054BE36040F2011323818123238207
:1030400010BD00BF680500206906002030B50F4D97
:1030500087B001A8FFF7E4FF2978BFF35B8F11F079
:10306000010410D12846FDF72EF860B1214601AACF
:103070000748FFF7C1FF2846FDF72AF8054A064929
:10308000034800F0FDFA024807B030BD38050020C3
:1030900040050020E8010020852F080810B50446EF
:1030A0001422002101F0AEF8054B20466360054B69
:1030B000E36040F2011323818123238210BD00BF0E
:1030C000EA060020EB07002010B50F4C86B001A8DF
:1030D000FFF7E4FF2378BFF35B8FDB0710D42046B4
:1030E000FCF7F1FF60B1012101AA0848FFF784FF56
:1030F0002046FCF7EDFF064A0649044800F0C0FAF6
:10310000024806B010BD00BF3C0500205405002059
:10311000E8010020852F0808002240681146FEF7CC
:10312000ABBEF0B5002685B0044610460F461546E6
:10313000039601F0CEF87B6881B20096284603AA78
:10314000FEF7ECFD30B131462046FFF7FBFE20468E
:1031500005B0F0BD204603A9FFF7ECFEF7E700221B
:1031600040681146FEF7A8BE002240681146FEF7EF
:10317000B3BE00224068FEF7A7BE0022406881F07F
:103180000101FEF791BE002340681A461946FEF77A
:1031900083BE002340681A461946FEF775BE00221A
:1031A00040681146FEF758BE002202214068FEF733
:1031B0005BBE002340681A46FEF746BE10B52824C1
:1031C000074B22461846002101F01CF84FF0FF3251
:1031D00042600422034B04805A60034A1A6010BD07
:1031E000740800206C080020F864080870474174D7
:1031F000704708B5007CFEF719FD20EAE07008BDB5
:1032000008B5007CFEF7EAFC20EAE07008BD08B5CE
:10321000007CFEF7F3FC40EAE07008BD08B5007CD6
:10322000FEF7E4FC40EAE07008BD007CFEF7EEBC6F
:1032300070B5467C04460D462EB12946207CBDE87B
:103240007040FEF7C3BC007CFEF7F0FC0028F4DC05
:10325000304670BD10B50446142100F016FA204621
:1032600010BD00004FF0000C10B504460846114692
:103270004FF47A72C4E901C2044A20742260012228
:1032800062741A46FEF79AFC204610BD34650808A1
:1032900038B50D4D2978BFF35B8F11F0010411D1C2
:1032A0002846FCF710FF68B12146084A084B094838
:1032B000FFF7D8FF2846FCF70BFF074A07490548E8
:1032C00000F0DEF9034838BD9C080020A00800206B
:1032D00024090020A8090020E8010020ED31080899
:1032E00010B5836804460BB900F0D3F9C36898475A
:1032F000A3681BB103222146204698472046BDE81B
:103300001040102100F0C1B97047F8B506461546C7
:103310000C468F18BC4206D0336830469B6814F8C0
:10332000011B9847F6E72846F8BD0022007CFEF70F
:103330009DBC0021007CFEF7A1BC0021007CFEF7B3
:10334000A5BC0021007CFEF7A9BC0021007CFEF793
:10335000ADBC10B50446142100F097F9204610BD0D
:1033600010B54FF47A73044608460021C4E90113EE
:10337000034B114623602074FEF7A8FC204610BDC5
:10338000646508080023007C1A461946FEF756BCFF
:103390007FB500221423CDE90122ADF804300B786B
:1033A000007C8DF808304B680393CB6804930B7A4C
:1033B00001A90593FEF792FC07B05DF804FB1FB569
:1033C000003B8DF800104FF0640118BF01230391FA
:1033D000694601928DF80830FFF7DAFF05B05DF815
:1033E00004FB0123FFF7EBBF0022007CFEF72EBC9D
:1033F0000022007CFEF732BC0121FFF7F9BF002359
:1034000040681A46FEF720BD002202214068FEF700
:103410002BBD002240681146FEF71EBD0022406809
:103420001146FEF729BD002340681A461946FEF7EB
:103430002BBD002340681A461946FEF72DBD00211A
:103440004068FEF751BD00214068FEF755BD0022DF
:10345000406881F00101FEF727BD00224068FEF7B9
:1034600033BD002240681146FEF736BD0022406899
:103470001146FEF721BD000070B51546002686B046
:10348000044604A8FFF74EFD2846039600F021FFEE
:103490000A4B009681B25B68284603AAFEF73EFC01
:1034A00030B131462046FFF74DFD204606B070BDD5
:1034B000204603A9FFF73EFDF7E700BF6C08002098
:1034C000024B034A1A6000225A607047BC09002070
:1034D0008C65080810B50446806808B1FEF766FBE5
:1034E000204610BD2E2870B5044601D9002070BDBD
:1034F000A0F10D03022B0BD9012826D800F098F873
:103500000021007CFEF7DAFB80F00100C0B2EEE79C
:10351000134E3178BFF35B8F11F001050FD13046A8
:10352000FCF7D1FD58B129460E48FEF785FD30461F
:10353000FCF7CEFD0C4A0D490A4800F0A1F8094BF2
:103540001878FEF7DBFB0028D0D1123C012C05D8FF
:10355000FFF79EFE007CFEF761FBD5E70120C6E782
:10356000C4090020C8090020E8010020D53408085B
:103570002E2838B504460D460AD8FF2908D0FFF793
:10358000B1FF28B129462046BDE83840FEF7CEBA43
:1035900038BD38B504460D46FEF7D0FAFF2810D0E6
:1035A000062804D84D2323FA00F0C30709D4204687
:1035B000FFF798FF28B129462046BDE83840FEF7BE
:1035C000C5BA38BD002313B5074C1A461946204624
:1035D0000093FFF7C9FC2046044A054902B0BDE844
:1035E000104000F04DB800BFD8090020E8010020CD
:1035F000E12E0808002370B5202543801423084ECF
:1036000004460380314685600561284600F03FF896
:1036100031466060284600F03AF8E060204670BD10
:10362000C065080810B50446FFF7E4FF204610BD4A
:1036300030B50F4D87B02978BFF35B8F11F00104CF
:1036400013D12846FCF73FFD78B101A8FFF7EAFF48
:10365000214601AA0748FFF783FE2846FCF738FDFC
:10366000054A0649034800F00BF8024807B030BD90
:10367000E0090020E4090020E801002009330808DF
:103680000B460146184600F0A1BDFCF71ABDFCF739
:1036900016BD08B5FEF7B8FC81F0004102E000BF9E
:1036A00083F0004330B54FEA41044FEA430594EA02
:1036B000050F08BF90EA020F1FBF54EA000C55EA3D
:1036C000020C7FEA645C7FEA655C00F0E2804FEA0E
:1036D0005454D4EB5555B8BF6D420CDD2C4480EAF0
:1036E000020281EA030382EA000083EA010180EA20
:1036F000020281EA0303362D88BF30BD11F0004F6E
:103700004FEA01314FF4801C4CEA113102D04042A3
:1037100061EB410113F0004F4FEA03334CEA1333DE
:1037200002D0524263EB430394EA050F00F0A780F6
:10373000A4F10104D5F1200E0DDB02FA0EFC22FAF1
:1037400005F2801841F1000103FA0EF2801843FAE5
:1037500005F359410EE0A5F120050EF1200E012AD6
:1037600003FA0EFC28BF4CF0020C43FA05F3C01814
:1037700051EBE37101F0004507D54FF0000EDCF18D
:10378000000C7EEB00006EEB0101B1F5801F1BD336
:10379000B1F5001F0CD349085FEA30004FEA3C0C3A
:1037A00004F101044FEA445212F5800F80F09A8030
:1037B000BCF1004F08BF5FEA500C50F1000041EB34
:1037C000045141EA050130BD5FEA4C0C404141EB38
:1037D0000101013C28BFB1F5801FE9D291F0000F33
:1037E00004BF01460020B1FA81F308BF2033A3F1E2
:1037F0000B03B3F120020CDA0C3208DD02F1140CD9
:10380000C2F10C0201FA0CF021FA02F10CE002F113
:103810001402D8BFC2F1200C01FA02F120FA0CFC0C
:10382000DCBF41EA0C019040E41AA2BF01EB045155
:10383000294330BD6FEA04041F3C1CDA0C340EDC53
:1038400004F11404C4F1200220FA04F001FA02F396
:1038500040EA030021FA04F345EA030130BDC4F154
:103860000C04C4F1200220FA02F001FA04F340EA49
:103870000300294630BD21FA04F0294630BD94F0FA
:10388000000F83F4801306BF81F480110134013DE1
:103890004EE77FEA645C18BF7FEA655C29D094EA52
:1038A000050F08BF90EA020F05D054EA000C04BFD0
:1038B0001946104630BD91EA030F1EBF00210020BB
:1038C00030BD5FEA545C05D14000494128BF41F05A
:1038D000004130BD14F580043CBF01F5801130BDBE
:1038E00001F0004545F0FE4141F470014FF0000049
:1038F00030BD7FEA645C1ABF194610467FEA655CFA
:103900001CBF0B46024650EA013406BF52EA03359B
:1039100091EA030F41F4002130BD00BF90F0000F89
:1039200004BF0021704730B54FF4806404F13204C5
:103930004FF000054FF0000150E700BF90F0000F7E
:1039400004BF0021704730B54FF4806404F13204A5
:1039500010F0004548BF40424FF000013EE700BF75
:1039600042004FEAE2014FEA31014FEA02701FBF05
:1039700012F07F4393F07F4F81F06051704732F037
:103980007F4208BF704793F07F4F04BF41F400218E
:10399000704730B54FF4607401F0004521F00041EC
:1039A0001CE700BF50EA010208BF704730B54FF076
:1039B00000050AE050EA010208BF704730B511F077
:1039C000004502D5404261EB41014FF4806404F1AF
:1039D00032045FEA915C3FF4D8AE4FF003025FEA35
:1039E000DC0C18BF03325FEADC0C18BF033202EBB9
:1039F000DC02C2F1200300FA03FC20FA02F001FA13
:103A000003FE40EA0E0021FA02F11444BDE600BFB5
:103A100070B54FF0FF0C4CF4E06C1CEA11541DBF64
:103A20001CEA135594EA0C0F95EA0C0F00F0DEF82F
:103A30002C4481EA030621EA4C5123EA4C5350EA14
:103A4000013518BF52EA033541F4801143F4801365
:103A500038D0A0FB02CE4FF00005E1FB02E506F0F6
:103A60000042E0FB03E54FF00006E1FB03569CF04B
:103A7000000F18BF4EF0010EA4F1FF04B6F5007F51
:103A800064F5407404D25FEA4E0E6D4146EB0606C3
:103A900042EAC62141EA55514FEAC52040EA5E504C
:103AA0004FEACE2EB4F1FD0C88BFBCF5E06F1ED8F6
:103AB000BEF1004F08BF5FEA500E50F1000041EB2D
:103AC000045170BD06F0004646EA010140EA0200DA
:103AD00081EA0301B4EB5C04C2BFD4EB0C0541EAFC
:103AE000045170BD41F480114FF0000E013C00F311
:103AF000AB8014F1360FDEBF002001F0004170BD35
:103B0000C4F10004203C35DA0C341BDC04F114044D
:103B1000C4F1200500FA05F320FA04F001FA05F2D9
:103B200040EA020001F0004221F0004110EBD370A6
:103B300021FA04F642EB06015EEA430E08BF20EAD2
:103B4000D37070BDC4F10C04C4F1200500FA04F375
:103B500020FA05F001FA04F240EA020001F0004107
:103B600010EBD37041F100015EEA430E08BF20EA7A
:103B7000D37070BDC4F1200500FA05F24EEA020EC2
:103B800020FA04F301FA05F243EA020321FA04F0F1
:103B900001F0004121FA04F220EA020000EBD370A8
:103BA0005EEA430E08BF20EAD37070BD94F0000FA8
:103BB0000FD101F00046400041EB010111F4801FDC
:103BC00008BF013CF7D041EA060195F0000F18BF8D
:103BD000704703F00046520043EB030313F4801FC9
:103BE00008BF013DF7D043EA0603704794EA0C0F83
:103BF0000CEA135518BF95EA0C0F0CD050EA410699
:103C000018BF52EA4306D1D181EA030101F0004115
:103C10004FF0000070BD50EA410606BF104619463D
:103C200052EA430619D094EA0C0F02D150EA013649
:103C300013D195EA0C0F05D152EA03361CBF10468A
:103C400019460AD181EA030101F0004141F0FE4129
:103C500041F470014FF0000070BD41F0FE4141F4AD
:103C6000780170BD70B54FF0FF0C4CF4E06C1CEAAD
:103C700011541DBF1CEA135594EA0C0F95EA0C0F62
:103C800000F0A7F8A4EB050481EA030E52EA03351D
:103C90004FEA013100F088804FEA03334FF080553E
:103CA00045EA131343EA12634FEA022245EA11156B
:103CB00045EA10654FEA00260EF000419D4208BF1C
:103CC000964244F1FD0404F5407402D25B084FEAC9
:103CD0003202B61A65EB03055B084FEA32024FF475
:103CE00080104FF4002CB6EB020E75EB030E22BFD2
:103CF000B61A754640EA0C005B084FEA3202B6EB92
:103D0000020E75EB030E22BFB61A754640EA5C0040
:103D10005B084FEA3202B6EB020E75EB030E22BFD0
:103D2000B61A754640EA9C005B084FEA3202B6EBD1
:103D3000020E75EB030E22BFB61A754640EADC0090
:103D400055EA060E18D04FEA051545EA16754FEAF2
:103D500006164FEAC30343EA52734FEAC2025FEA10
:103D60001C1CC0D111F4801F0BD141EA00014FF09F
:103D700000004FF0004CB6E711F4801F04BF014370
:103D80000020B4F1FD0C88BFBCF5E06F3FF6AFAE8C
:103D9000B5EB030C04BFB6EB020C5FEA500C50F11C
:103DA000000041EB045170BD0EF0004E4EEA11319F
:103DB00014EB5C04C2BFD4EB0C0541EA045170BDA6
:103DC00041F480114FF0000E013C90E645EA060EEA
:103DD0008DE60CEA135594EA0C0F08BF95EA0C0F18
:103DE0003FF43BAF94EA0C0F0AD150EA01347FF460
:103DF00034AF95EA0C0F7FF425AF104619462CE737
:103E000095EA0C0F06D152EA03353FF4FDAE104699
:103E1000194622E750EA410618BF52EA43067FF4EA
:103E2000C5AE50EA41047FF40DAF52EA43057FF47A
:103E3000EBAE12E74FF0FF3C06E000BF4FF0010C85
:103E400002E000BF4FF0010C4DF804CD4FEA410CE9
:103E50007FEA6C5C4FEA430C18BF7FEA6C5C1BD0B6
:103E600001B050EA410C0CBF52EA430C91EA030F37
:103E700002BF90EA020F0020704710F1000F91EA94
:103E8000030F58BF994208BF90422CBFD8176FEA62
:103E9000E37040F0010070474FEA410C7FEA6C5C30
:103EA00002D150EA013C07D14FEA430C7FEA6C5C37
:103EB000D6D152EA033CD3D05DF8040B704700BF63
:103EC0008446104662468C461946634600E000BFB1
:103ED00001B5FFF7B7FF002848BF10F1000F01BD83
:103EE0004DF808EDFFF7F4FF0CBF012000205DF84E
:103EF00008FB00BF4DF808EDFFF7EAFF34BF0120D3
:103F000000205DF808FB00BF4DF808EDFFF7E0FF6B
:103F100094BF012000205DF808FB00BF4DF808EDBC
:103F2000FFF7CEFF94BF012000205DF808FB00BF23
:103F30004DF808EDFFF7C4FF34BF012000205DF805
:103F400008FB00BF4FEA410C7FEA6C5C02D150EAEB
:103F5000013C0AD14FEA430C7FEA6C5C02D152EA81
:103F6000033C02D14FF0000070474FF00100704752
:103F70004A0011D212F5001211D20DD56FF47873E8
:103F8000B3EB62520ED44FEAC12343F0004343EA3D
:103F9000505323FA02F070474FF00000704750EA88
:103FA000013002D14FF0FF3070474FF000007047F2
:103FB0004FEA4102B2F1E04324BFB3F5001CDCF14B
:103FC000FE5C0DD901F0004C4FEAC0024CEA507083
:103FD000B2F1004F40EB830008BF20F001007047B2
:103FE00011F0804F21D113F13872BCBF01F00040B5
:103FF000704741F480114FEA5252C2F11802C2F1E7
:10400000200C10FA0CF320FA02F018BF40F0010067
:104010004FEAC1234FEAD32303FA0CFC40EA0C0019
:1040200023FA02F34FEA4303CCE77FEA625307D156
:1040300050EA01331EBF4FF0FE4040F4400070478D
:1040400001F0004040F0FE4040F40000704700BF27
:104050004FF0FF3C06E000BF4FF0010C02E000BF54
:104060004FF0010C4DF804CD4FEA40024FEA4103F6
:104070007FEA226C18BF7FEA236C11D001B052EAAC
:10408000530C18BF90EA010F58BFB2EB030088BF72
:10409000C81738BF6FEAE17018BF40F001007047E1
:1040A0007FEA226C02D15FEA402C05D17FEA236CC3
:1040B000E4D15FEA412CE1D05DF8040B704700BF0A
:1040C000844608466146FFE70FB5FFF7C9FF0028A1
:1040D00048BF10F1000F0FBD4DF808EDFFF7F4FFDA
:1040E0000CBF012000205DF808FB00BF4DF808ED73
:1040F000FFF7EAFF34BF012000205DF808FB00BF96
:104100004DF808EDFFF7E0FF94BF012000205DF8B7
:1041100008FB00BF4DF808EDFFF7D2FF94BF012068
:1041200000205DF808FB00BF4DF808EDFFF7C8FF61
:1041300034BF012000205DF808FB00BFD0B500228D
:104140000B4B06460F46FFF763FCFFF711FF0446D3
:10415000FFF7E4FB0022074BFFF75AFC02460B4631
:1041600030463946FFF79CFAFFF702FF2146D0BDE3
:104170000000F03D0000F04110B50C46416986B0EA
:1041800001F26C71036982690491016803EB4303D6
:104190000391416802EB4202029181680191C1687A
:1041A0002046009104490B4404490A440449FDF7A0
:1041B0000BFF204606B010BDF6650808E16508084B
:1041C000C16508080A22002100F0AABF10B5044604
:1041D0000448134620B10A4602202146AFF300806E
:1041E00010BD00BF000000000A44914200F1FF33FF
:1041F00000D1704710B511F8014B914203F8014FFF
:10420000F9D110BD03460244934200D1704703F830
:10421000011BF9E738B50D4B04461D68AB6B7BB944
:104220001820FDF7B9FE0A4A0A4BA863C0E900232B
:10423000094B012283600B2383810023C0E90423FF
:104240000022AB6B1C615A6138BD00BF1400002016
:104250000E33CDAB34126DE6ECDE05000346C9B279
:10426000184613F8012B12B18A42F9D17047002980
:1042700018BF0020704710F8012B11F8013B012AEC
:1042800028BF9A42F7D0D01A7047034611F8012B85
:1042900003F8012B002AF9D170470000024B0146B8
:1042A000186800F003B800BF1400002070B5044681
:1042B00008460D4600F00DF8461C31462046FDF735
:1042C000ABFE044618B132462946FFF78DFF204663
:1042D00070BD034613F8012B002AFBD1181A0138D0
:1042E000704710B56AB10139841810F8013B11F814
:1042F000012F934203D1A04201D0002BF5D1981A8F
:1043000010BD1046FCE7034610B5013932B111F873
:10431000014F013A03F8014B002CF7D100211A4458
:10432000934200D110BD03F8011BF9E7F0B50C78FA
:1043300064B103461A7818465E1C0AB9104605E0B7
:10434000944208D10D4615F8012F02B9F0BD13F8BB
:10435000017F9742F7D03346ECE72DE9F0410F4655
:10436000904601F04BFD04460D46B8F1000F11D008
:10437000C7F30A53C3F16B03002B0BDD00241B05AD
:1043800003F17F5505F5401522462B46FFF740FB0C
:1043900004460D4620462946BDE8F0810000000095
:1043A0002DE9F04F9B460023A1B01C93A14B824600
:1043B0001F680E4638461792FFF78BFF4FF0000834
:1043C00004464FF000091B961B9B1A782B2A4CD0F1
:1043D0003AD80D2A33D8082A33D8002A3DD00023F2
:1043E0000C931B9D2B78302B40F0AF806B7803F043
:1043F000DF03582B6CD10C9B504601931CAB0093F0
:104400008D4ACDF808B01DAB1BA900F0FBFE10F0E3
:104410000706044605D0062E29D1002301351B9539
:104420000C93179B002B40F096850C9BD3B1424612
:1044300009F100431046194621B0BDE8F08F202A4B
:10444000CDD101331B93BFE72D2AC8D101220C9295
:104450005A1C1B925B78002BC3D1179B1B96002B19
:1044600040F0778542464B46E4E70022EFE71C9A8E
:104470003AB135211EA801F0B8FD50461C9901F053
:10448000F3F9013E052E07D8DFE806F00E0B181DE4
:104490000E034FF00009C8462107C2D549F0004974
:1044A000BFE7DDE91E89F7E71D9ADDE91E8302F209
:1044B000334223F4801343EA0259EDE74FF000083A
:1044C000DFF87891E8E76FF000494FF0FF38E3E755
:1044D0001B9B5A1C1B925B78302BF9D0002BA0D071
:1044E000012307931B9B0A22089300239B46CDE9D7
:1044F00005331B980578A5F13003D9B2092926D9CF
:1045000022463946FFF7EDFE002832D000202B4628
:104510005C4602460490652B01D0452B13D11CB993
:10452000079B034399D000241B9E731C1B93737835
:104530002B2B78D02D2B7BD00027A3F1300109291C
:1045400040F282801B9600259EE00023C9E7BBF164
:10455000080FD5BF0699059902FB013302FB013311
:1045600000F10100D4BF069305930BF1010B1B90E2
:10457000BFE71B9B1A191B921B5DBBF1000F36D0C6
:104580005C460490A3F13002092A12D90122C2E745
:104590001B9B01305A1C1B925B78302BF8D0A3F187
:1045A0003102082A00F2DC840490002004461B9AA1
:1045B0000892303B00F1010213D00499051911440F
:1045C000049122460A21AA4213D12218082A04F192
:1045D000010404441BDC0A22069902FB0133069302
:1045E00000221B9B1046591C1B915B78CAE758465A
:1045F000D3E7082A04DC069F4F4306970132E2E71F
:10460000571C102FDEBF059F4F430597F6E7102C70
:10461000DFBF0A22059902FB01330593E0E700237F
:10462000012204937CE70027B31C1B93B37884E733
:104630000127F9E77C670808286608080000F07F72
:104640001B9B591C1B915B78302BF9D0A3F13101D6
:1046500008293FF678AF4FF00A0EA3F1300C1B9BF0
:1046600009931B9B591C1B915B78A3F13005092D05
:1046700035D9099D491B082944F61F6502DC6545AB
:10468000A8BF654607B16D42002C4CD10799014384
:104690007FF4C7AE002A7FF4E0AE692B26D023DC7E
:1046A000492B23D04E2B7FF4D8AE9C491BA800F099
:1046B000E5FF00283FF4D1AE1B9B1B78282B2CD1A3
:1046C00097491EAA1BA800F0EDFF052825D11F9BC6
:1046D000DDF8788043F0FF4949F4E009A1E60EFBDC
:1046E0000C3CACF1300CBCE76E2BDCE78D491BA811
:1046F00000F0C4FF00283FF4B0AE1B9B8A49013B89
:104700001BA81B9300F0BAFF10B91B9B01331B932E
:104710004FF00008DFF8209283E6844801F0B8FCEF
:10472000804689467DE6049BBBF1000F08BFA34687
:10473000EB1A102C069826460793A8BF1026FFF701
:10474000EDF8092C8046894613DD794B03EBC6034F
:1047500053E91223FFF75CF9804605988946FFF775
:10476000DDF802460B4640464946FEF79BFF804671
:1047700089460F2C36DC079B002B3FF452AE22DD1E
:10478000162B09DC6A4C424604EBC3044B46D4E9C1
:104790000001FFF73DF9C3E7079AC4F125039342EF
:1047A00020DB634DC4F10F0405EBC4014246D1E99F
:1047B00000014B46FFF72CF9079B1C1B05EBC405BA
:1047C000D5E90023E5E7079B16330BDB049B584A2A
:1047D0005D1B02EBC5054046D5E900234946FFF7BE
:1047E00041FA9DE7079BA61B1E44002E71DD16F0C3
:1047F0000F030AD04E49424601EBC301D1E9000143
:104800004B46FFF705F98046894636F00F0650D033
:10481000B6F59A7F27DD4FF0000BCDF810B0CDF83C
:1048200020B0CDF818B022234FF00008DFF808912F
:10483000CAF80030089B002B3FF4F3AD50461C999A
:1048400001F012F85046069901F00EF8504604990E
:1048500001F00AF85046089901F006F8594650460A
:1048600001F002F8DDE50023404649461F463611B7
:10487000012E21DC0BB1804689462E4BA9F15479DB
:1048800003EBC7074246D7E900014B46FFF7C0F8E4
:10489000294B0A460B40294980468B42BBD8A1F5DB
:1048A00080118B4286BF4FF0FF38DFF8949002F101
:1048B0005479002305937EE0F20707D51D4B03EBE7
:1048C000C703D3E90023FFF7A3F8012301377610CC
:1048D000CEE7EED0764216F00F020AD0144B4046D7
:1048E00003EBC2034946D3E90023FFF7BBF9804637
:1048F00089463611DDD01F2E24DD4FF0000BCDF898
:1049000010B0CDF820B0CDF818B022234FF0000839
:104910004FF00009CAF800308CE700BF2366080892
:104920003C6608081A6608081D6608083D64080801
:10493000B8670808906708080000F07F0000A07CB6
:10494000FFFFEF7F16F0100318BF6A234046059360
:1049500049460023B24FF20704D5D7E90023FFF7F9
:1049600057F80123761007F10807F4D10BB1804600
:104970008946059BBBB1C9F30A53C3F16B03002BF6
:10498000494610DD1F2B40F32B81342BD8BF4FF04D
:10499000FF324FF00008CFBF4FF05C79203B02FAA6
:1049A00003F303EA01090022002340464946FFF7CA
:1049B00097FA0028A1D1069B5A46009350462346F9
:1049C000089900F0A6FF089000283FF424AF049B4C
:1049D0004FF0000B5D1B079BCDF810B0002BB4BF50
:1049E0002B4600230E93079B23EAE3731693089B41
:1049F0005046596800F004FF069000283FF413AFBA
:104A0000089B0C301A6903F10C0102329200FFF787
:104A1000EBFB1EAB01931DAB009342464B46504649
:104A2000CDE90A8901F064FA1C9000283FF4FBAE3E
:104A30000121504600F0F9FF0346049000283FF49E
:104A4000F2AE1D9D1E9A002DABBF0E9B169BEE185D
:104A50005C1B059BA8BF169CA5EB03051544714B79
:104A600005F1FF35B8BF0E9E9D42C2F1360280F2BD
:104A7000C9805B1B1F2B4FF00107A2EB030200F361
:104A8000B680002507FA03F30F93B718059BBE42C3
:104A900014441C443346A8BF3B46A342A8BF234648
:104AA000002BC2BFFF1AE41AF61A0E9B002B17DD6B
:104AB0001A465046049901F05DF8049000283FF42E
:104AC000B2AE01461C9A504600F0B8FF099000288B
:104AD0003FF4A9AE50461C9900F0C6FE099B1C93FA
:104AE000002F00F39380079B002B08DD5046169A99
:104AF000069901F03FF8069000283FF494AE002C90
:104B000008DD22465046069901F082F806900028FA
:104B10003FF489AE002E08DD32465046049901F07C
:104B200077F8049000283FF47EAE5046069A1C9910
:104B300001F0E8F8834600283FF475AE0024C3680E
:104B40000499C4600D9301F0C2F8A04270DA0D9B85
:104B500053EA080340F09680C9F31303002B40F09A
:104B6000918029F000431B0D1B05B3F1D66F40F275
:104B70008980DBF8143023B9DBF81030012B40F3C7
:104B8000818059460122504601F042F8049983463B
:104B900001F09DF8002875DD05994B46224A002951
:104BA00000F0918002EA0901B1F1D66F00F38B8029
:104BB000B1F15C7F7FF7A9AE00231C4A4046CDE9E6
:104BC00014324946DDE91423FEF722FF0B46034366
:104BD00008BF22238046894608BFCAF800302DE668
:104BE0004FF0FF3202FA03F303EA0808DBE6C5F1EF
:104BF0007F4505F57F0505F57B45E23507FA05F5A7
:104C00000F9742E7012300250F933EE73A465046AF
:104C10001C9900F0FDFF1C9000287FF464AF02E6B1
:104C20005066080802FCFFFF0000F07F00005039CA
:104C3000CDF8249066D10D9AC9F313035AB39C4A58
:104C400093422CD1059B404603B34B46994A4FF003
:104C5000FF311A40B2F1D46F1BD8120DC2F16B03B1
:104C600001FA03F398421AD1934B099A9A4202D15E
:104C700001303FF4D8AD4FF000088E4B099A1A402E
:104C800002F58019059B002B96D1D7E54FF0FF3335
:104C9000E8E70B46E6E753EA08033FF47DAFE5B1EA
:104CA000099B1D42EED00D9B40464946059AC3B173
:104CB000FFF753FB02460B46DDE90A01FEF7F2FC63
:104CC00080468946DEE71340A3F580136FEA135947
:104CD0004FF0FF386FEA0959D4E70F9B13EA080F2A
:104CE000E0E7FFF73AFB02460B46DDE90A01FEF773
:104CF000D7FC0022002380468946FFF7F1F8002800
:104D0000C0D002E65846049901F041F900224FF064
:104D1000804306460F46FFF7F7F8002875D00D9B35
:104D2000002B47D00026654F644D099B23F00043BC
:104D30001B0D1B050F930F9A614B9A4240F0C880E0
:104D4000DDE90A23CDE91423099B4046A3F15479F8
:104D5000494601F053F802460B4630463946FEF705
:104D600057FE42464B46FEF79DFC0B465149554ABD
:104D70001940914280465ED90B9B02F154729342D6
:104D800003D10A9B01333FF44EAD4FF0FF38DFF8FB
:104D9000289150461C9900F067FD5046069900F096
:104DA00063FD5046049900F05FFD5946504600F0FF
:104DB0005BFD1CE6B8F1000F19D1099BC3F3130387
:104DC000E3B90022304639463C4BFFF793F8C8B9A7
:104DD0000022304639463C4BFEF71AFE04460D468B
:104DE00005F1004318941993DDE918679DE7B8F1C0
:104DF000010F03D1099B002B3FF487AD002600244F
:104E0000324F91E70D9C304DEAE72F4B00223046A0
:104E10003946FEF7FDFD0D9B04460D4633B901F101
:104E2000004310901193DDE910677EE702460B46C0
:104E3000CDE91023F7E703F15479059B002BA8D1A6
:104E400029F000430F9A1B0D1B059A42A1D1204661
:104E5000294601F04BF9FEF7ADFD02460B46204610
:104E60002946FEF71DFC0D9AC9F3130343EA080314
:104E7000134304460D4666D009A3D3E90023FFF788
:104E800039F800287FF4DAAC07A3D3E900232046E1
:104E90002946FFF74DF800283FF47BAFCEE400BF72
:104EA0009535A094FFFFDF3F35E5AF350000E03FCB
:104EB000FFFF0F000000F07FFFFFEF7F0000F03FDB
:104EC0000000E07FFFFF9F7C0000E03F0000F0BF9C
:104ED000059B13B30F9BB3F1D46F1ED826A3D3E960
:104EE000002320462946FFF70FF890B129462046B7
:104EF000FFF73EF8012838BF0120FEF70FFD0D9B9C
:104F000004460D46D3B901F1004312901393DDE935
:104F100012670F9A07F1D6639F1ADDE90A0100F0C4
:104F20006DFF02460B4630463946FEF771FDDDE95E
:104F30000A23FEF7B7FB804689467EE702460B460A
:104F4000CDE91223E3E70EA3D3E90023FEF7D2FF56
:104F5000A1E700230C931B9B179A1360FFF765BA18
:104F6000652B3FF45CAB452B3FF459AB0122FFF7B7
:104F70008DBB00BFAFF300800000C0FFFFFFDF412B
:104F80009535A094FFFFCF3F2DE9F041224F0A460F
:104F9000224B01463868FFF703FA02460B460646E5
:104FA0000C46FEF7CFFF68B1002C1D4806DA01F071
:104FB00075F800F100452846BDE8F081BDE8F041F4
:104FC00001F06CB821463046FEF7F2FF20F00048B1
:104FD00005461449404601F073F80028EBD14046DD
:104FE0001049FFF78DF80028E5D124F000444FF078
:104FF000FF32304621460C4BFEF7A4FF40B94FF07C
:10500000FF3230462146084BFEF77EFF0028D2D003
:1050100022223B681A60CEE7140000207C000020AA
:105020003D640808FFFF7F7FFFFFEF7F2DE9F0471A
:105030008C468646394E60461CF8014BA55D15F03E
:105040000805F8D12D2C33D14FF001089CF8004011
:1050500000F1020C002B5CD0102B0CD1302C0AD1AB
:105060009CF8000000F0DF0058284DD110239CF878
:1050700001400CF1020C002608F10047013FB7FB8C
:10508000F3F9304603FB197AA4F13005092D18D83D
:105090002C46A34224DD751C07D081451DD301D1C8
:1050A000A2451ADB012600FB03401CF8014BEBE78D
:1050B0002B2C08BF9CF80040A84608BF00F1020C4A
:1050C000C8E7A4F14105192D01D8373CE1E7A4F167
:1050D0006105192D04D8573CDBE74FF0FF36E4E7B4
:1050E000731C06D122233846CEF8003042B9BDE801
:1050F000F087B8F1000F00D04042002AF7D00EB17F
:105100000CF1FF311160F2E73024002BB3D10823FA
:10511000B1E7302CA4D00A23ADE700BF79660808B8
:1051200013460A46014602480068FFF77FBF00BFEA
:105130001400002003692DE9F043B3EB611F00F177
:1051400014044FEA611246DD11F01F0104EB8306DF
:1051500004EB82050CD1294600F11007B14235D38A
:105160009B1A9B00EA1E964238BF0023234415E099
:10517000A14654F82270C1F12008CF4005F1040E79
:105180007645F44616D89B1A9A00043A0135AE4289
:1051900038BF0022A318A75007B10433A342A3EBE2
:1051A000040208BF00234FEAA202026108BF436164
:1051B000BDE8F083DCF800C00CFA08FC4CEA0707F5
:1051C00049F8047B5EF8047BCF40D9E751F804CB63
:1051D00047F804CFC2E72346E0E7A0F13003092BEC
:1051E00002D82038C0B27047A0F16103052B01D866
:1051F0004738F7E7A0F14103052B01D82738F1E73D
:10520000002070472DE9F04F8BB00693BA4B029007
:105210001B688B46184690460393FFF75AF8824660
:10522000039BDBF80020034413F8013C0793931C15
:10523000C2F1FF2202F57F02FE32D1181F4613F899
:10524000010B01913028F8D0FFF7C7FF0446002872
:105250003AD1524638460399FFF743F805460028ED
:1052600066D117F80A0007EB0A06FFF7B6FF002819
:1052700060D0334618781F46302803F10103F9D077
:10528000FFF7ABFF0123B0FA80F4354664090193C0
:105290003A46164630780132FFF79FFF0028F8D1D2
:1052A000524630460399FFF71CF880B94DB906EB1A
:1052B0000A052A46164630780132FFF78EFF00288D
:1052C000F8D1AD1BAD0004E000242546E0E7002D39
:1052D000F7D1337803F0DF03502B39D173782B2BC0
:1052E0002AD02D2B2CD04FF00009711C0878FFF725
:1052F00074FF431EDBB2182B2AD8A0F1100211F85C
:10530000010FFFF76AFF431EDBB2182B1BD9B9F15F
:10531000000F00D052421544CBF80010D4B1019BCD
:10532000002B14BF0027062738460BB0BDE8F08FCE
:105330003E4625460124CCE74FF00009B11CD5E7D5
:105340004FF00109FAE70A2303FB0202103AD6E7FD
:105350003146E1E72146F31B013B072B50DC029865
:1053600000F04EFA4FF0000B044600F11409CAF1A8
:105370000103CDF81090CDF804B00893B74242D3A2
:10538000049F019B47F8043BA7EB0907BF10276167
:10539000184600F0FCFA7F01D8F800603F1AB742C7
:1053A00065DDBF1B3946204600F042FE8246A8B1AB
:1053B0004FF0010A7B1E591159F8211003F01F020A
:1053C0000AFA02F20A4209D0534505DD2046B91E09
:1053D00000F02EFE002847D14FF0020A3946204641
:1053E000FFF7A8FE3D44D8F80830AB424DDA21461D
:1053F000029800F039FA0023149AA327136093E768
:1054000001315B10A9E7731E079A059316F8013C5A
:10541000934219D0BBF1200F07D1049B019A43F8A6
:10542000042B049300239B46019316F8010CFFF70D
:10543000D4FE019B00F00F0000FA0BF00343019330
:105440000BF1040B059B0DE0059B089A1344BB422E
:10545000E0D31846524603990993FEF742FF099B91
:105460000028D7D11E4689E74FF0030AB6E709DACC
:10547000F71B21463A46029800F0CAFB0446ED1B92
:1054800000F114094FF0000AADE7D8F80400A84273
:105490006EDD451BAE4231DCD8F80C30022B22D039
:1054A000032B24D0012B15D1AE4213D1012E0BD1E9
:1054B000D8F80430069A6227136001232361C9F8E3
:1054C0000030149B1C602FE72046711E00F0B0FDD9
:1054D0000028EDD12146029800F0C6F90023149A65
:1054E0005027136020E7159B002BF3D1E0E7159BB5
:1054F000002BDDD1EEE700BF7C6708086F1EBAF114
:10550000000F32D127B13946204600F091FD824686
:1055100001217B1159F8233007F01F0701FA07F723
:105520001F424FF002072946204618BF4AF0020AE0
:10553000761BFFF7FFFDD8F80450BAF1000F48D0F2
:10554000D8F80C30022B15D0032B17D0012B09D122
:105550001AF0020F06D0D9F800004AEA000A1AF041
:10556000010F0ED147F0100733E04FF0010ACFE7EB
:105570000127E2E7159BC3F101031593159B002B4F
:10558000F0D04FF0000CD4F8109004F114034FEA5F
:10559000890B03EB8901184653F8042BB2F1FF3F46
:1055A0001CD001320260022F04F1140338D1D8F864
:1055B0000020013AB2420AD10122711153F8213080
:1055C00006F01F0602FA06F61E4218BF174647F0FD
:1055D0002007149B1C60069B1D60A5E6994243F8BA
:1055E00004CCD8D8A368994512DB616802980131D0
:1055F00000F006F98246226904F10C0102329200A1
:105600000C30FEF7F1FD2146029800F02DF95446CA
:1056100023695A1C2261012204EB83035A61C2E709
:1056200022694A450BDD01212046FFF783FDD8F8AA
:1056300008300135AB42FFF6DAAE0127C7E716F0B6
:105640001F06FAD09B445BF8040C00F0A0F9C6F1E9
:105650002006B042E7DBF0E7C2F10802920070B525
:10566000C2F120064368046803FA06F52C43D340D0
:10567000046040F8043F8842F4D370BD30B503683D
:10568000013311F8014B14B90360012030BD13F848
:10569000012BA2F14105192D98BF2032A242F0D072
:1056A0000020F3E72DE9F04F00250B6882465E11DC
:1056B00002EB860613F01F0318BF0436371F90460F
:1056C000B9463C46AB4687B00168019346F8045C96
:1056D00002954A784B1C039342B3104605910492FD
:1056E000FFF77BFD00284FD1049A0599202A18D88E
:1056F000029B9B4513DD4C4506D2072D04DC2A4650
:1057000049462046FFF7A8FF444550D90023A4F19D
:10571000040944F8043C1D464C46CDF808B00399F2
:10572000D7E7292A56D10231CAF80010BBF1000F81
:1057300050D04C4506D2072D04DC2A464946204667
:10574000FFF78AFF444534D92346A8F1040253F8F1
:10575000041B9F4242F8041FF9D23B1B23F00303B2
:1057600004330134033EB44288BF0423002243447F
:1057700043F8042B9F42FBD23B681BB9474527D116
:1057800001233B60052026E00135082D0BF1010BBC
:1057900006DD4445C3D90023012544F8043C043CFC
:1057A000226800F00F0040EA02122260B7E70825E5
:1057B000B5E7019B002BDFD04FF0FF32C3F1200390
:1057C00022FA03F356F8042C1A4046F8042CD3E7C7
:1057D000043FD1E7042007B0BDE8F08F82B001B9E3
:1057E00001A942B14BB113780B601278101E18BF9B
:1057F000012002B070471046FBE76FF00100F8E7A8
:1058000070B5466A04460D463EB91020FCF7C4FB4D
:10581000C0E9016660620660C660666AF36883B1CB
:10582000636ADB6853F82500B8B9012101FA05F66F
:10583000721D2046920000F01CFC60B1C0E90156C8
:105840000EE021220421204600F013FC636AF06080
:10585000DB68002BE4D1002070BD026843F82520EE
:105860000023C0E90333F7E770B5466A05460C46E6
:105870003EB91020FCF790FBC0E901666862066043
:10588000C6603CB16B6A6268DB6853F82210216025
:1058900043F8224070BD2DE9F04198460C460023A4
:1058A0000E69074601F1140005680133A9B202FB35
:1058B00001812D0C4FEA114C02FB05C589B201EBA9
:1058C00005419E424FEA154840F8041BECDCB8F154
:1058D000000F1BD0A368B34212DC61683846013167
:1058E000FFF78EFF0546226904F10C010232920097
:1058F0000C30FEF779FC21463846FFF7B5FF2C4601
:1059000004EB86030136C3F8148026612046BDE807
:10591000F0812DE9F843154609221F4608330C464D
:1059200093FBF2F30646012200219A4220DB304627
:10593000FFF766FF089B092D43614FF001030361E8
:1059400019DD04F10909C8462C4418F8013B014649
:105950000A223046303BFFF79EFFA045F5D1A5F166
:1059600008044C442D1B6319BB4207DBBDE8F883D8
:1059700052000131D9E709250A34F3E714F8013B55
:1059800001460A223046303BFFF785FFEBE7020C69
:1059900012040346CAB90304102013F07F4F04BF5A
:1059A0001B02083013F0704F04BF1B01043013F0CA
:1059B000404F04BF9B000230002B05DB13F0804FEB
:1059C00000F1010008BF202070470020E5E70368D0
:1059D000024613F007000BD0D90722D4980749BF1D
:1059E0005B089B08012013605CBF022013607047B6
:1059F00099B209B910201B0C13F0FF0F04BF1B0A4A
:105A00000830190704BF1B090430990704BF9B081D
:105A10000230D90703D45B0800F1010003D0136002
:105A20007047002070472020704710B50C460121B8
:105A3000FFF7E6FE01224461026110BD2DE9F04F3F
:105A400015460A692B690C469A42BEBF0B462C4686
:105A50001D462769D5F81090A368616807EB090611
:105A6000B342B8BF013185B0FFF7CAFE00F114019F
:105A70000B46002201EB860843451DD304F11403B5
:105A800005F1140203EB870702EB890302933B1B2A
:105A9000153B23F00303043304F11505AF4238BF6F
:105AA00004230193029B0392934208D8002E5ADCF0
:105AB000066105B0BDE8F08F43F8042BDCE7B2F8CF
:105AC00000A0BAF1000F24D089464FF0000C04F179
:105AD000140E5EF8045BD9F800B0ABB21FFA8BFB72
