:020000040808EA
:1000000000000808AC840808000006000A0005018A
:080010000402DE0500000000FF
:0400180068740808F8
:1000200009480A4908B5884205D0094A824202D0E7
:10003000121A04F0ADFA0748074A0021121A04F018
:10004000B2FA064808BD00BF0000002084830808FB
:100050000001002000010020D0060020D006002072
:1000600070B502F0F1FB074B074C1E46E41AA408DA
:100070000025A54204D056F8253098470135F8E709
:1000800070BD00BF3C8308087C83080800F042B9BB
:1000900008B500F0C1F9BDE8084002F097BB01F0D7
:1000A00045BF01F04BBF0078B0FA80F040097047BF
:1000B000012303707047000010B50446024B036033
:1000C00000F064FE204610BD8474080810B5044694
:1000D000FFF7F2FF20464FF41B7103F0B1FA204600
:1000E00010BD000038B50546084C0121208803F0FA
:1000F00002FA284602F0FCFA2088002103F0FBF9FE
:10010000BDE83840C82002F0F3BA00BF0400002068
:1001100038B505460024AC4205DA4FF41670FFF7F7
:10012000E1FF0134F7E738BD38B505460024AC429D
:1001300004DAC820FFF7D6FF0134F8E738BD08B568
:100140000320FFF7F1FF0320FFF7E2FFBDE80840BF
:100150000320FFF7E9BF38B5046805467CB1636842
:10016000013B63605BB9236820469B689847A3689E
:10017000013BA3601BB923682046DB6898472846EB
:1001800038BD0A46012102F073B9000007B502F03C
:1001900025FF0B49FFF7F5FF0A4900220023C1E9BB
:1001A000002318210091084801F054FA074A01235E
:1001B0001370074A0020136003B05DF804FB00BF12
:1001C0008C740808D003002070030020A8030020CE
:1001D0000800002008B502F001FF0649FFF7D1FF33
:1001E000054B01221A7001F0ADFC044B1860002091
:1001F00008BD00BFB074080888030020AC030020CD
:1002000070B59AB0006804F0B5F8384C384D2060ED
:1002100002F0E4FE3749064616A801F0D3FF226833
:10022000294612A802F0A8F812A916A802F073F83D
:1002300001683046FFF7A5FF12A801F07CFF16A861
:1002400001F079FF2C4902A801F0BCFF02A90AA81D
:1002500001F0F7FF294906A801F0B4FF06A90AA892
:1002600002F059F8064626490EA801F0ABFF0EA988
:10027000304602F050F806462268294612A802F0DD
:100280007BF812A9304602F046F804461D4916A82C
:1002900001F098FF16A9204602F03DF81A4C0146DD
:1002A000204601F0BFFF16A801F045FF12A801F09B
:1002B00042FF0EA801F03FFF06A801F03CFF0AA88C
:1002C00001F039FF02A801F036FF104B22681B78BD
:1002D0000F498DF8003016A84FF4167302F04EFC4B
:1002E00017A8FFF738FF00201AB070BD00000020EB
:1002F000BE7A0808C2740808DA740808DC740808B2
:10030000E9740808EB740808D8030020A90300204A
:10031000EE7408082DE9F04385B002F05FFE2E4927
:10032000FFF72FFF00242D4E082302940127ADF87C
:10033000083004AD234602AA47F23051204645F862
:10034000047D01F0E3FD264A2649304602F006FB13
:10035000254A2649304602F001FB254A2549304608
:1003600002F0FCFA244923462246019400942348D3
:1003700001F0BCFD4FF000084FF000091823009376
:1003800042464B461E4801F065F90323424600935E
:100390001C484B4601F05EF91B4B1C4E1888394631
:1003A00003F098F84FF48061304601F0BFF9304611
:1003B00001F0B5F9164B22461B7816498DF800302E
:1003C00002A84FF4167302F0D9FB2846FFF7C3FECC
:1003D00005B0BDE8F08300BF0175080831290808A1
:1003E00018750808D50108082B75080801020808C7
:1003F000387508088D010808C90B080840750808F9
:10040000700300209003002004000020C40300209B
:10041000A90300204E750808F0B5F9B001F092FB71
:10042000184B984211D9FFF78AFE174B174A1B78D1
:1004300017498DF800306BA84FF4967302F09EFBBD
:100440006CA8FFF788FE01F00AFE124B1B784BB137
:1004500001F078FB104B1B68C01A43F697239842B3
:1004600000F2F58202F033F90C4907466BA801F05F
:10047000A3FA0B4B1B78ABB90420FFF755FE42F2F1
:100480001070D8E2FF071948A90300205675080824
:100490006675080888030020AC03002008040020CB
:1004A000B00300200120FFF73FFE0021B84801F013
:1004B0003FF9B84A0128106027DD03F071FBAEA3B5
:1004C000D3E9002304460D4603F04CFEE8B1ACA38B
:1004D000D3E900232046294603F014FAAAA3D3E95E
:1004E000002303F0C3FBAC4BAC4CD3E9002303F077
:1004F00009FA02460B46AA48C4E9002301F06AF84B
:10050000D4E90023A74801F065F802F067FDA64C86
:1005100005462268A54953A801F02EFF53A957A804
:1005200001F08FFEA24957A801F001FF0646994B42
:10053000A0491A685BA801F01FFF5BA9304601F0D3
:10054000EAFE9B4901F0F3FE0646944B9A49D3E933
:1005500000235FA801F010FF5FA9304601F0DBFE29
:10056000934901F0E4FE06468D4801F063F8024627
:100570000B4663A8904901F0FFFE63A9304601F0E5
:10058000CAFE8B4901F0D3FE0646864801F052F8B8
:1005900002460B4667A8884901F0EEFE67A930467F
:1005A00001F0B9FE01682846FFF7EBFD67A801F0EE
:1005B000C2FD63A801F0BFFD5FA801F0BCFD5BA810
:1005C00001F0B9FD57A801F0B6FD53A801F0B3FD45
:1005D0002668182E40F08A80784D4FF0FF33236054
:1005E0002B78002B00F082806D4801F023F86A4CD4
:1005F000C4E900016A4800F0CAFF00220023009607
:10060000674801F027F8674800F0C1FF0323002284
:1006100000936448002301F01DF8694953A801F0D4
:10062000D1FD53A95BA801F00CFE664957A801F063
:10063000C9FD57A95BA801F06EFE064662495FA896
:1006400001F0C0FD5FA9304601F065FED4E900234A
:100650000646594963A801F08FFE63A9304601F0B0
:100660005AFE0446594967A801F0ACFD67A9204627
:1006700001F051FE564C0146204601F0D3FD67A81B
:1006800001F059FD63A801F056FD5FA801F053FD8C
:1006900057A801F050FD5BA801F04DFD53A801F0F3
:1006A0004AFD4C4B4C491B7867A88DF800302268F6
:1006B0004FF4167302F062FA68A8FFF74CFD02F0DF
:1006C0008DFC4649064667A801F07CFD214667A8D7
:1006D00001F021FE01683046FFF753FD67A801F0E5
:1006E0002AFD0520FFF714FD00232B70344903A8D1
:1006F00001F068FD03A90BA801F0A3FD384907A884
:1007000001F060FD07A90BA801F005FE04462E4983
:100710000FA801F057FD0FA9204601F0FCFD04468B
:10072000304B3A461B68304913A801F07DFF13A9EE
:10073000204601F0F0FD04462C4917A801F042FDC7
:1007400017A9204601F0E7FD044629491BA801F03E
:1007500039FD1BA9204601F0DEFD04461A491FA8F9
:1007600001F030FD1FA9204601F0D5FD0446779B1E
:10077000769A3FE0AFF30080000000008066DF4023
:1007800000000000001EB940D969C3CD51E7B33F56
:10079000C4030020E8030020D0030020F003002061
:1007A0007003002090030020080000206C750808EA
:1007B0006F750808BE7A080872750808A80300203B
:1007C000DA74080878750808E9740808EB740808F2
:1007D000F8030020A90300208A750808937508080B
:1007E000B57508080C00002028040020BB75080817
:1007F000BE7508089F4923A801F0BEFD23A9204625
:1008000001F089FD04469C4927A801F0DBFC27A9DB
:10081000204601F080FD044698492BA801F0D2FC47
:100820002BA9204601F077FD044695492FA801F039
:10083000C9FC2FA9204601F06EFD0446914B924958
:100840001A6833A801F098FD33A9204601F063FD32
:100850000446894937A801F0B5FC37A9204601F0C4
:100860005AFD044689493BA801F0ACFC3BA920464F
:1008700001F051FD044682493FA801F0A3FC3FA9C5
:10088000204601F048FD0446814B8249D3E900230C
:1008900043A801F071FD43A9204601F03CFD044648
:1008A000754947A801F08EFC47A9204601F033FDA9
:1008B000044679494BA801F085FC4BA9204601F07C
:1008C0002AFD04466E494FA801F07CFC4FA9204642
:1008D00001F021FD0446714800F0ACFE02460B46D3
:1008E00053A86C4901F048FD53A9204601F013FDBF
:1008F0000446614957A801F065FC57A9204601F05C
:100900000AFD044666495BA801F05CFC5BA9204631
:1009100001F001FD04465A495FA801F053FC5FA9AC
:10092000204601F0F8FC04465E4800F083FE0246D3
:100930000B4663A8574901F01FFD63A9204601F04B
:10094000EAFC0446584967A801F03CFC67A9204628
:1009500001F0E1FC554C0146204601F063FC67A81C
:1009600001F0E9FB63A801F0E6FB5FA801F0E3FBFF
:100970005BA801F0E0FB57A801F0DDFB53A801F0F4
:10098000DAFB4FA801F0D7FB4BA801F0D4FB47A836
:1009900001F0D1FB43A801F0CEFB3FA801F0CBFB57
:1009A0003BA801F0C8FB37A801F0C5FB33A801F054
:1009B000C2FB2FA801F0BFFB2BA801F0BCFB27A8AE
:1009C00001F0B9FB23A801F0B6FB1FA801F0B3FBAF
:1009D0001BA801F0B0FB17A801F0ADFB13A801F0B4
:1009E000AAFB0FA801F0A7FB07A801F0A4FB0BA826
:1009F00001F0A1FB03A801F09EFB01F05FFA2C4B74
:100A000022681B782B498DF8003067A84FF41673C5
:100A100002F0B4F868A8FFF79EFB274A1368002B82
:100A2000C4BF01331360254B1B7813B141F28830EA
:100A300001E0234B186801F05BFE224B72A86B9318
:100A400001F079FB6EA801F076FB79B0F0BDFFF7FD
:100A500076FB174B1C4A1B781C498DF800306BA89D
:100A60004FF4967302F08AF86CA8FFF774FB01F05C
:100A7000F6FAF7E4C4750808BB750808D5750808C8
:100A8000E9740808E8030020BE7A0808DF75080842
:100A9000F003002072750808E7750808700300204D
:100AA000EF75080890030020EB740808B4030020D9
:100AB000A9030020F975080808000020A8030020F9
:100AC00000000020D07A0808037608086675080838
:100AD0002E4B73B501222E4D1A7000F0FBFF4821FA
:100AE0002C482D4C00F014FE2C4E1821284600F006
:100AF00063FD28462A4D2246314602F093FD03212C
:100B0000284600F059FD3146264E2246284602F07E
:100B100089FD254D0A225021304601F0B6FB3046B2
:100B2000224E2246294602F07DFD0A2250213046FF
:100B300001F0ABFB30461E4E2246294602F072FD04
:100B40000A225021304601F0A0FB224629463046B9
:100B5000184D02F067FD1423009305F12C0105F5F3
:100B600096734FF48072284600F062F9124B2246C9
:100B7000124928462B6002F055FD114A11481146D2
:100B8000002302B0BDE8704001F0A4B8A903002022
:100B900070030020C4030020000100207F15080816
:100BA00090030020B403002037210808F803002038
:100BB000D80300200401002084740808B900080844
:100BC000B47A08081A76080830B50C469BB050482D
:100BD00000F02BF9204604F067FA214602464C4803
:100BE00000F005F94A4800F079FC4A4CB8B112A867
:100BF000474900F02DF9484A12A916A800F088FAD2
:100C0000002116A800F09FF902F0DCFFC4E9000102
:100C100016A800F09BF812A800F098F806E002F081
:100C2000DDF93E4B3E4A012101F022FC02F0D6F9EB
:100C30003C49054616A801F0C5FAD4E9002312A8DC
:100C4000394901F099FB12A916A801F064FB01686B
:100C50002846FFF796FA12A801F06DFA16A801F0DF
:100C60006AFA324902A801F0ADFA02A90AA801F015
:100C7000E8FA2F4906A801F0A5FA06A90AA801F08A
:100C80004AFB05462B490EA801F09CFA0EA92846FE
:100C900001F041FBD4E900230546234912A801F0E5
:100CA0006BFB12A9284601F036FB0446224916A820
:100CB00001F088FA16A9204601F02DFB1F4C0146D1
:100CC000204601F0AFFA16A801F035FA12A801F09B
:100CD00032FA0EA801F02FFA06A801F02CFA0AA8A1
:100CE00001F029FA02A801F026FA154B22681B78B8
:100CF00014498DF8003016A84FF4167301F03EFF2A
:100D000017A8FFF728FA104B01221A701BB030BD4C
:100D100004010020D00300206B7608082276080822
:100D2000377608083D76080872750808DA740808EE
:100D300078750808E9740808EB740808F8030020BF
:100D4000A903002063760808B0030020704710B59F
:100D500004460C2102F074FC204610BD10B5054B72
:100D600004460360037C1BB9406808B101F0E6F853
:100D7000204610BD9476080810B50446FFF7EEFF34
:100D80002046142102F05CFC204610BD10B5074B34
:100D900004460360037C1BB9406908B101F0CEF83A
:100DA0002046FFF7DBFF204610BD00BFCC760808C9
:100DB00010B50446FFF7EAFF20462C2102F040FC64
:100DC000204610BD38B5037C04460D460BB100200B
:100DD00038BD406810B101F0B9F802E0084601F0F2
:100DE000A5F80028F3D06060A560012038BD70B57B
:100DF00043680E4604461546C1687BB153188268A5
:100E000093420BD8E36860682A463146184403F0E1
:100E1000BFFBE36801201D44E56070BD2944204606
:100E2000FFF7D0FF0028EDD170BD0023C3607047ED
:100E300010B582600022C260012202744361034A3D
:100E4000029B41600260C36110BD00BFCC76080800
:100E50008B694A6941609A42034B38BF82600360E4
:100E600024BF0023836070478476080870B5136838
:100E70009D68136803F1100414608669B4420AD2B5
:100E80009B698C68A34201DA9D42F2DAA342CCBF8F
:100E90000020012070BD002070BD2DE9F3470746FA
:100EA0000C4691469A4602AD01F110030A9E45F8A0
:100EB000043D4FF00008019BBA699A421ED9996817
:100EC000A26891421ADAB0450BD1C9F800302A461F
:100ED00021463846FFF7CAFF18B1019BCAF8003017
:100EE0000DE02A4621463846FFF7C0FF2A46214634
:100EF000384608F10108FFF7B9FFDCE7002002B02F
:100F0000BDE8F08770B5013B00244E688D68AD1BCD
:100F1000AC4207DA9C4205DA45682544AD5D1555BB
:100F20000134F2E70023135570BD1FB5144610239A
:100F30006A46FFF7E7FF0021684604F021FF2060C2
:100F4000012004B010BD07B50191816819B101AA53
:100F50004068FFF7EAFF019803B05DF804FB38B57D
:100F6000044600680D4610B101F0C8F907E0616859
:100F700029B1A368E268013B9A4238BF8D54E36807
:100F80000133E36038BD7F2870B50C4601D8C1B28B
:100F900019E0B0F5006F4FEAA01500F03F0603D24C
:100FA00065F03F01C9B209E0010B41F0E0012046C4
:100FB000FFF7D5FF05F03F0141F080012046FFF724
:100FC000CEFF46F080012046BDE87040FFF7C7BF66
:100FD0002DE9FF4180460F4616464D680024B8684B
:100FE000854245DAD8F80430C4B3595D5A196E29E0
:100FF0000FD005D862290AD066290BD10C2109E04F
:1010000074290ED075290ED0722903D107E008216A
:1010100000E00A213046FFF7A2FF002426E00D2160
:10102000F8E70921F6E72B1D9842F6DD002312F8B8
:10103000011F02A819540133042BF8D1002301AA7F
:101040000D498DF80C3000F091FF0128E5D13146B3
:10105000BDF80400FFF797FF0535DEE7595D5C2911
:1010600003D03046FFF77BFF00E001240135B6E7EF
:10107000012004B0BDE8F081A07608087FB50C46D9
:10108000154606460B49104601F0EEF8A368616864
:101090002846591A013101F06CF800236A462146AE
:1010A00030460095019302930393FFF791FF04B03C
:1010B00070BD00BFB47A08082DE9F04389B0064638
:1010C0000F4604A811499046994601F07BF8002587
:1010D00000954B4603AA39463046FFF7DEFE04462C
:1010E00068B104AA03993046FFF7C8FF044620B14F
:1010F000414604A801F02DF908B90135E8E704A834
:1011000001F019F8204609B0BDE8F083B47A080868
:1011100073B50D4689680446094E21B101AB686874
:10112000FFF7CAFF20B96B6826606360002303E005
:101130006B6826606360019B2046A36002B070BDAF
:10114000847608082DE9F04F44684FF0FF354FF0E2
:10115000030ED0F800C0944580F09D8111F80C80FA
:10116000B8F1000F00F09781B8F12C0F00F0168154
:1011700018D8B8F10D0F00F08A8106D8A8F1090837
:10118000B8F1010F40F283813DE1B8F1200F00F08A
:101190007E81B8F1220F40F036810CF10109C0F8D0
:1011A000009092E0B8F15D0F3CD007D8B8F13A0F4B
:1011B00000F0F080B8F15B0F07D024E1B8F17B0FAD
:1011C00003D0B8F17D0F2DD01DE10134002B00F0CC
:1011D0005E814768099EBE4240F27C8107F1010CA6
:1011E000C0F804C04FEA071C03EB0C0A0026CAF83B
:1011F0000450CAF80C60CAF8085087687E1C1FBFEC
:1012000003EB0719D9F80C700137C9F80C70B8F165
:101210007B0F14BF0227012703F80C700768CAF878
:101220000470B7E0002B00F032814768B8F17D0F01
:1012300007F1805808F1FF3814BF4FF0020A4FF051
:10124000010A07F1FF3903EB0818B9F1000F19DBA8
:10125000D8F80470013710D0D8F808707E1C0CD173
:1012600098F800B0D34540F0288187600CF1010761
:10127000C8F8087003EB091C11E009F1FF39A8F167
:101280001008E2E7B9F1FF3F40F0018115E109F1F3
:10129000FF39B9F1FF3FACF1100C00F0F880DCF839
:1012A00004700137F3D0DCF808700137EFD1C0F8D3
:1012B0000890ECE011F80870002F68D0222F09D0B8
:1012C0005C2F26D0076801370760D0F800804245C0
:1012D000F0D85CE0002B00F0CE804768099EBE424B
:1012E00040F2F68007F1010C3F01C0F804C000266F
:1012F00003EB070CCCF80850CCF80450CCF80C6089
:10130000D0F8008003F807E0CCF80490CCF808800F
:10131000B1E008F10107BA42D4D90760CF5D662F6A
:10132000D0D008D82F2FCDD001D8222F07E05C2FA6
:10133000C8D0622F03E0722FC4D002D86E2F75D1AF
:10134000C0E7742FBED0752F70D108F10207076077
:101350004FF0040AD0F80080424503D80768013FE7
:101360000760AFE711F80870002FF7D0A7F1300B36
:10137000BBF1090F04D927F02007413F052F55D8AD
:1013800008F10107BAF1010A0760E3D1E6E7C0F806
:1013900000C099E04768013F876078E0002B76D075
:1013A00087687E1C73D03F01DF5D013F012F6ED93E
:1013B000476807F1FF3803EB071CB8F1000F66DB45
:1013C0001CF8107C013F012F0AD85CF80C7C013717
:1013D00006D05CF8087C013702D1C0F8088056E0DE
:1013E00008F1FF38ACF1100CE7E711F8087007B30B
:1013F000202F1ED010D8092F0AD2203F5E2F15D8DB
:1014000008F101070760D0F800804245EDD810E0F0
:101410000A2F0ED90D2F07E03A2F0AD001D82C2F12
:1014200002E05D2F05D07D2FE7D102E0C0F800C0BB
:1014300043E013B908F1FF371CE04768099EBE423C
:1014400046D907F101083F01C0F80480002603EBEC
:101450000708C8F80C604FF00406C8F80850C8F830
:101460000450D0F80090DE55C8F804C0C8F80890C1
:101470000768013F0760876801347E1C07D033B1DD
:1014800003EB071CDCF80C700137CCF80C70076814
:10149000013707605DE6A3B14268511E03EB0213FA
:1014A00000290EDB53F80C2C013203D053F8082C22
:1014B000013209D00139103BF2E76FF00100BDE8BD
:1014C000F08F2046BDE8F08F6FF00200BDE8F08F8E
:1014D000C0F800C04FF0FF30BDE8F08FF7B54369AA
:1014E000044600F12006F3B10022026242624FF08E
:1014F000FF328262C2690092C26841683046FFF7DB
:1015000021FE431C09D1257C0DB1002033E0606928
:1015100000F014FD6561E56105E00028F5DB636915
:1015200003EB001325E000254FF0FF3725626562CD
:10153000A76200952B46E26861683046FFF702FE1D
:101540000028E2DBE06113D0000100F0EFFCE2696B
:1015500003466061009225626562A762E268616885
:101560003046FFF7EFFD636903EB0010A06101E077
:101570006369A361012003B0F0BD00F0ABBA10B500
:101580000446006908B100F0D9FC204610BD30B512
:1015900000240025C0E902450023437083700278CF
:1015A000591CDBB29A4206D9026902EBC303C3E9B4
:1015B00000450B46F3E730BD10B504460170C80086
:1015C00000F0B4FC206100B920702046FFF7DFFF77
:1015D000204610BDF8B51F4603690446164643B3BE
:1015E000857800F10801D1E9000103EBC505D5E9D3
:1015F000002302F087F9C4E90201C5E90067A57874
:101600002369D4E9020103EBC503D3E9002302F007
:101610007BF901352278EDB2954208BF0023A57011
:1016200008BFA3706378C4E902019A4284BF013302
:101630006370F8BD10B50446407840B102F0B0FACE
:1016400002460B46D4E9020102F03AFC10BD00202C
:10165000002110BD2DE9F041054616461F469DF8B4
:101660001880FFF794FF0024444506D032463B46DD
:101670002846FFF7AFFF0134F6E7BDE8F08100F040
:1016800029BA10B5044601F0A7FF03682146BDE85A
:1016900010409B68184708B501F09EFF03685B691E
:1016A0009847C0B208BD70B506460D46144601F015
:1016B00093FF314601F079FE2846FFF7E2FF200A4A
:1016C000FFF7DFFFE0B2FFF7DCFF01F085FFBDE8C9
:1016D000704001F072BE10B5044601F07DFF214656
:1016E00001F063FE0020FFF7CCFF01F075FF01F071
:1016F00064FE01F071FF2146022201F053FEFFF764
:10170000CAFF0446FFF7C7FF40EA042080B210BDBD
:10171000002201700221828041708270704708B5FA
:1017200001F05AFFBDE8084001F008BE8180704713
:10173000032910B5044622D80229828808D003293B
:1017400009D0012914BF42F4834242F4A34204E0C9
:1017500042F4C34201E042F4E34242F0030242F4A5
:10176000004201212078FFF79EFF607800F0C0FF63
:101770002078FFF7B0FFA378184180B210BD002099
:1017800010BD00F0A7B930B41C461B681D68134695
:10179000AC460A460146204630BC60470EB400B550
:1017A0008CB00DAA52F8041B20238DE8060003928A
:1017B00004930168002304AA1E20059300F0D2FAC6
:1017C0000CB05DF804EB03B07047000070B50C4638
:1017D0008CB04C4904A815461E4600F0F3FCB4F545
:1017E000101F35D013DCB4F5901F28D005DC24B3CE
:1017F000B4F5881F36D1444922E0B4F5081F23D040
:10180000B4F50C1F22D0B4F5041F2BD117E0B4F5AA
:10181000401F21D007DCB4F5141F1BD0B4F5181FEE
:1018200020D13A490CE0B4F5A00F17D0B4F5C00FA1
:1018300016D0B4F5800F15D110E0354900E03549D8
:1018400004A800F011FD19E03349F9E73349F7E73F
:101850003349F5E73349F3E73349F1E73349EFE734
:101860003349EDE72246334908A800F085FD08A971
:1018700004A800F0F1FC08A800F05DFC3346049ACF
:101880002D492E48FFF78AFF1E4908A800F09AFC50
:101890002C46631B9E4227DD14F8013B0A2B0CD11A
:1018A000274908A800F01BFD08992448FFF776FF98
:1018B000144908A800F0D8FCEBE70D2B01D1214911
:1018C00009E0A3F120025E2A09D90A211E4A01A8D3
:1018D00000F05CFB01A908A800F001FDD9E719465A
:1018E00008A800F00BFDD4E70A9B1BB10899134828
:1018F000FFF754FF08A800F01EFC04A800F01BFC32
:101900000CB070BDB47A0808ED7608083677080880
:10191000E0760808F5760808007708080D770808CB
:101920001C7708082C7708084477080850770808BF
:101930005A770808677708087177080818040020A4
:1019400092770808957708089877080810B500F18D
:10195000300300F12C0204460949C06900F006FB7F
:10196000022809D1E36A622BDABF5B00713B0023D6
:10197000E3626FF0010301E06FF00203636010BDEA
:101980009F77080838B504466FF0020343600023D0
:101990000372074D074B294640F80C3B00F012FC40
:1019A000294604F11C0000F00DFC204638BD00BFA4
:1019B000B47A0808D07A080810B50446FFF7E2FFA9
:1019C0000C4B0D4923600023E362236304F10C00F8
:1019D00000F04AFC094B42F210722146084800F020
:1019E00089F96060023002D12046FFF7AFFF204640
:1019F00010BD00BFDC760808D7790808DB79080835
:101A0000871708082DE9F0410D461646591C1F4658
:101A1000AB68284619449DF81880344600F0A9FBAD
:101A2000A31B9F420DDDB8F1000F04D023780D2BCE
:101A300005D00A2B03D02178284600F05FFC013442
:101A4000EEE7BDE8F0810000F0B590F808E08BB05B
:101A500006460D4617461C46BEF1000F01D0FFF7A3
:101A6000B5FEB5F5800F2AD1601C00F05FFA05467F
:101A700028B32246394603F034FB00232B55F36884
:101A8000114A202102A800F081FA02A9284603F099
:101A90003BFB044680B102A803F006FB04440D2181
:101AA000204602F0B1FD012300932246031B06F1FC
:101AB0001C010648FFF7A6FF284600F03FFA4FF04A
:101AC000FF300BB0F0BD00BFC17A08080804002049
:101AD00000F000B808B5024B1B681B68019308BDF5
:101AE000B001040808B5024B1B689B68019308BD50
:101AF000B001040808B5024B1B68DB68019308BD00
:101B0000B001040808B5024B1B681B69019308BDAE
:101B1000B001040808B5024B1B68DB69019308BDDE
:101B2000B401040808B5024B1B681B6A019308BD89
:101B3000B401040808B5024B1B685B68019308BD3B
:101B40009C01040808B5024B1B685B69019308BD42
:101B50009C01040808B5024B1B68DB69019308BDB2
:101B60009C01040808B5024B1B689B6D019308BDDE
:101B70009C01040808B5024B1B689B6E019308BDCD
:101B8000B801040808B5024B1B685B6C019308BDE3
:101B9000D001040808B5024B1B689B6C019308BD7B
:101BA000D001040808B5024B1B689B69019308BD6E
:101BB000C401040808B5024B1B685B6A019308BDA9
:101BC000C401040808B5024B1B689B6A019308BD59
:101BD000C401040808B5024B1B68DB6A019308BD09
:101BE000C401040808B5024B1B681B6B019308BDB8
:101BF000C401040808B5024B1B685B6B019308BD68
:101C0000C401040808B5024B1B689B6B019308BD17
:101C1000C401040808B5024B1B681B6C019308BD86
:101C2000C401040808B5024B1B68DB68019308BDBA
:101C3000AC01040808B5024B1B689B69019308BD01
:101C4000AC01040808B5024B1B68DB69019308BDB1
:101C5000AC01040808B5024B1B681B6A019308BD60
:101C6000AC01040808B5024B1B685B6A019308BD10
:101C7000AC01040808B5024B1B689B6A019308BDC0
:101C8000AC01040808B5024B1B68DB6A019308BD70
:101C9000AC01040808B5024B1B681B6B019308BD1F
:101CA000AC01040808B5024B1B685B6B019308BDCF
:101CB000AC01040808B5024B1B681B6C019308BDFE
:101CC000AC01040808B5024B1B681B6D019308BDED
:101CD000AC01040808B5024B1B689B6A019308BD60
:101CE0002000060808B5024B1B68DB6B019308BD9A
:101CF0002000060808B5024B1B689B6C019308BDC9
:101D00002000060808B5024B1B681B68019308BD3C
:101D10001C00060808B5024B1B681B69019308BD2F
:101D20001C00060808B5024B1B685B69019308BDDF
:101D30001C00060808B5024B1B689B69019308BD8F
:101D40001C00060808B5024B1B68DB69019308BD3F
:101D50001C00060808B5024B1B681B6A019308BDEE
:101D60001C00060808B5024B1B685B6D019308BD9B
:101D7000A001020808B5024B1B681B68019308BD4F
:101D8000A401040808B5024B1B685B68019308BDF9
:101D9000A401040808B5024B1B685B69019308BDE8
:101DA000A401040808B5024B1B68DB6C019308BD55
:101DB000A401040808B5024B1B685B6D019308BDC4
:101DC000A401040808B5024B1B689B6D019308BD74
:101DD000A401040808B5034B1B68D3F890300193A5
:101DE00008BD0000A401040808B5034B1B68D3F824
:101DF0009C30019308BD0000A401040808B5024B03
:101E00001B685B68019308BDC801040808B5024B54
:101E10001B689B68019308BDC801040808B5024B04
:101E20001B68DB68019308BDC801040808B5024BB4
:101E30001B681B69019308BDC801040808B5024B63
:101E40001B685B69019308BDC801040808B5024B13
:101E50001B689B69019308BDC801040808B5024BC3
:101E60001B68DB69019308BDC801040808B5024B73
:101E70001B681B6A019308BDC801040808B5024B22
:101E80001B681B6B019308BDC801040808B5024B11
:101E90001B685B6B019308BDC801040808B5024BC1
:101EA0001B685B68019308BDCC01040808B5024BB0
:101EB0001B689B68019308BDCC01040808B5024B60
:101EC0001B68DB68019308BDCC01040808B5024B10
:101ED0001B685B69019308BDCC01040808B5024B7F
:101EE0001B681B6A019308BDCC01040808B5024BAE
:101EF0001B685B6A019308BDCC01040808B5024B5E
:101F00001B681B6B019308BDCC01040808B5024B8C
:101F10001B689B6B019308BDCC01040808B5024BFC
:101F20001B68DB6B019308BDCC01040808B5024BAC
:101F30001B681B68019308BDA001040808B5024B8B
:101F40001B685B68019308BDA001040808B5024B3B
:101F50001B689B68019308BDA001040808B5024BEB
:101F60001B681B69019308BDA001040808B5024B5A
:101F70001B685B69019308BDA001040808B5024B0A
:101F80001B689B69019308BDA001040808B5024BBA
:101F90001B68DB69019308BDA001040808B5024B6A
:101FA0001B681B6A019308BDA001040808B5024B19
:101FB0001B685B6A019308BDA001040808B5024BC9
:101FC0001B68DB6A019308BDA001040808B5024B39
:101FD0001B681B6B019308BDA001040810B5044BDE
:101FE00004460360C06808B1FFF7D4FD204610BD69
:101FF000DC7A080810B50446FFF7F0FF20461021F0
:1020000001F01EFB204610BD70B504460E46074B7E
:102010000025036040F80C5FFFF7B4FD30462671E1
:10202000FFF778FDA560204670BD00BFDC7A080888
:102030000079FFF777BD10B50446006818B1FFF7C7
:102040007DFF0023236010BD10B50446FFF7F3FFAA
:10205000204610BD014600228C20FFF78BBD0020DA
:10206000FFF7F8BF4FF6FF7310B5084C0020206053
:10207000A080A07120816381FFF784FE2046BDE827
:102080001040034A034901F0CDBA00BF0C04002000
:10209000000100204920080810B5044603F004F8A8
:1020A000013823182046984206D20278197800F8A1
:1020B000011B03F80129F6E710BD70B50C46911E0F
:1020C000222920D82546294610B9234430220EE083
:1020D000B0FBF2F602FB1600C1B2092805F8011B9D
:1020E00094BF3031573105F8011C3046EBE7994277
:1020F00002D201F8012BFAE7002320460B70FFF70C
:10210000CBFF204670BD002070BD38B5031E0C46C5
:1021100015460BDAB3F1004F4FF02D0214BF5842B1
:10212000184601230A702A46194400E00123FFF7EC
:10213000C4FF204638BD10B504460068FFF7FEFE18
:10214000204610BD10B50446006808B1FFF7F6FE42
:1021500000232360A360636010BD38B504460D46BC
:1021600000680131FFF7F2FE10B184E82100012080
:1021700038BD10B50368044613B143688B4207D2DB
:102180002046FFF7EAFF20B1A3680BB9226813705D
:10219000012010BD70B50E46114604461546FFF7E6
:1021A000E8FF18B92046FFF7CDFF09E02A4631467F
:1021B000A560206802F0ECF92268A3680021D154E0
:1021C000204670BD38B50023044603604360836039
:1021D00003730D4639B1084602F066FF29460246F0
:1021E0002046FFF7D7FF204638BD38B505460068C2
:1021F0000C4660B16A688B689A4206D3096802F09F
:102200001BFAA368AB6000230AE0FFF797FE236880
:102210002B6063686B60A368AB600023236063601E
:10222000A36038BD884210B50B46044607D0096844
:1022300019B19A68FFF7AEFF01E0FFF783FF204670
:1022400010BD10B504460023036043608360037330
:10225000FFF7E8FF204610BD884210B5044601D0C4
:10226000FFF7C3FF204610BD38B505460C4641B107
:10227000084602F019FF214602462846FFF78AFF6A
:1022800001E0FFF75FFF284638BD10B50446002384
:102290008AB023606360A3602373084601A9FFF737
:1022A00034FF01A92046FFF7DFFF20460AB010BD2A
:1022B00070B504460E4609B9002070BD6AB1836846
:1022C000D5182946FFF755FF0028F5D02068A368E8
:1022D0003146184402F0B0F9A560012070BD38B550
:1022E00005460C46084641B102F0DEFE2146024694
:1022F0002846BDE83840FFF7DBBF38BD07B50023EF
:102300008DF80410012201A98DF80530FFF7D0FFE8
:1023100003B05DF804FB10B58A6809680446FFF74E
:10232000C7FF10B92046FFF70DFF204610BD38B596
:1023300004460D4641B1084602F0B6FE2946024663
:102340002046FFF7B5FF10B92046FFF7FBFE2046F9
:1023500038BD08B582680B4612B919B9012008BD0D
:1023600011B90368187802E0006802F05BF9B0FA6E
:1023700080F0400908BD00000EB4FFB509AC54F868
:10238000047B054623463A46052102A80194FFF73F
:102390000DFE06460B492846FFF714FF3146284636
:1023A000FFF7E7FE286830B123463A46711C0194D6
:1023B000FFF7FCFDA860284604B0BDE8F04003B07C
:1023C000704700BFB47A0808F8B506460D468F1866
:1023D0000024BD420CD0336815F8011B9B683046C1
:1023E0009847002801DB0444F3E7002C08BF0446AB
:1023F0002046F8BD70B505460C46084649B102F0C6
:1024000053FE2B68024621462846BDE87040DB6833
:10241000184770BD03689B68184738B50D210546FD
:10242000FFF7F8FF0A2104462846FFF7F3FF204490
:1024300038BD012A98BF0A2230B50B468BB0002167
:102440008DF824100DF12304B3FBF2F505FB1233D4
:10245000DBB2092B94BF30333733DBB2214604F8AB
:1024600001392B46002DEFD1FFF7C4FF0BB030BD73
:102470000CB42DE9F04387B000AF07F1380454F8ED
:10248000049B05460E4623464A461421381D3C60EF
:10249000FFF78CFD132805D8391D2846FFF7AAFF42
:1024A000044613E000F1080323F00703E846ADEB10
:1024B000030D411C23464A4668463C60FFF776FD03
:1024C00069462846FFF796FF0446C5461EB12846D2
:1024D000FFF7A3FF044420461C37BD46BDE8F04388
:1024E00002B070470B68036013B15A6801325A603A
:1024F00070470000014A024B1A6070475A7B080877
:102500001804002008B50020FFF7F8FC28B1FFF7F9
:10251000DDFC80F00100C0B208BD012008BD000054
:1025200037B50E4B04461B6802A819440C4B1B68B8
:10253000194440F8041D01F02FFF01F0DFFE0546AD
:1025400002F0B2FD0023284400F8013C2946204651
:10255000FFF738FE204603B030BD00BF2404002042
:10256000200400202DE9F047A4B014AC07468946AA
:10257000204611463F221D4602F0B3FD00232046AF
:102580008DF88F3002F090FD804625B9244903A8CC
:1025900002F052F813E03C2195FBF1F2002AB8BF9B
:1025A000524292FBF1F301FB13224FF4616300925C
:1025B00095FBF3F31B4A102103A8FFF7E7FC254620
:1025C0002E1B08F1FF3AB2451BD92B78252B16D1CB
:1025D0006B787A2B13D103A802F066FD8046304455
:1025E000C6EB0A02A91C204401F0D2FF424603A90F
:1025F000284601F0CDFF204602F056FD8046013509
:10260000DEE74B462246322107A802F099F807A9D7
:102610003846FFF7D7FD384624B0BDE8F08700BF45
:1026200005820808B47B0808F7B5054601921C46E8
:1026300013B9124B1C682CB1114B2046196801F0DC
:10264000F1FF20B901992846FFF76AFF13E00D4F0B
:10265000019A3B680C4E1A44336802A8134440F8B0
:10266000043D01F099FE3A68336801461344284658
:102670002246FFF777FF284603B0F0BD1C04002078
:1026800010000020240400202004002010B50020A9
:10269000FFF768FA044668B9FFF76CFB01280BD115
:1026A0002046FFF78FFB38B9FFF72CFF30B9FFF753
:1026B000FDFBF9E7012010BD002010BDFFF722FF50
:1026C0000020FFF74FFA003018BF012010BD08B5F9
:1026D000FFF7DCFFBDE80840FFF73CBA024B1A6881
:1026E000024B1A60704700BF100000201C0400203D
:1026F0000021FFF74FBB10B58368044613B10322D6
:1027000001469847204610BD10B50446FFF7F3FF79
:10271000204610BD13B50B46044603C88DE80300E0
:1027200093E8030084E803009DE8030083E80300C6
:1027300002B010BD034800238360034A034900F040
:1027400071BF00BF2C0400200001002009270808E9
:1027500008B5184B33B100F041FC03681B6998477A
:1027600000281EDC144B33B100F056FD03681B69D2
:102770009847002818DC114B0BB1AFF30080104BC9
:102780000BB1AFF300800F4B0BB1AFF300800E4BDA
:102790007BB100F051FC03681B699847002806DCF8
:1027A00008BDAFF30080DDE7AFF30080E3E7AFF3F0
:1027B000008008BD000000000000000000000000D4
:1027C00000000000000000000000000008B5FFF756
:1027D000BFFFFFF7B7F9014B186008BDE004002008
:1027E0000248034A0349121A01F0D2BE00400240D7
:1027F000044002408083080807B5002300931A466E
:102800006FF07701FFF7F0FA03B05DF804FB00000A
:1028100007B543880A2B08D0502B09D1094B1B68F8
:102820003BB103B05DF804EB1847FFF7E5FF06E0A6
:10283000002300931A466FF07701FFF7D5FA03B033
:102840005DF804FB3C04002038B5104C104D2368A3
:10285000AB42104B0CBF012200221A7002D0FFF7CE
:10286000BFFF2560FFF766F9044601F0A5FE0A4B9D
:1028700013B12046AFF3008000210748FFF74EFB5D
:10288000BDE8384000210548FFF7A4BA00400240E7
:102890001E1C279A40040020000000001128080890
:1028A00070470020704710B50446102100F0C8FEA4
:1028B000204610BD08B508B1FFF7F5FF08BD00229E
:1028C00002604FF69C72828010B5B1F9044084809A
:1028D0008A8002680C6804600A6010BD10B5044666
:1028E0000068FFF72BFB204610BD38B5C468F4B173
:1028F0002378022B03D104F10C00FFF7EFFF65688A
:1029000035B12846FFF7F7FE1021284600F098FE63
:10291000A56835B12846FFF7EEFE1021284600F0E5
:102920008FFE2046BDE83840142100F089BE38BD36
:1029300010B588B004466846FFF744FC694604A811
:10294000FFF77FFC04A8A047044604A8FFF7F3FBA9
:102950006846FFF7F0FB204608B010BDF0B507460B
:102960000E46154685B0102422460021684601F027
:102970001AFE002269461046ADF800400297039601
:102980000195FFF78BFA05B0F0BD13B5044691E849
:10299000050000234B600B602060626001A801937A
:1029A0000093FDF7D8FB204602B010BDF7B50C46EA
:1029B00006460F4654F8043B02AD45F8083D214653
:1029C00001A8FFF78FFD29463046FFF7DEFF01A87B
:1029D000FDF7C1FB2046FDF7BEFB3846082100F09D
:1029E0002FFE304603B0F0BD38B500230446036027
:1029F00010200D46FDF753FB28B10123436083608F
:102A0000024BC56003602060204638BDE47B0808A7
:102A1000826810B50AB900F026FEC368BDE8104010
:102A2000184708B5006800F11001FFF7F1FF08BD75
:102A3000826810B50AB900F016FEC368BDE8104000
:102A4000184708B5006800F11001FFF7F1FF08BD55
:102A500038B5002383608B6804460D462BB10222F3
:102A60009847EB68E360AB68A360204638BD000080
:102A7000F0B589B004686846FFF721FF4FF0020205
:102A800000238DF80830D4E84F3F002B03D1C4E871
:102A9000412F0029F7D102D08DF8083063E014F1FE
:102AA0000C0503D069462846FFF709FFBFF35F8F87
:102AB00001236370BFF35F8F04F10803002053E824
:102AC000006F43E80002002AF9D1BFF35F8F002EA8
:102AD00049D0FFF767F920B129463046FFF798FF44
:102AE0003AE0314602A8FFF7B3FFE068B4F91050AE
:102AF00008B101F0A9FD06901020ADF81C50FDF7BB
:102B0000CEFA0546E8B1002787601820FDF7C7FA1E
:102B1000044688B10146876002A8FFF7FBFD049BCD
:102B2000A268A360059B0492E26806A9E36004F131
:102B300010000592FFF7C3FE0D4B2C60EB600D4BB0
:102B4000AB6006A8FFF7CAFE02A8FFF7D4FD00227B
:102B500029460948FFF72EF93046FFF7CCFD102132
:102B6000304600F06DFD6846FFF7B8FE09B0F0BDD5
:102B7000232A0808992C0808993208082DE9F04FF3
:102B80008BB006460F46904699469DF850A0FFF739
:102B90009DF907AD834630BB4FF62E73059005A90E
:102BA0002846ADF81830FFF78AFE1420FDF777FAB3
:102BB000044658B10223037001234370C0F804B0E7
:102BC000C0F808B029460C30FFF779FE30462146A0
:102BD00040F8044BFFF708FF2846FFF77FFE05A8E3
:102BE000FFF77CFE52E000240C2314206C60AC60E4
:102BF0000793FDF754FA014618B10470447044601D
:102C0000846004A80391FFF7EFFE224B082008938D
:102C1000FDF745FA044628B1039B04A940F8043B9C
:102C2000FFF760FC00955FFA8AF34A464146384652
:102C30000994FFF753F920B9039B5B7803F0FF0277
:102C400083B1039B04A906A80593FFF74BFC05A9D4
:102C50003046FFF79AFE06A8FDF77DFA04A8FDF7B7
:102C60007AFA13E04FF69C7305A903A80592ADF814
:102C70001830FFF7FDFE05A8FFF730FE05A80999FB
:102C8000FFF794FE06A8FDF766FADAE730460BB0C8
:102C9000BDE8F08F092E0808022AF8B5044606D0D0
:102CA000032A17D0012A22D10B6803601FE01820E5
:102CB0000E68FDF7F4F9054650B13146FFF7C8FE3E
:102CC0003069B6F9147008B101F0BEFC2861AF821A
:102CD00025600CE0046854B104F11000FFF7FEFD1C
:102CE0002046FFF708FD1821204600F0A9FC00202F
:102CF000F8BD38B5002383608B6804460D462BB1C0
:102D000002229847EB68E360AB68A360204638BDB9
:102D1000022A70B5044606D0032A11D0012A18D120
:102D20000B68036015E014200E68FDF7B8F905463E
:102D300020B13146FFF7DDFF337C2B74256008E0BE
:102D4000046834B12046FFF7D6FC1421204600F079
:102D500077FC002070BD0000F0B50C46BFF35F8F1C
:102D600087B0002350E8006F40E80032002AF9D114
:102D7000BFF35F8F002E3FD01846FFF713F80746CA
:102D800020B121463046FFF753FE2EE0314601A820
:102D9000FFF7AFFF237810208DF81430FDF77FF98F
:102DA0000546D0B187601420FDF779F9044678B163
:102DB0008760014601A8FFF7ADFC039BA268A360F2
:102DC000049B0392E268E3609DF81430049223743C
:102DD0000A4B2C60EB600A4BAB6001A8FFF78BFC41
:102DE000002229460748FEF7E5FF3046FFF783FC3F
:102DF0001021304600F024FC07B0F0BD432A08083B
:102E0000112D08089932080830B5044685B00D46E2
:102E100068461146FFF7CAFD7CB124B228460DB1C1
:102E200001F012FC029002A96846ADF80C40FFF7D1
:102E30001FFE02A8FFF752FD1DE04FF001020098AF
:102E40008DF80840D0E84F3FA34203D1C0E8412F9E
:102E50000029F7D102D08DF808300CE010F10C01F8
:102E60004FF0010318BF0373BFF35F8F043000F806
:102E7000033CFFF771FF01A8FDF76DF905B030BD08
:102E8000704710B50446082100F0DAFB204610BD5B
:102E9000F8B50F4600F10806051D002416F8011DBF
:102EA0000A223846FFF7C5FAAE42044407D0002C88
:102EB000F4D02E213846FFF7ADFA0444EEE7204661
:102EC000F8BD0000024A026000224260704700BF65
:102ED000007C0808024A02600A684260704700BF2E
:102EE000007C0808014A416002607047007C0808C5
:102EF00010B59DF8084044EA032343EA024242EA3F
:102F00000161416010BD000037B5044D05609DF8BA
:102F100018500095FFF7ECFF03B030BD007C0808A7
:102F200041747047704708B50021007CFEF702FF2E
:102F300030EA200028BF4FF0FF3008BD08B501215E
:102F4000007CFEF7F7FE30EA200028BF4FF0FF308C
:102F500008BD08B5007CFEF7E5FE20EAE07008BD7C
:102F600008B5007CFEF7D6FE20EAE07008BD007CC4
:102F7000FEF7F0BE10B50446142100F061FB2046B8
:102F800010BD38B50446007C0D46FEF7CBFE002888
:102F900001DC607C28B12946207CFEF7D3FE20EAC4
:102FA000E07038BD10B50446002363604FF47A73B7
:102FB000A360054B08462360012321746374114606
:102FC000FEF7A0FE204610BD147C080810B504468C
:102FD0001422002101F0E7FA204610BD30B50E4D55
:102FE00087B001A8FFF7F2FF296811F0010410D1A2
:102FF0002846FDF758F860B101AA21460748FFF7B7
:10300000D1FF2846FDF754F8054A0649034800F069
:1030100009FB024807B030BD440400204C040020E6
:1030200000010020252F080810B5044614220021B5
:1030300001F0B9FA204610BD10B50E4C86B001A8BB
:10304000FFF7F2FF2368DB0710D42046FDF72BF8CB
:1030500060B101AA01210848FFF7A4FF2046FDF74F
:1030600027F8064A0649044800F0DCFA024806B090
:1030700010BD00BF480400206004002000010020B3
:10308000252F0808002211464068FEF7CFBE2DE923
:10309000FF41002604AC054610468846174644F812
:1030A000046D02F001F8009681B2D8F8043022468F
:1030B0003846FEF717FE20B131462846FFF712FFCB
:1030C00003E021462846FFF705FF284604B0BDE887
:1030D000F081002211464068FEF7C8BE002211466A
:1030E0004068FEF7D3BE00224068FEF7C7BE00224C
:1030F00081F001014068FEF7B1BE00231A4619466F
:103100004068FEF7A3BE00231A4619464068FEF742
:1031100095BE002211464068FEF778BE00220221CB
:103120004068FEF77BBE00231A464068FEF766BE85
:1031300038B5084C28252A460021204601F033FAEC
:103140004FF0FF336360044B04225A60034A25802A
:103150001A6038BD7C04002074040020447C0808F8
:1031600070474174704708B5007CFEF753FD20EAB4
:10317000E07008BD08B5007CFEF724FD20EAE07091
:1031800008BD08B5007CFEF72DFD30EA200028BF01
:103190004FF0FF3008BD08B5007CFEF71BFD30EA9C
:1031A000200028BF4FF0FF3008BD007CFEF722BD95
:1031B00010B50446142100F043FA204610BD70B546
:1031C000457C04460E4625B9007CFEF723FD002809
:1031D00005DD3146207CBDE87040FEF7EBBC28469B
:1031E00070BD000010B5044608461146002262601A
:1031F0004FF47A72A260054A207422600122627440
:103200001A46FEF7CFFC204610BD00BF787C0808A8
:10321000007CFEF7F7BC0000F8B5194C25684DB9E5
:103220008420FCF73CFF064618B18422294601F0B1
:10323000BAF92660134D2E684EB98420FCF72FFF93
:10324000074618B18422314601F0ADF92F600E4FC8
:10325000396811F0010611D13846FCF724FF68B136
:10326000226831462B680948FFF7BCFF3846FCF757
:103270001FFF074A0749054800F0D4F90348F8BD85
:10328000C0040020B8040020BC040020A4040020D6
:10329000000100206131080810B5836804460BB9AD
:1032A00000F0E1F9C3689847A3681BB103222146E7
:1032B000204698472046BDE81040102100F0C0B9D4
:1032C0007047F8B5064615460C468F18BC4206D026
:1032D000336814F8011B9B6830469847F6E7284688
:1032E000F8BD0022007CFEF7B5BC0021007CFEF793
:1032F000B9BC0021007CFEF7BDBC0021007CFEF7BC
:10330000C1BC0021007CFEF7C5BC10B504461421E9
:1033100000F096F9204610BD10B504460023636006
:103320004FF47A73A360044B21740846236011465E
:10333000FEF7C0FC204610BDA87C080800231A46F2
:103340001946007CFEF76EBC70B50C46064686B08A
:1033500014252A46002101A801F025F9237800222E
:103360008DF80830636801A90393E368307C049307
:10337000237AADF804500593FEF7A4FC06B070BDA7
:103380001FB500338DF800104FF06401039118BF92
:103390000123694601928DF80830FFF7D5FF05B08B
:1033A0005DF804FB0123FFF7EBBF0022007CFEF772
:1033B00041BC0022007CFEF745BC0121FFF7F9BFAC
:1033C0000021007CFEF76EBC00231A464068FEF721
:1033D00015BD002202214068FEF720BD00221146E3
:1033E0004068FEF713BD002211464068FEF71EBD7F
:1033F00000231A4619464068FEF720BD00231A46EE
:1034000019464068FEF722BD002281F001014068A4
:10341000FEF724BD00224068FEF730BD00221146B1
:103420004068FEF733BD002211464068FEF71EBD1E
:10343000F0B5174687B0054604A8FFF743FD002600
:1034400006AC384644F80C6D01F02EFE0A4B00968F
:1034500081B25B6822463846FEF744FC20B1314613
:103460002846FFF73FFD03E021462846FFF732FDDF
:10347000284607B0F0BD00BF74040020024B034A89
:103480001A6000225A607047C4040020D07C0808EB
:1034900010B5044600F048F8FEF7CAFD28B1A4F1C3
:1034A0000D03022B01D8002010BD00F095F8FFF7A6
:1034B00087FF08B1012CF6D9FFF7AEFEFFF7A8FE93
:1034C00018B1A4F11203012BEDD92E2C8CBF0020D2
:1034D000012010BD2E2838B504460D460AD8FF2914
:1034E00008D0FFF7D5FF28B129462046BDE838406F
:1034F000FEF7F8BA38BD38B504460D46FEF7FAFABD
:10350000FF2810D0062804D84D2323FA00F0C30763
:1035100009D42046FFF7BCFF28B129462046BDE864
:103520003840FEF7EFBA38BD38B50B4D296811F0B9
:1035300001040FD12846FCF7B6FD58B121460748D3
:10354000FEF762FD2846FCF7B3FD054A054903482E
:1035500000F068F8014838BDDC040020CC040020ED
:1035600000010020DD1F080813B5084C00231A468F
:10357000194600932046FFF7C7FC2046044A054938
:1035800002B0BDE8104000F04DB800BFE4040020D8
:1035900000010020812E080870B5044614252A4633
:1035A000094E002100F0FFFF258020253146A5604F
:1035B0002561284600F046F831466060284600F054
:1035C00041F8E060204670BDFC7C080810B5044658
:1035D000FFF7E2FF204610BD30B50E4D87B02968D9
:1035E00011F0010413D12846FCF75DFD78B101A864
:1035F000FFF7ECFF01AA21460748FFF78DFE28469A
:10360000FCF756FD054A0649034800F00BF802484E
:1036100007B030BDEC040020F004002000010020C1
:10362000C13208080B460146184600F0A7BE00004C
:10363000024B1868BFF35F8F704700BF040500207E
:10364000FCF72FBD00F000B810B5002814BF0446E9
:1036500001242046FEF76AFC20B9FFF7E9FF08B114
:103660008047F6E710BD08B5FEF7A8FC184B1A68AE
:10367000D1075CBF01221A60164B1A68D2075CBFE3
:1036800001221A60144B1A68D0075CBF01221A602D
:10369000124B1A68D1075CBF01221A60104B1A68DE
:1036A000D2075CBF01221A600E4B1A68D0075CBFBC
:1036B00001221A600C4B1A68D1075CBF01221A6004
:1036C0000A4B1A68D2075CBF01221A60704700BF1C
:1036D00024050020200500201C05002018050020DE
:1036E00014050020100500200C050020080500200E
:1036F000244B1A68D0075CBF01221A60224B1A685B
:10370000D1075CBF01221A60204B1A68D2075CBF48
:1037100001221A601E4B1A68D0075CBF01221A6092
:103720001C4B1A68D1075CBF01221A601A4B1A6839
:10373000D2075CBF01221A60184B1A68D0075CBF21
:1037400001221A60164B1A68D1075CBF01221A6069
:10375000144B1A68D2075CBF01221A60124B1A6818
:10376000D0075CBF01221A60104B1A68D1075CBFFA
:1037700001221A600E4B1A68D2075CBF01221A6040
:10378000704700BF54050020500500204C05002064
:103790004805002044050020400500203C0500208D
:1037A0003805002034050020300500202C050020BD
:1037B00028050020244B1A68D0075CBF01221A603C
:1037C000224B1A68D1075CBF01221A60204B1A688D
:1037D000D2075CBF01221A601E4B1A68D0075CBF7B
:1037E00001221A601C4B1A68D1075CBF01221A60C3
:1037F0001A4B1A68D2075CBF01221A60184B1A686C
:10380000D0075CBF01221A60164B1A68D1075CBF53
:1038100001221A60144B1A68D2075CBF01221A6099
:10382000124B1A68D0075CBF01221A60104B1A684D
:10383000D1075CBF01221A600E4B1A68D2075CBF29
:1038400001221A60704700BF840500208005002017
:103850007C050020780500207405002070050020FC
:103860006C0500206805002064050020600500202C
:103870005C05002058050020184B1A68D1075CBF72
:1038800001221A60164B1A68D2075CBF01221A6027
:10389000144B1A68D0075CBF01221A60124B1A68D9
:1038A000D1075CBF01221A60104B1A68D2075CBFB7
:1038B00001221A600E4B1A68D0075CBF01221A6001
:1038C0000C4B1A68D1075CBF01221A600A4B1A68B8
:1038D000D2075CBF01221A60704700BFA405002018
:1038E000A00500209C0500209805002094050020DC
:1038F000900500208C0500208805002081F0004103
:1039000002E000BF83F0004330B54FEA41044FEAC4
:10391000430594EA050F08BF90EA020F1FBF54EA5F
:10392000000C55EA020C7FEA645C7FEA655C00F0FB
:10393000E2804FEA5454D4EB5555B8BF6D420CDDCC
:103940002C4480EA020281EA030382EA000083EA4F
:10395000010180EA020281EA0303362D88BF30BDEF
:1039600011F0004F4FEA01314FF4801C4CEA113145
:1039700002D0404261EB410113F0004F4FEA0333A4
:103980004CEA133302D0524263EB430394EA050F2F
:1039900000F0A780A4F10104D5F1200E0DDB02FA9E
:1039A0000EFC22FA05F2801841F1000103FA0EF232
:1039B000801843FA05F359410EE0A5F120050EF1F8
:1039C000200E012A03FA0EFC28BF4CF0020C43FA29
:1039D00005F3C01851EBE37101F0004507D54FF036
:1039E000000EDCF1000C7EEB00006EEB0101B1F586
:1039F000801F1BD3B1F5001F0CD349085FEA3000CC
:103A00004FEA3C0C04F101044FEA445212F5800FD6
:103A100080F09A80BCF1004F08BF5FEA500C50F173
:103A2000000041EB045141EA050130BD5FEA4C0C56
:103A3000404141EB010111F4801FA4F10104E9D1DF
:103A400091F0000F04BF01460020B1FA81F308BFD6
:103A50002033A3F10B03B3F120020CDA0C3208DDA2
:103A600002F1140CC2F10C0201FA0CF021FA02F17D
:103A70000CE002F11402D8BFC2F1200C01FA02F1ED
:103A800020FA0CFCDCBF41EA0C019040E41AA2BF12
:103A900001EB0451294330BD6FEA04041F3C1CDADA
:103AA0000C340EDC04F11404C4F1200220FA04F0FA
:103AB00001FA02F340EA030021FA04F345EA0301A4
:103AC00030BDC4F10C04C4F1200220FA02F001FA66
:103AD00004F340EA0300294630BD21FA04F02946E8
:103AE00030BD94F0000F83F4801306BF81F4801181
:103AF0000134013D4EE77FEA645C18BF7FEA655CF4
:103B000029D094EA050F08BF90EA020F05D054EAC5
:103B1000000C04BF1946104630BD91EA030F1EBFCA
:103B20000021002030BD5FEA545C05D140004941CE
:103B300028BF41F0004130BD14F580043CBF01F5C1
:103B4000801130BD01F0004545F0FE4141F47001A7
:103B50004FF0000030BD7FEA645C1ABF1946104682
:103B60007FEA655C1CBF0B46024650EA013406BF83
:103B700052EA033591EA030F41F4002130BD00BF42
:103B800090F0000F04BF0021704730B54FF48064FF
:103B900004F132044FF000054FF0000150E700BF80
:103BA00090F0000F04BF0021704730B54FF48064DF
:103BB00004F1320410F0004548BF40424FF00001CC
:103BC0003EE700BF42004FEAE2014FEA31014FEA0F
:103BD00002701FBF12F07F4393F07F4F81F060515E
:103BE000704792F0000F14BF93F07F4F704730B5CD
:103BF0004FF4607401F0004521F0004120E700BF60
:103C000050EA010208BF704730B54FF000050AE0E6
:103C100050EA010208BF704730B511F0004502D5E7
:103C2000404261EB41014FF4806404F132045FEAE9
:103C3000915C3FF4DCAE4FF003025FEADC0C18BF8E
:103C400003325FEADC0C18BF033202EBDC02C2F184
:103C5000200300FA03FC20FA02F001FA03FE40EA16
:103C60000E0021FA02F11444C1E600BF70B54FF016
:103C7000FF0C4CF4E06C1CEA11541DBF1CEA1355F8
:103C800094EA0C0F95EA0C0F00F0DEF82C4481EA60
:103C9000030621EA4C5123EA4C5350EA013518BF80
:103CA00052EA033541F4801143F4801338D0A0FB6D
:103CB00002CE4FF00005E1FB02E506F00042E0FB1A
:103CC00003E54FF00006E1FB03569CF0000F18BF20
:103CD0004EF0010EA4F1FF04B6F5007F64F54074C8
:103CE00004D25FEA4E0E6D4146EB060642EAC6215B
:103CF00041EA55514FEAC52040EA5E504FEACE2EC8
:103D0000B4F1FD0C88BFBCF5E06F1ED8BEF1004FCA
:103D100008BF5FEA500E50F1000041EB045170BD46
:103D200006F0004646EA010140EA020081EA03018A
:103D3000B4EB5C04C2BFD4EB0C0541EA045170BD86
:103D400041F480114FF0000E013C00F3AB8014F100
:103D5000360FDEBF002001F0004170BDC4F1000449
:103D6000203C35DA0C341BDC04F11404C4F12005CA
:103D700000FA05F320FA04F001FA05F240EA020025
:103D800001F0004221F0004110EBD37021FA04F65B
:103D900042EB06015EEA430E08BF20EAD37070BD15
:103DA000C4F10C04C4F1200500FA04F320FA05F074
:103DB00001FA04F240EA020001F0004110EBD37076
:103DC00041F100015EEA430E08BF20EAD37070BDE6
:103DD000C4F1200500FA05F24EEA020E20FA04F3BF
:103DE00001FA05F243EA020321FA04F001F000416E
:103DF00021FA04F220EA020000EBD3705EEA430EDF
:103E000008BF20EAD37070BD94F0000F0FD101F00D
:103E10000046400041EB010111F4801F08BF013C46
:103E2000F7D041EA060195F0000F18BF704703F084
:103E30000046520043EB030313F4801F08BF013D0B
:103E4000F7D043EA0603704794EA0C0F0CEA1355C7
:103E500018BF95EA0C0F0CD050EA410618BF52EA81
:103E60004306D1D181EA030101F000414FF0000087
:103E700070BD50EA410606BF1046194652EA430695
:103E800019D094EA0C0F02D150EA013613D195EA09
:103E90000C0F05D152EA03361CBF104619460AD151
:103EA00081EA030101F0004141F0FE4141F470015B
:103EB0004FF0000070BD41F0FE4141F4780170BD4B
:103EC00070B54FF0FF0C4CF4E06C1CEA11541DBFB0
:103ED0001CEA135594EA0C0F95EA0C0F00F0A7F8B2
:103EE000A4EB050481EA030E52EA03354FEA0131DF
:103EF00000F088804FEA03334FF0805545EA1313F2
:103F000043EA12634FEA022245EA111545EA1065B9
:103F10004FEA00260EF000419D4208BF964244F150
:103F2000FD0404F5407402D25B084FEA3202B61A6F
:103F300065EB03055B084FEA32024FF480104FF443
:103F4000002CB6EB020E75EB030E22BFB61A7546B7
:103F500040EA0C005B084FEA3202B6EB020E75EB4A
:103F6000030E22BFB61A754640EA5C005B084FEAB2
:103F70003202B6EB020E75EB030E22BFB61A75467F
:103F800040EA9C005B084FEA3202B6EB020E75EB8A
:103F9000030E22BFB61A754640EADC0055EA060E4B
:103FA00018D04FEA051545EA16754FEA06164FEA8E
:103FB000C30343EA52734FEAC2025FEA1C1CC0D13A
:103FC00011F4801F0BD141EA00014FF000004FF0C7
:103FD000004CB6E711F4801F04BF01430020B4F188
:103FE000FD0C88BFBCF5E06F3FF6AFAEB5EB030C40
:103FF00004BFB6EB020C5FEA500C50F1000041EB3D
:10400000045170BD0EF0004E4EEA113114EB5C0409
:10401000C2BFD4EB0C0541EA045170BD41F48011DC
:104020004FF0000E013C90E645EA060E8DE60CEAE4
:10403000135594EA0C0F08BF95EA0C0F3FF43BAF01
:1040400094EA0C0F0AD150EA01347FF434AF95EAB8
:104050000C0F7FF425AF104619462CE795EA0C0F9C
:1040600006D152EA03353FF4FDAE1046194622E769
:1040700050EA410618BF52EA43067FF4C5AE50EA43
:1040800041047FF40DAF52EA43057FF4EBAE12E733
:104090004FF0FF3C06E000BF4FF0010C02E000BF14
:1040A0004FF0010C4DF804CD4FEA410C7FEA6C5CF7
:1040B0004FEA430C18BF7FEA6C5C1BD001B050EA9A
:1040C000410C0CBF52EA430C91EA030F02BF90EA85
:1040D000020F0020704710F1000F91EA030F58BF44
:1040E000994208BF90422CBFD8176FEAE37040F0A6
:1040F000010070474FEA410C7FEA6C5C02D150EA44
:10410000013C07D14FEA430C7FEA6C5CD6D152EAFE
:10411000033CD3D05DF8040B704700BF84461046C3
:1041200062468C461946634600E000BF01B5FFF7C2
:10413000B7FF002848BF10F1000F01BD4DF808ED92
:10414000FFF7F4FF0CBF012000205DF808FB00BF63
:104150004DF808EDFFF7EAFF34BF012000205DF8BD
:1041600008FB00BF4DF808EDFFF7E0FF94BF01200A
:1041700000205DF808FB00BF4DF808EDFFF7CEFF0B
:1041800094BF012000205DF808FB00BF4DF808ED4A
:10419000FFF7C4FF34BF012000205DF808FB00BF1B
:1041A0004FEA410C7FEA6C5C02D150EA013C0AD133
:1041B0004FEA430C7FEA6C5C02D152EA033C02D125
:1041C0004FF0000070474FF0010070474FEA410286
:1041D00012F5001215D211D56FF47873B3EB625259
:1041E00012D94FEAC12343F0004343EA505311F080
:1041F000004F23FA02F018BF404270474FF0000012
:10420000704750EA013005D111F0004008BF6FF04F
:10421000004070474FF00000704700BF4A0011D2C5
:1042200012F5001211D20DD56FF47873B3EB625210
:104230000ED44FEAC12343F0004343EA505323FA1C
:1042400002F070474FF00000704750EA013002D191
:104250004FF0FF3070474FF0000070474FEA4102C7
:10426000B2F1E04324BFB3F5001CDCF1FE5C0DD9D4
:1042700001F0004C4FEAC0024CEA5070B2F1004F1E
:1042800040EB830008BF20F00100704711F0804F21
:1042900021D113F13872BCBF01F00040704741F4E6
:1042A00080114FEA5252C2F11802C2F1200C10FAEA
:1042B0000CF320FA02F018BF40F001004FEAC123CE
:1042C0004FEAD32303FA0CFC40EA0C0023FA02F372
:1042D0004FEA4303CCE77FEA625307D150EA013348
:1042E0001EBF4FF0FE4040F44000704701F0004018
:1042F00040F0FE4040F40000704700BF094B70B52D
:104300001C680646256C3DB91A20FDF70FFE1A22DF
:104310002064294600F047F9216C3046BDE8704022
:1043200000F002B87800002010B50C46416986B054
:1043300001F26C71036982690491016803EB430324
:104340000391416802EB4202029181680191C168C8
:104350002046009104490B4404490A440449FDF7EE
:10436000FDFD204606B010BD127D0808FD7C080842
:10437000367D08080A22002101F0A2BD10B5054CC7
:1043800013462CB10A4601460220AFF3008010BD4F
:10439000204610BD0000000038B5074B05461C68DC
:1043A000E36B1BB92420FDF7C1FDE063E16B2846F8
:1043B000BDE8384000F002B8780000202DE9F04157
:1043C0000C46804602F0B4FB21460746404602F008
:1043D000B3FB4669044606F26C76B30705D1642246
:1043E00096FBF2F302FB13634BB94FF4C87596FBCF
:1043F000F5F305FB1365B5FA85F35B0900E00123CE
:104400005F4A302505FB032501F0A4FE01F0A4FE60
:104410005C4B1B68F3B17B689E4205D13968D8F8C4
:104420000030FA6941B90AE0304601F0EBFD00289E
:10443000F4D14FF0FF330DE0934208DB01E09342EB
:1044400007DABA6B9342ACBF0023012302E00023DA
:1044500000E001232362236A3C20012B0CBFF96B8F
:10446000396A4FF4616391FBF3F603FB161393FB78
:10447000F0F200FB123061682368891AA2681B1AE7
:10448000921B3B2B23606160A26003DD0131616000
:104490003C3B04E0002B03DA013961603C332360CC
:1044A00063683B2B03DD0132A2603C3B04E0002B40
:1044B00003DA013AA2603C336360A368172B22DD64
:1044C000E269183B0132E261A269A3600132062A67
:1044D000C8BF0022A261E26823690132E26055F898
:1044E00023108A4246DD01330C2B08BF6369A2EB1F
:1044F0000102E26005BF013300222361226104BF93
:104500006361E26136E0002B34DAE2691833013A84
:10451000E261A269A360013A48BF0622A261E26893
:10452000013AE26032BB2369013B01D423611DE003
:104530000B23236163695A1E12F0030F626103F2B9
:104540006B7305D1642193FBF1F201FB12324AB97E
:104550004FF4C87193FBF1F201FB1233B3FA83F30A
:104560005B0900E0012303F5B673E361236955F8A5
:104570002330E36001F0EFFD2046BDE8F08100BF8D
:10458000C07E0808C4060020004870477C00002058
:1045900010B5431E0A44914204D011F8014B03F8B0
:1045A000014FF8E710BD03460244934202D003F8DE
:1045B000011BFAE77047000038B5124B05461C682E
:1045C000A36BD3B91820FDF7B1FC43F20E33A063FF
:1045D00003804AF6CD33438041F2342383804EF288
:1045E0006D63C3804DF6EC630381052343810B2388
:1045F000838101220023C0E90423A36B00221D61F3
:104600005A6138BD78000020C9B2034610F8012B6A
:104610001AB19142F9D11846704700290CBF1846CB
:104620000020704710F8012B11F8013B012A28BF28
:104630009A42F7D0D01A7047034611F8012B03F8BD
:10464000012B002AF9D17047024B0146186800F08F
:1046500003B800BF7800002070B5064608460C4637
:1046600000F022FD451C29463046FDF7AFFC06460A
:1046700018B12A462146FFF78BFF304670BD4169CD
:1046800010B58B070CD140F26C730029A8BF6FF0F6
:1046900063030B44642493FBF4F204FB123383B9E9
:1046A00040F26C730029A8BF6FF063034FF4C87227
:1046B0000B4493FBF2F102FB1133B3FA83F252097C
:1046C00000E001228369C1695B0003EB011313441D
:1046D000212B0EDC202B2FDA0D2B02DC0A2B05DB25
:1046E0002AE0102B26DB112B26DD1C3B012B23D9C6
:1046F00020E041F2C66293420EDC41F2C262934274
:1047000016DA41F2A262934212D013DBA3F5B5533D
:10471000123B022B0CD90DE041F2D562934207D037
:1047200041F2D762934203D041F2D362934201D166
:10473000012010BD002010BD4FF0FF3010BD000063
:104740002DE9F04F0E4693B01D460746914601F005
:1047500049FC002306931C46731E0390029399F8AC
:104760000030002B00F09284252B08D0029A94424E
:1047700080F090843B5509F101090134EFE799F885
:1047800001A0BAF1300F07D0BAF12B0F04D009F114
:1047900001094FF0000A01E009F1020999F800301F
:1047A000313B082B08D848460A220AA901F010FC20
:1047B000DDF82890804601E04FF0000899F80030BD
:1047C000452B01D04F2B01D109F1010999F80000C7
:1047D000A0F12503552B00F25D84DFE813F04A04B5
:1047E0005B045B045B045B045B045B045B045B04D1
:1047F0005B045B045B045B045B045B045B045B04C1
:104800005B045B045B045B045B045B045B045B04B0
:104810005B045B045B046F00A100D4001A015B041D
:104820003F01A00126022D025B045B045B046002D1
:104830005B045B0468025B0496021C0324033A03D6
:1048400042038503C6009F031F045B045B045B04F3
:104850005B045B045B0456008900BA000C010C0188
:104860005B04710189005B043D0226022D025D029A
:1048700062025B0468025B04BE009B021E032D0300
:104880005B047E03C2009103E703AB69039A18330C
:1048900052F82380404600F007FC08F1FF383B192E
:1048A0002044844200F0EB83029A944280F0F28329
:1048B00018F8012F013403F8012BF2E7AB69039AD2
:1048C00002EB8303D3F87C80404600F0EDFB08F157
:1048D000FF383B192044844200F0D183029A94426D
:1048E00080F0D88318F8012F013403F8012BF2E788
:1048F0002B69039A52F82380404600F0D5FB08F15B
:10490000FF383B192044844200F0B983029A944254
:1049100080F0C08318F8012F013403F8012BF2E76F
:104920002B69039A0C3352F82380404600F0BCFBFD
:1049300008F1FF383B192044844200F0A083029A1A
:10494000944280F0A78318F8012F013403F8012B5B
:10495000F2E7039BD3F8A0800AE0039BD3F8E4803E
:1049600006E0039BD3F89C8002E0039BD3F8988079
:10497000404600F099FB98F80030002B00F07F8350
:104980002B46424693E0B649D5F814B08B45ACBFF0
:1049900000210121BBF1000F04DB64209BFBF0F040
:1049A000133008E00BF26C70079101F05BFD64239B
:1049B00090FBF3F00799BAF1000F08D0632809DDE6
:1049C000A84BA94ABAF12B0F18BF134603E0A64B18
:1049D000A64A01E0A44BA64AB8F1010F98BF4FF0D8
:1049E0000208C1EB0801019000919D48A14983454F
:1049F000B8BF0B461DE2A04AA049EB68642808BF77
:104A00000A46311B3819FDF7C9FA002880F20283E3
:104A100040E368692B69002803F1010B07EB0408E8
:104A2000C4EB060AEB6805DB642290FBF2F102FBA3
:104A300011000AE000F26C70079301F013FD64228C
:104A400090FBF2F101FB1200079B0190009351468D
:104A50005B4640468A4AFDF7A1FAD6E725238DF842
:104A60002830BAF1000F07D0B8F1050F8DF829A052
:104A700098BF4FF0060804E02B238DF829304FF043
:104A80000A08B8F1060302D10DF12A000AE07D4AB6
:104A90001E210DF12A00FDF781FA0028F4DD0DF149
:104AA0002A0318447849FFF7C7FD2B460AAA311B91
:104AB0003819FFF745FE002840F3EC820444DEE29B
:104AC0002846FFF7DCFD80466869002805DB642284
:104AD00090FBF2F102FB110008E000F26C7001F0B3
:104AE000C1FC642290FBF2F303FB1200B8F1000F4B
:104AF00006DA6A69654B9A42B8BF4FF0010806E0D2
:104B000005D06A69564B9A42B8BF4FF0FF3864230C
:104B1000404490FBF3F203FB12001844F8E1504BC1
:104B2000696928469942ACBF002301230891079385
:104B3000FFF7A5FD08998346002904DB642391FB58
:104B4000F3F3133308E001F26C70089101F08AFC72
:104B5000642390FBF3F308996869002806DB4FF0A3
:104B6000640E90FBFEFC0EFB1C000DE000F26C706E
:104B70000991089301F076FC4FF0640E90FBFEFC67
:104B80000CFB1E000999089BBBF1000F08DA69694C
:104B90003E4A91420ADA4FF0010BCDF81CB005E015
:104BA00004D02F4A9142B8BF4FF0FF3B0BEB0002FD
:104BB000501C02D1013B632203E0642A04BF01338D
:104BC0000022642000FB0323079A42B12D228DF8B6
:104BD0002820B8F1000F13D008F1FF3810E0BAF127
:104BE0002B0F10D142F20F7293420CD98DF828A0EE
:104BF000B8F1000FF0D112AA252102F81F1D0AE01A
:104C00000DF1290200E00AAA25211170BAF1000F66
:104C100001D1501C02E03021901C51701C490793B7
:104C2000FFF70AFD079B0093ACE1144A1249AB68F9
:104C30006B2808BF0A46E4E6A9680C2331B1994203
:104C400016BF91FBF3F20B4603FB12130A4A0B4902
:104C5000492808BF0A46D4E6EB690E4A0133D0E67C
:104C600094F8FFFF2F7F0808B47A0808207F08080F
:104C7000277F0808317F0808337F0808417F08082C
:104C8000377F08089C760808467F080895F8FFFFDC
:104C90004E7F0808527F08082B6901333CE16B689E
:104CA0003AE1029B9C4280F0F5810A23E5E1AB6882
:104CB000039A0B2BCCBFA423A0231344D3F8048066
:104CC000404600F0F1F94246B14B3919D3F800E003
:104CD0002044844200F0D381029B9C4280F0DA8120
:104CE00099F800300134502B13780AD10EEB030CE5
:104CF0009CF801C00CF0030CBCF1010F08BF20337D
:104D0000DBB201F8013B0132E3E76B68A14A009393
:104D1000AB6839E12B6A002B17DB01F01BFA069B0D
:104D20001BB901F019FA0123069301F001FF2B6A68
:104D30001C22002BD4BF0023012302FB0300036AC3
:104D4000C3F1000801F007FA01E04FF00008D5F8C0
:104D500014E0C4EB060C7046BEF145024FEAE07168
:104D600041F1FF33002A73F1000B07EB040A03DA69
:104D7000BEF1420241F1FF33910841EA83719B1079
:104D8000049105930EF1FF31642391FBF3F1DDE90A
:104D90000423521A63EBE1730EF22B104FF4C87127
:104DA00090FBF1F1521843EBE17340F26D11AEF15B
:104DB000460E01FB0EFEE96912EB0E0243EBEE73A9
:104DC00052184FF0180E43EBE173A2FB0E010EFBDD
:104DD0000311AB684FF03C0EC01841EBE371A0FB30
:104DE0000E230EFB01336968521843EBE173A2FBFB
:104DF0000E010EFB03112B68674AC01841EBE371EB
:104E0000B0EB080061EBE871CDE900016146504666
:104E1000FDF7C4F8F9E52B687EE0029B9C4280F028
:104E20003981092329E12B685C4A01936B6800935F
:104E3000AB68311B38190EE6029B9C4280F02A8138
:104E4000AB69621C0BB9372300E030333B55144685
:104E500015E1EB69AA6907339B1A072293FBF2F36A
:104E60005AE02846FFF70BFCAA690AB1531E00E07E
:104E7000062300282FDCEA6901D10A323BE040F228
:104E80006B719A1A6B69002BB4BF08466FF064000F
:104E90001844810707D14FF0640E014690FBFEF0E5
:104EA0000EFB101181B940F26B71002BA8BF6FF09F
:104EB000640119444FF4C87391FBF3F003FB101124
:104EC000B1FA81F1490900E00121521A052AB4BF63
:104ED0003523342320E001231EE0029B9C4280F016
:104EE000D980AB693033C8E0AA690AB1531E00E02B
:104EF0000623EA690732D21A072392FBF3F30BE089
:104F00006869002803DA00F26C7001F0ABFA6423E0
:104F100090FBF3F202FB1303214A72E56B69214A0D
:104F200003F26C7B934205DA2D238DF82830CBF108
:104F3000000B08E0BAF12B0F0DD142F20F739B4525
:104F400011D98DF828A0B8F1000F01D008F1FF3871
:104F50000DF1290300E00AAB25221A70BAF1000F07
:104F600008D1581C09E0B8F1000FF4D125238DF8C1
:104F700028300AAB3022981C5A700B49FFF75CFBB3
:104F8000CDF800B043460AAA311B38193FE000BFF4
:104F900014000020617F0808577F08085C7F08081C
:104FA000417F080894F8FFFF4E7F08082B6A002B0A
:104FB00065DB01F0CFF8069B1BB901F0CDF80123AA
:104FC000069301F0B5FD2B6A1C22002BD4BF0023F1
:104FD000012302FB0300036A07EB040AC3F1000884
:104FE00001F0B9F83C2398FBF3F0079301F03AFE87
:104FF000079BC4EB060B90FBF3F202FB13004FF48C
:105000006163009098FBF3F359465046244AFCF73D
:10501000C5FFFAE40444A64231D83BE02B6A002BDA
:105020002DDB01F097F8069B1BB901F095F80123E1
:1050300006932B6A1B4A002BD4BF0023012352F88E
:105040002380404600F030F808F1FF383B19204437
:1050500084420BD0029A944205D218F8012F0134F1
:1050600003F8012BF4E701F076F813E001F073F890
:1050700005E0029B9C420DD225233B55013499F853
:1050800000301BB109F10109FFF769BB26B100230C
:105090003B5501E0002000E0204613B0BDE8F08F52
:1050A0006B7F0808B4000020034613F8012B002A88
:1050B000FBD1181A0138704730B582B1451E01394D
:1050C00015F8013F11F8014FA34206D1EC431444F7
:1050D000E04201D0002BF3D11C46181B30BD104616
:1050E00030BD034610B542B111F8014B013A03F847
:1050F000014B002CF7D11A4400E010BD934202D0BE
:1051000003F8014BFAE710BDF0B5037863B90B78EB
:10511000002B18BF0020F0BD15F8012F62B114F864
:10512000017F30469742F7D00346461C007810B105
:105130004D1E5C1EF0E7F0BD1846F0BD2DE9F041B4
:105140000F46904602F058F804460D46B8F1000F9D
:1051500011D0C7F30A53C3F16B03002B0BDD1B0502
:1051600003F17F55002405F5401522462B46FEF736
:105170007DFDBDE8F08120462946BDE8F0810000B4
:105180002DE9F04F82460C469DB0002313921893F0
:105190004FF000084FF000091791179B1A780D2A5D
:1051A00005D8092A13D2002A00F0AD8112E02B2A7B
:1051B00004D02D2A04D0202A0CD108E0002200E0DF
:1051C00001220C925A1C17925B782BB99BE1013398
:1051D0001793E2E700230C93179D2B78302B5CD1BB
:1051E0006B78582B01D0782B4CD10C9BA84A01939B
:1051F00018AB009317A919AB504601F082F910F0D3
:105200000706044600F08585062E05D101350023EA
:1052100017950C9300F07DBD189A3AB135211AA864
:1052200002F0D1F81899504601F055FD062E22D80B
:10523000DFE806F0040D08181D0D04004FF000090A
:10524000C84618E0DDF86880DDF86C9013E01B9B21
:10525000199A23F4801302F23342DDF8688043EA9E
:10526000025908E0DFF82C924FF0000803E06FF0DD
:1052700000494FF0FF38210740F14B8549F00049C4
:1052800000F047BD179B5A1C17925B78302BF9D062
:10529000002B00F03E85012300E000230593179BBF
:1052A0000A22069300239B4602930493179D2E78AF
:1052B000A6F13003D9B2092911D8BBF1080FD5BF27
:1052C0000499029902FB013302FB013305F1010548
:1052D000D4BF049302930BF1010B1795E6E75046F8
:1052E000FFF752F907685046FFF74EF90068FFF7DD
:1052F000DBFE394602462846FFF7DEFE074628B1A8
:10530000002033465D46024601465AE05046FFF70C
:105310003BF90068FFF7C8FE179B1A1817921B5C31
:10532000BBF1000F45D15846302B05D1179B0130FA
:105330005A1C17925B78F7E7A3F13102082A46D886
:10534000179A0692024600200546303B00F1010103
:1053500029D00A44294605EB000C0A2661450FD0E6
:10536000013101F1FF3EBEF1080F03DC049F7743DA
:105370000497F3E71029DEBF029F77430297EDE71A
:105380002844082800F1010505DC04980A2101FBE6
:105390000033049306E0102DDFBF02980A2101FBC1
:1053A000003302930021179B581C17905B78084626
:1053B00002E05D4638463A46A3F130010929C4D9D6
:1053C0000121652B01D0452B4FD16DB904E0652B30
:1053D00040F0AD840022012128B9059B002B00F08C
:1053E0009280054600E00025179C631C17936378A4
:1053F0002B2B06D02D2B02D00026039606E001238E
:1054000000E000230393A31C1793A378A3F13006B5
:10541000092E29D8302B04D1179B5E1C17965B7878
:10542000F8E7A3F13106082E1FD8A3F1300E179B21
:105430001F46179B5E1C17965B78A3F1300CBCF1DE
:10544000090F05D80A2606FB0E3EAEF1300EF0E736
:10545000F61B082E44F61F6602DC7645A8BF76468A
:10546000039F1FB1764201E017940026002D52D110
:10547000002840F04E84059A002A40F04A84002912
:1054800041D14E2B20D007DC492B0AD03BE000BF96
:10549000787F08080000F07F692B02D06E2B13D0B4
:1054A00031E0AA4917A801F05DFA60B3179BA8493B
:1054B000013B17A8179301F055FA10B9179B013358
:1054C0001793DFF8A8921AE0A24917A801F04AFA48
:1054D000C8B1179B1B78282B0FD11AAA9E4917A871
:1054E00001F053FA052808D11B9BDDF8688043F0D2
:1054F000FF4949F4E00900F00CBCDFF874924FF06A
:10550000000800F006BC139B1794002B00F00C84DD
:1055100000230C93FFE32C46BBF1000F08BFAB4602
:105520000498102DA8BF1024B71AFEF729FB092CE8
:105530008046894613DD894B03EBC40353E91223EC
:10554000FEF794FB804602988946FEF719FB024657
:105550000B4640464946FEF7D7F9804689460F2D4F
:1055600033DC002F00F0D58322DD162F07DC7B4DC6
:10557000424605EBC7014B46D1E9000113E0C5F1F6
:1055800025039F4221DC754CC5F10F0504EBC501D5
:105590007D1B4246D1E900014B4604EBC504FEF7F2
:1055A00065FBD4E90023FEF761FB80468946B0E342
:1055B00017F1160F09DB694D4046A5EBC703D3E988
:1055C00000234946FEF77CFCEFE72C1B3C44002CF3
:1055D0005DDD14F00F010AD0604B424603EBC101C0
:1055E000D1E900014B46FEF741FB8046894634F085
:1055F0000F0400F0C180B4F59A7F0FDD4FF0000B6F
:10560000CDF808B0CDF814B0CDF810B02223CAF808
:105610000030DFF858914FF0000889E140464946D4
:1056200000234F4E24110293012C0CDDE20704D518
:10563000D6E90023FEF71AFB0123029A6410013217
:1056400002920836F0E70BB180468946444B029A35
:10565000A9F1547903EBC201D1E9000142464B465E
:10566000FEF704FB21F0004389460A461B0D3D4925
:105670001B058B428046C1D8A1F580118B4286BFA5
:10568000DFF8F0904FF0FF3802F1547974E073D0F6
:10569000644214F00F020AD0304B404603EBC203C1
:1056A0004946D3E90023FEF70BFC804689462411C6
:1056B00062D01F2C08DD4FF0000BCDF808B0CDF8FC
:1056C00014B0CDF810B02CE14046494614F0100F4C
:1056D0000CBF00236A23244E03930023002C09DD12
:1056E000E20704D5D6E90023FEF7C0FA01236410CF
:1056F0000836F3E70BB180468946039BEBB1C9F34B
:105700000A53C3F16B03002B494616DD1F2B0EDD38
:10571000342BDEBF203B4FF0FF3202FA03F34FF091
:105720000008CCBF4FF05C7903EA010905E04FF0B7
:10573000FF3202FA03F303EA08080022002340467E
:105740004946FEF7FBFC0028B5D117E08C7F08081E
:105750008F7F0808E17F0808987F080840820808C2
:10576000088308080000A07CB07F08080000F07FD4
:105770000000F8FFFFFFEF7F00230393049B5A46CE
:10578000009306992B46504601F0F7FA0590002841
:105790003FF434AF002FC7F10003A8BF00230D93DF
:1057A0004FF0000B27EAE7731293CDF808B0059B82
:1057B0005046596801F05AFA049000283FF426AF89
:1057C000059B0C301A6903F10C0102329200FEF7BE
:1057D000DFFE1AAB019319AB009342464B4650468D
:1057E000CDE9088901F079FD189000283FF40EAF4B
:1057F0000121504601F04CFB029000283FF406AF17
:10580000199B0399002BACBF0D9A129A1A9CACBF3E
:10581000D618D21AA3EB01032344B14903F1FF3395
:10582000ACBF129A0D9E8B42C4F1360480F2858083
:10583000C91A1F29C8BFAB4D4FF00107D4BF07FAE3
:1058400001F3ED1AA4EB0104D9BF0793002507FA71
:1058500005F507973719039BBE4214441C44334691
:10586000A8BF3B46A342A8BF2346002BC2BFFF1AD6
:10587000E41AF61A0D9B002B63D1002F7ADC129BE1
:10588000002B40F08180002C00F38880002E00F374
:105890008F80049A1899504601F04FFC83460028E7
:1058A0003FF4B4AEC3680024C4600299069301F0CB
:1058B00028FCA04280F28B80069B002B40F00282E5
:1058C000B8F1000F40F0FE81C9F31303002B40F044
:1058D000F98129F000431B0D1B05B3F1D66F40F28F
:1058E000F181DBF81430002B6CD059460122504670
:1058F00001F0B6FB0299834601F003FC002840F357
:10590000E18129F00043039A1B0D1B05002A00F0DA
:105910008D80B3F1D66F00F38980B3F15C7F00F323
:10592000D38122234FF000084FF00009CAF800305D
:10593000059B002B40F0D981EBE101230025079363
:1059400088E71A460299504601F03CFB0290002875
:105950003FF45CAE0146189A504601F0A2FA069058
:1059600000283FF453AE1899504601F0B4F9069B55
:10597000189382E73A461899504601F071FB189047
:1059800000287FF47CAF41E6129A0499504601F05A
:1059900019FB049000287FF476AF37E6224604997D
:1059A000504601F05DFB049000287FF46FAF2DE6B8
:1059B00032460299504601F053FB029000287FF4D2
:1059C00068AF23E6DBF81030012B8EDC7AE161D181
:1059D000069AC9F3130322B343494A468B422ED198
:1059E000039B414663B1414B1340B3F1D46F07D8D9
:1059F0001B0DC3F16B034FF0FF3000FA03F301E01E
:105A00004FF0FF338B421AD139498A4202D1013318
:105A10003FF4FCAD354B4FF00008134003F58019FF
:105A200050E163B9B8F1000F09D16AE7A3F580131B
:105A30006FEA13594FF0FF386FEA095942E115B187
:105A400015EA090F02E0079B13EA080F00F03A81FC
:105A5000069B039A4046494653B1FFF76FFB024647
:105A60000B46DDE90801FDF74FFF8046894629E135
:105A7000FFF764FB02460B46DDE90801FDF742FF34
:105A80000022002380468946FEF758FB00287FF459
:105A900048AF17E10299584601F06DFC00224FF023
:105AA000804306460F46FEF75DFB00283FD0069B6D
:105AB00013B100260F4F10E0B8F1000F03D1C9F366
:105AC00013033BB91AE0B8F1010F03D1B9F1000F8C
:105AD0003FF427AF084F00260024064D3CE000BFEE
